:100000000C943D030C945A0B0C9465030C943F0E16
:100010000C946C0E0C94990E0C9465030C9465036F
:100020000C9465030C9465030C9465030C946503B0
:100030000C9465030C9465030C9465030C946503A0
:100040000C94EA150C9465030C945A100C94F91056
:100050000C9465030C9465030C9465030C94650380
:100060000C9465030C94650300000000003E5B4F98
:100070005B3E3E6B4F6B3E1C3E7C3E1C183C7E3C08
:10008000181C577D571C1C5E7F5E1C00183C180016
:10009000FFE7C3E7FF0018241800FFE7DBE7FF30A6
:1000A000483A060E2629792926407F050507407F14
:1000B00005253F5A3CE73C5A7F3E1C1C08081C1C87
:1000C0003E7F14227F22145F5F005F5F06097F017D
:1000D0007F006689956A606060606094A2FFA29468
:1000E00008047E040810207E201008082A1C080836
:1000F0001C2A08081E101010100C1E0C1E0C303884
:100100003E3830060E3E0E06000000000000005F84
:1001100000000007000700147F147F14242A7F2AA0
:100120001223130864623649562050000807030062
:10013000001C2241000041221C002A1C7F1C2A08AE
:10014000083E080800807030000808080808000011
:1001500060600020100804023E5149453E00427F85
:10016000400072494949462141494D331814127FD4
:100170001027454545393C4A494931412111090774
:100180003649494936464949291E000014000000F5
:1001900040340000000814224114141414140041C7
:1001A00022140802015909063E415D594E7C121184
:1001B000127C7F494949363E414141227F414141BC
:1001C0003E7F494949417F090909013E4141517337
:1001D0007F0808087F00417F41002040413F017FA8
:1001E000081422417F404040407F021C027F7F0470
:1001F00008107F3E4141413E7F090909063E4151B9
:10020000215E7F09192946264949493203017F01A8
:10021000033F4040403F1F2040201F3F4038403FA9
:10022000631408146303047804036159494D4300BF
:100230007F4141410204081020004141417F0402F6
:10024000010204404040404000030708002054548D
:1002500078407F284444383844444428384444286B
:100260007F385454541800087E090218A4A49C78BE
:100270007F0804047800447D40002040403D007F1A
:100280001028440000417F40007C047804787C08FA
:100290000404783844444438FC18242418182424CE
:1002A00018FC7C08040408485454542404043F44B3
:1002B000243C4040207C1C2040201C3C4030403CE2
:1002C00044281028444C9090907C4464544C440042
:1002D00008364100000077000000413608000201A6
:1002E0000204023C2623263C1EA1A161123A404092
:1002F000207A38545455592155557941225454780F
:1003000042215554784020545579400C1E527212A7
:100310003955555559395454545939555454580030
:1003200000457C410002457D420001457C407D1234
:1003300011127DF0282528F07C5455450020545496
:100340007C547C0A097F4932494949323A44444441
:100350003A324A4848303A4141217A3A424020787C
:10036000009DA0A07D3D4242423D3D4040403D3C7D
:1003700024FF2424487E4943662B2FFC2F2BFF09A2
:1003800029F620C0887E0903205454794100004496
:100390007D413048484A32384040227A007A0A0A81
:1003A000727D0D19317D2629292F282629292926F4
:1003B00030484D4020380808080808080808382F39
:1003C00010C8ACBA2F102834FA00007B00000814C3
:1003D0002A142222142A1408AA005500AAAA55AAEF
:1003E00055AA000000FF00101010FF00141414FFA5
:1003F000001010FF00FF1010F010F0141414FC0097
:100400001414F700FF0000FF00FF1414F404FC14A0
:100410001417101F10101F101F1414141F00101099
:1004200010F0000000001F101010101F101010100E
:10043000F010000000FF101010101010101010FF2E
:1004400010000000FF140000FF00FF00001F101745
:100450000000FC04F414141710171414F404F4002E
:1004600000FF00F714141414141414F700F71414F4
:1004700014171410101F101F141414F4141010F07B
:1004800010F000001F101F0000001F14000000FCEF
:10049000140000F010F01010FF10FF141414FF14DB
:1004A0001010101F00000000F010FFFFFFFFFFF012
:1004B000F0F0F0F0FFFFFF0000000000FFFF0F0F63
:1004C0000F0F0F3844443844FC4A4A4A347E020233
:1004D0000606027E027E0263554941633844443C6D
:1004E00004407E201E2006027E020299A5E7A599FF
:1004F0001C2A492A1C4C7201724C304A4D4D303036
:1005000048784830BC625A463D3E494949007E0120
:1005100001017E2A2A2A2A2A44445F444440514A3F
:10052000444040444A51400000FF0103E080FF0086
:100530000008086B6B083612362436060F090F06C2
:10054000000018180000001010003040FF010100EA
:100550001F01011E00191D1712003C3C3C3C00000D
:100560000000004445564943455F494E49544941BE
:100570004C495345440D0A004572726F7221204365
:10058000757272656E74204C696D69742052657164
:10059000756573746564204F7574206F66205261B1
:1005A0006E6765004572726F722120566F6C7461C0
:1005B000676520526571756573746564204F757445
:1005C000206F662052616E676500414E54492D438D
:1005D0004C4F434B5749534500434C4F434B5749AE
:1005E000534500567365743A00496C696D3A005280
:1005F0006F746172795F456E636F64657228293A22
:100600003A636F6E6669672D3E556E6B6E6F776EDF
:10061000205043494E545F504F52542041726775E9
:100620006D656E7400000000070002010000030405
:100630000600000000000000000102040810204035
:1006400080010204081020010204081020040404A0
:10065000040404040402020202020203030303036B
:100660000300000000250028002B000000000024EB
:100670000027002A00007F0CCE1111241FBECFEFEF
:10068000D8E0DEBFCDBF14E0A0E0B1E0E0E0F6E3EB
:1006900002C005900D92A433B107D9F725E0A4E379
:1006A000B4E001C01D92AF33B207E1F713E0CDE330
:1006B000D3E004C02197FE010E94D719CB33D107A4
:1006C000C9F70E94AB0B0C94FE1A0C9400002F92F9
:1006D0003F924F925F926F927F928F929F92AF92D2
:1006E000BF92CF92DF92EF92FF920F931F93CF931F
:1006F000DF9300D000D000D0CDB7DEB72C017E83D1
:100700006D836A015901C801FC82EB824801841A99
:10071000950A97FE03C091948194910835012D812B
:100720003E81621A730A77FE03C071946194710866
:10073000681479045CF43A2D2B2D5C01832F922FE1
:100740003D812E81DE82CD82C32ED22EAD81BE812F
:10075000AA16BB065CF43C2D2D2D6C01832F922F25
:100760003D812E81BE82AD82A32EB22E85012D81C8
:100770003E81021B130B1C012C183D0837FE03C0E1
:10078000319421943108780117FF03C03FEFE31A39
:10079000F30AF594E794C816D9062CF08FEF9FEF73
:1007A0009A83898304C0A1E0B0E0BA83A9832D8134
:1007B0003E81A216B30624F1D201ED91FC91048092
:1007C000F581E02D2B813C816814790424F44D815E
:1007D0005E81B60103C0A6016D817E81C2010995CB
:1007E000E218F308F7FE06C029813A81C20ED31E33
:1007F000E00EF11E8D819E8101969E838D83D7CF61
:1008000026960FB6F894DEBF0FBECDBFDF91CF9115
:100810001F910F91FF90EF90DF90CF90BF90AF901E
:100820009F908F907F906F905F904F903F902F9010
:1008300008956F927F928F929F92AF92BF92CF92C4
:10084000DF92EF92FF920F931F93CF93DF93EC0110
:100850004B015A0169013801E881F9810284F3856D
:10086000E02D87010995A501460D571D41505109FD
:10087000E881F9810284F385E02D9601B401CE016F
:100880000995E881F9810084F185E02D9301A501A6
:10089000B401CE010995C80CD91CB601615071098B
:1008A000E881F9810084F185E02D9301A501CE0155
:1008B0000995DF91CF911F910F91FF90EF90DF90FD
:1008C000CF90BF90AF909F908F907F906F90089542
:1008D000EF92FF920F931F93240F351F2150310980
:1008E000DC01ED91FC910680F781E02D7801890112
:1008F0009B0109951F910F91FF90EF900895EF9242
:10090000FF920F931F93260F371F21503109DC01EF
:10091000ED91FC910680F781E02D78018A0109951F
:100920001F910F91FF90EF9008956F927F928F9299
:100930009F92AF92BF92CF92DF92EF92FF920F936E
:100940001F93CF93DF936C015A014801EB013B01E8
:10095000620E731EC615D70574F4D601ED91FC9195
:100960000084F185E02D87019401A501BE01C60137
:1009700009952196EFCFDF91CF911F910F91FF90B5
:10098000EF90DF90CF90BF90AF909F908F907F902F
:100990006F900895EF92FF920F931F93DC011A96C8
:1009A0000D911C911B9718962D913C911997ED91E3
:1009B000FC910684F785E02D7B0140E050E060E08B
:1009C00070E009951F910F91FF90EF9008950895A1
:1009D000FC011382128284E093E09183808375830B
:1009E0006483578346837187608753874287158A5C
:1009F000158614861786168681E0848B2FEF3FEFCD
:100A0000338B228B318B208B868B08952F923F92D4
:100A10004F925F926F927F928F929F92AF92BF920E
:100A2000CF92DF92EF92FF920F931F93CF93DF93BA
:100A3000CDB7DEB72D970FB6F894DEBF0FBECDBF92
:100A4000DC011896ED91FC9119976E177F070CF059
:100A50009BC01A96ED91FC911B974E175F070CF007
:100A600093C08C2C912CFB01B6E0CB9EE00DF11DC8
:100A700011241E161F060CF087C0F40133E0EE0FA0
:100A8000FF1F3A95E1F7E40FF51F1E161F060CF045
:100A90007BC0CF82FE82ED821C830B831A015C0136
:100AA00045E0249F900111247D876C873B011A82C9
:100AB000C901861B970B99878887D1011896BB8738
:100AC000AA87BA81B53049F0E885F985E60DF71DAA
:100AD000E859FF4F2491298301C019822101610146
:100AE000398130FF12C0D501ED91FC91BF81B13049
:100AF00031F40480F581E02D2B813C8117C0068400
:100B0000F785E02DEB80FC801BC02B813C814D8163
:100B10005E8124173507D9F0D501ED91FC91BF8195
:100B2000B13049F40480F581E02D9A01A201B301AE
:100B3000C50109950CC00684F785E02DED80FE8087
:100B400084019401A6016C857D85C50109952981E3
:100B5000269529833FEF431A530AC80CD91C4A85AE
:100B60005B854416550609F0BBCF5A815F5F5A83F7
:100B70008FEF681A780AAC85BD85A80DB91DBD87B1
:100B8000AC87563009F09DCF2D960FB6F894DEBF96
:100B90000FBECDBFDF91CF911F910F91FF90EF90CE
:100BA000DF90CF90BF90AF909F908F907F906F908D
:100BB0005F904F903F902F900895CF92EF92FF92C9
:100BC0000F931F93CF93DF93EC016A3059F42C8974
:100BD0008E859F8538E0239F800D911D11249F876E
:100BE0008E8735C06D30A9F1262FEA88FB880889E9
:100BF00019894E855F856C857D85CC880E940605A8
:100C00004C89242F30E08C859D8556E0459F800DD2
:100C1000911D11249D878C874E894423D1F04AEF82
:100C20004203B001439F700D112448855985460F3A
:100C3000571F481759076CF483E0220F331F8A951A
:100C4000E1F78E859F85280F391F3F872E871D86E8
:100C50001C8681E090E0DF91CF911F910F91FF9072
:100C6000EF90CF900895611101C061E0FC01648BA9
:100C70000895FC01738B628B718B608B0895FC016E
:100C8000718B608B538B428B0895FC01668B0895AA
:100C9000FC016370658B8481958126813781613089
:100CA00039F0633029F09187808733872287089550
:100CB00031872087938782870895FC0177FD68C07C
:100CC00080859185681779070CF062C057FD60C078
:100CD00082859385481759070CF05AC08589823060
:100CE00059F08330B1F08130D1F48FE290E0861B6F
:100CF000970BBA01AC0113C083E590E0FC01E61B41
:100D0000F70BBF018FE290E0FC01E41BF50BAF0194
:100D100006C083E590E0841B950BAB01BC016435F4
:100D20007105B0F54033510598F5CA01E3E095959A
:100D30008795EA95E1F747705527232BA1F024E525
:100D4000289FF001299FF00D11246E0F7F1FFB01DA
:100D5000EA5FFE4F81E090E001C0880F4A95EAF714
:100D60009081892B14C024E5289FF001299FF00D64
:100D700011246E0F7F1FFB01EA5FFE4F81E090E0C0
:100D800001C0880F4A95EAF7809590818923808376
:100D90000895FF920F931F93CF93DF93EC01F62EEC
:100DA000142F022F40E350E064E570E00E94E80455
:100DB0008CE193E0998388838FEF8F8B888FF98EF6
:100DC0000A8F1B8FDF91CF911F910F91FF90089594
:100DD000FC0187898F3F21F481E0908D9F3F09F0CE
:100DE00080E008951F93CF93DF93EC01162F0E94AC
:100DF000E806882331F01EBD0DB407FEFDCF8EB589
:100E000021C028E030E090E8EE8DFF8D408189A17F
:100E1000809584238083EC8DFD8D88A1412F49230B
:100E200019F04081842B03C0408180958423808306
:100E3000EE8DFF8D408189A1842B80839695215072
:100E4000310911F7DF91CF911F9108951F93CF932F
:100E5000DF93EC01162F60E0898D0E942B178B8D9C
:100E600018161CF460E00E942B17612FCE010E941F
:100E7000F2068B8D181634F461E0DF91CF911F914B
:100E80000C942B17DF91CF911F910895CF92DF9291
:100E9000EF92FF920F931F93CF93DF93EC0186E0C5
:100EA000E82E81E0F82E10E0612F6064CE010E94F0
:100EB000260760E8CE010E94260761E0898D0E9426
:100EC0002B178B8D18161CF460E00E942B176701FE
:100ED00004E5F60161916F01CE010E94F206015016
:100EE000C1F78B8D18161CF461E00E942B171F5F51
:100EF000F4E5EF0EF11C1630B9F660E4CE01DF9197
:100F0000CF911F910F91FF90EF90DF90CF900C94B5
:100F100026070F931F93CF93DF93EC01162F042F17
:100F20000E94E806882361F00E94AE1580E00E94CE
:100F3000DB1580E00E94D61581E00E94CD1534C0FB
:100F400061E08F890E94EF1661E0888D0E94EF16A4
:100F5000888D082E000C990BFC01E35BF94FE4919E
:100F6000F0E0EE0FFF1FEF59F94F259134913F8FBD
:100F70002E8FFC01E75CF94FE491E9A38F89082EDD
:100F8000000C990BFC01E35BF94FE491F0E0EE0FEC
:100F9000FF1FEF59F94F259134913D8F2C8FFC01A4
:100FA000E75CF94FE491E8A361E0898D0E94EF16B8
:100FB0008A8D18161CF461E00E94EF168B8D1816AE
:100FC0001CF461E00E94EF168A8D181684F460E02C
:100FD0000E942B172FEF89E698E121508040904026
:100FE000E1F700C0000061E08A8D0E942B1761E2EA
:100FF000CE010E942607602F6061CE010E94260765
:1010000017FD1FE7612F6068CE010E94260760E28E
:10101000CE010E9426076CE0CE010E942607CE0179
:10102000DF91CF911F910F910C94460728EF31E08B
:10103000E6E0F1E0DF01A9011D9241505040E1F7E7
:10104000DC011D961C921E921C971F961C921E92EC
:101050001E970895FC0114821382608388E08183C7
:1010600012820895FC01608381E00895CF93DF939D
:1010700000D0CDB7DEB71A82198222E0AE014F5FF1
:101080005F4FFC0180810E94491389819A819827D2
:10109000892798270F900F90DF91CF910895CF93D4
:1010A000DF93EC0161E00E943608BC01990F880BC8
:1010B000990B0E94761829813A814B815C810E94AC
:1010C0002619DF91CF910895CF93DF93EC0162E071
:1010D0000E943608BC01990F880B990B0E94761864
:1010E00029853A854B855C850E942619DF91CF9131
:1010F0000895CF93DF9300D0CDB7DEB74A835983ED
:1011000022E0AE014F5F5F4FFC0180810E942013FF
:101110000F900F90DF91CF910895CF92DF92EF92D1
:10112000FF920F93FC01842FC12CD12C90E1E92E6A
:1011300092E4F92EC18AD28AE38AF48AC12CD12C96
:1011400030E7E32E31E4F32EC586D686E786F08AB3
:101150004AE0C42E47EDD42E43EAE42E4AE3F42EAF
:10116000C182D282E382F482C186D286E386F4868B
:101170005AE0C52E57EDD52E53E2E52E5CE3F52E51
:10118000C582D682E782F08698E0299FA0011124CB
:10119000402B20E4829FC0011124482B592B70E082
:1011A000762F6627770F462B572B60E0CF010E94E2
:1011B000790881E00F91FF90EF90DF90CF90089534
:1011C0008F929F92AF92BF92CF92DF92EF92FF9257
:1011D0000F931F936B017C0149015A010E94341641
:1011E0000091340410913504209136043091370475
:1011F000DC01CB01801B910BA20BB30B8536910553
:10120000A105B10508F480C08CE394E00E941608A3
:1012100062E08CE394E00E94480661E08CE394E095
:101220000E94450661E08CE394E00E94330641E0B1
:1012300050E060E070E08CE394E00E943F0669EECD
:1012400075E08CE394E00E94C11323E030E0B50127
:10125000A4018CE394E00E949A1560E373E08CE3B0
:1012600094E00E94131463EE75E08CE394E00E9416
:10127000C11323E030E0B701A6018CE394E00E94A3
:101280009A1562E373E08CE394E00E94131461E02A
:1012900070E08CE394E00E94390662E08CE394E015
:1012A0000E94330683E694E00E946408AB01BC010F
:1012B00022E030E08CE394E00E949A1562E373E050
:1012C0008CE394E00E94131483E694E00E944F089C
:1012D000AB01BC0123E030E08CE394E00E949A155E
:1012E00060E373E08CE394E00E9413148CE394E0D9
:1012F0000E9446070E9434166093340470933504AC
:1013000080933604909337041F910F91FF90EF90D4
:10131000DF90CF90BF90AF909F908F9008958F9265
:101320009F92AF92BF92CF92DF92EF92FF92CF93B4
:10133000DF9300D0CDB7DEB79C0128573540293D5B
:10134000304440F064EA75E081E894E00E940114C2
:1013500080E0B4C09C01A1E1B0E00E94B5190E94F8
:10136000741820E030E04AE753E40E94CC179B0158
:10137000AC0160E070EE86EA94E40E945A176B01BB
:101380007C0120E030E040E853E40E9426194B0144
:101390005C0120E030E44CE154E40E94CC170E9450
:1013A00045189B016F3F710509F028F4672B29F45C
:1013B00021E030E002C02FEF30E02983A1E7B2E066
:1013C0000E94B5190E94741820E030E040E05CE310
:1013D0000E9426199B01AC01C501B4010E94CC17E3
:1013E0000E9445186A8364E373E081E894E00E94F8
:1013F000E41322E030E0B701A60181E894E00E9406
:101400009C1567E473E081E894E00E94E4134AE0ED
:1014100050E0698181E894E00E948F146FE473E0EA
:1014200081E894E00E94E4134AE050E06A8181E898
:1014300094E00E948F142981AA8130E0B0E00E94DC
:10144000B5199B01AC01A2EEB4E00E94C4196C0175
:10145000EE24FF2467E573E081E894E00E94E41342
:101460004AE050E0B60181E894E00E94A71460E7EA
:1014700073E081E894E00E94E413A6E0BFEFA701C7
:1014800096010E94D2196A54784E8A4F9F4F21E1EB
:1014900030E040E050E00E949319CA01B9014AE0EF
:1014A00050E081E894E00E94A71422E0AE014F5F73
:1014B0005F4F60E080E50E94201381E00F900F9065
:1014C000DF91CF91FF90EF90DF90CF90BF90AF90E2
:1014D0009F908F9008954F925F926F927F92AF92FC
:1014E000BF92CF92DF92EF92FF920F931F93CF9311
:1014F000DF9300D0CDB7DEB75C010A978F379341F9
:1015000040F068E775E081E894E00E94011480E013
:10151000C0C0B50180E090E00E94741820E030E087
:1015200040EA50E40E94CC176B017C0120E030E0DF
:1015300040E053E40E94261920E030E44CE154E4FA
:101540000E94CC170E9445188B016F3F710509F06E
:1015500028F4672B29F401E010E002C00FEF10E03F
:10156000098320E030E040E853E4C701B6010E945F
:1015700026192B013C019801A1E7B2E00E94B519A0
:101580000E94741820E030E040E85CE30E942619D5
:101590009B01AC01C301B2010E94CC170E94451807
:1015A0006A836CEB73E081E894E00E94E4134AE004
:1015B00050E0B50181E894E00E94A71463ED73E068
:1015C00081E894E00E94E41322E030E0B701A60134
:1015D00081E894E00E949C1567E473E081E894E060
:1015E0000E94E4134AE050E0698181E894E00E949F
:1015F0008F146FE473E081E894E00E94E4134AE002
:1016000050E06A8181E894E00E948F142981AA81C8
:1016100030E0B0E00E94B5199B01AC01A4ECB9E048
:101620000E94C4190E94741820E030E040E857E39B
:101630000E9426196B017C0167EE73E081E894E05B
:101640000E94E41322E030E0B701A60181E894E0B3
:101650000E949C1563E074E081E894E00E94E4132A
:1016600020E030E040EA50E4C701B6010E942619AC
:10167000AB01BC0122E030E081E894E00E949C15BF
:1016800022E0AE014F5F5F4F60E081E50E942013D2
:1016900081E00F900F90DF91CF911F910F91FF90FC
:1016A000EF90DF90CF90BF90AF907F906F905F9062
:1016B0004F9008951F920F920FB60F9211240F9022
:1016C0000FBE0F901F9018951F93CF93DF9300D0FC
:1016D00000D000D0CDB7DEB7182F62E1CE0104965E
:1016E0000E94AF0F63E1CE0101960E94AF0FCE01C1
:1016F0000496112339F00E94920FCE0101960E94A8
:10170000920F06C00E94740FCE0104960E94740FBF
:1017100026960FB6F894DEBF0FBECDBFDF91CF91F6
:101720001F9108950E948B1640E051EE60E070E03A
:1017300081E894E00E94451163E675E081E894E059
:101740000E94C11360E87AE186E090E00E940512F1
:1017500081E00C94640BCF93DF93CDB7DEB7A397F2
:101760000FB6F894DEBF0FBECDBFA8950FB6F894A4
:10177000A89580916000886180936000109260005D
:101780000FBE0E94920B64E483E694E00E9432084C
:1017900007E024E044E060E083E694E00E948D08E6
:1017A00080EC8BA321E0AE014D5D5F4F60E180E5F1
:1017B0000E94201384EC99E00E948F0988E893E14D
:1017C0000E946B0A68EC70E080E090E00E94651671
:1017D00044E068E28CE394E00E94890720E030E076
:1017E00040EA50E460E070E080E290E40E94E008AB
:1017F00025E044E062E0CE0142960E94EA0D82E0DC
:10180000E82E04E610E028E735E040E556E464EE13
:101810007CE0CE0142960E94D30C21E040E061E0E2
:10182000CE0101960E94EA0DEE24E3940AE010E056
:101830002AE030E048E853E168EE73E0CE0101961B
:101840000E94D30C00EF10E1CE0142960E94900C52
:10185000823069F08330A9F46AEC75E081E894E0A5
:101860000E940114CE0142960E94BB0C0AC069ED91
:1018700075E081E894E00E940114CE0142960E9436
:10188000A30CCE0101960E94900C823039F0833077
:1018900049F4CE0101960E94BB0C04C0CE01019612
:1018A0000E94A30C8A899B890E948F0989819A8151
:1018B0000E946B0A69817A8180E090E00E9474182E
:1018C00020E030E04AE754E40E94CC176B017C0131
:1018D0006A897B8980E090E00E94741820E030E003
:1018E0004AE754E40E94CC17A70196010E94E00841
:1018F0000115110509F4A8CF0E94F010A5CF68E4E6
:101900008EE594E00E942A0828E04AE069E08CE332
:1019100094E00E94C90667E089E394E00C94AF0F5D
:10192000CF93DF93EC018E859F850E94E20E81119B
:1019300006C08E859F85DF91CF910C94F60E80E0D6
:10194000DF91CF910895FC0181858F5F818790851C
:10195000891310C040815181868197812281338112
:10196000281B390B2417350720F0840F951F91830E
:10197000808311860895FC0182858F5F8287908520
:10198000891310C0808191814681578124813581DE
:10199000240F351F8217930720F0841B950B91832A
:1019A000808312860895EF920F931F93FC01718339
:1019B0006083538342833583248317830683E086C1
:1019C000118612861F910F91EF900895EF92FF926A
:1019D0001F93CF93DF93EC01162F4C872D87188A26
:1019E0008AE090E00E9487137C0164E070E00E942E
:1019F000EF0EFF86EE86113009F493C008F44AC05A
:101A0000123009F0D5C04AB181E090E0BC010C84ED
:101A100002C0660F771F0A94E2F79C010D8402C092
:101A2000220F331F0A94E2F7262B209524232AB98C
:101A30003BB1BC010C8402C0660F771F0A94E2F729
:101A4000AC010D8402C0440F551F0A94E2F7262F03
:101A5000242B232B2BB91B8720916D00AC010C8408
:101A600002C0440F551F0A94E2F70D8402C0880F8C
:101A7000991F0A94E2F7842B822B80936D0080914A
:101A800068008460809368002B96D0938004C09394
:101A90007F0499C044B181E090E0BC010C8402C095
:101AA000660F771F0A94E2F79C010D8402C0220F93
:101AB000331F0A94E2F7262B2095242324B935B14D
:101AC000BC010C8402C0660F771F0A94E2F7AC01D8
:101AD0000D8402C0440F551F0A94E2F7262F242BD1
:101AE000232B25B91B8620916B00AC010C8402C00E
:101AF000440F551F0A94E2F70D8402C0880F991F06
:101B00000A94E2F7842B822B80936B00809168000B
:101B10008160809368002B96D0937C04C0937B04F3
:101B200052C047B181E090E0BC010C8402C0660F56
:101B3000771F0A94E2F79C010D8402C0220F331F25
:101B40000A94E2F7262B2095242327B938B1BC014B
:101B50000C8402C0660F771F0A94E2F7AC010D8473
:101B600002C0440F551F0A94E2F7262F242B232B83
:101B700028B91B8720916C00AC010C8402C0440F73
:101B8000551F0A94E2F70D8402C0880F991F0A942A
:101B9000E2F7842B822B80936C0080916800826036
:101BA000809368002B96D0937E04C0937D040BC075
:101BB0006FEE75E081E894E0DF91CF911F91FF9087
:101BC000EF900C9401147894DF91CF911F91FF90C6
:101BD000EF9008950C94E60C0F931F93CF93DF932F
:101BE0001F92CDB7DEB7FC011982A081B0E0A858E2
:101BF000BB4F8C9190E0018002C0959587950A9427
:101C0000E2F780FF03C08981816089838C9190E035
:101C1000028002C0959587950A94E2F780FF03C081
:101C200089818260898385819981891711F18F016A
:101C30009981911104C08130C9F463E006C0998193
:101C4000913049F4811112C062E0F80183819481DE
:101C50000E94280F0BC09981933019F4823031F41F
:101C6000ECCF9981923011F4833071F38981F801BE
:101C700085830F90DF91CF911F910F9108951F924F
:101C80000F920FB60F9211242F933F934F935F93B0
:101C90006F937F938F939F93AF93BF93EF93FF9334
:101CA00083B18093780480917B0490917C040097A9
:101CB00011F00E94EC0DFF91EF91BF91AF919F91B8
:101CC0008F917F916F915F914F913F912F910F90E5
:101CD0000FBE0F901F9018951F920F920FB60F9284
:101CE00011242F933F934F935F936F937F938F9321
:101CF0009F93AF93BF93EF93FF9386B18093790443
:101D000080917D0490917E04009711F00E94EC0D6B
:101D1000FF91EF91BF91AF919F918F917F916F91C3
:101D20005F914F913F912F910F900FBE0F901F9099
:101D300018951F920F920FB60F9211242F933F9375
:101D40004F935F936F937F938F939F93AF93BF93C3
:101D5000EF93FF9389B180937A0480917F049091EF
:101D60008004009711F00E94EC0DFF91EF91BF915C
:101D7000AF919F918F917F916F915F914F913F9123
:101D80002F910F900FBE0F901F9018950F931F93D8
:101D9000CF93DF93EC01162F072F81E090E00E9494
:101DA0008713FC011083998788871E830F838FEF29
:101DB0009FEF9D838C839B838A83DF91CF911F91BB
:101DC0000F910895FC0182819381019631F481E0A5
:101DD000248135812F3F3F4F09F080E0089520E2B4
:101DE00034E0FC01318320830C94C60EFC01228177
:101DF0003381448155812F3F8FEF380721F44F3FC6
:101E00008FEF580719F180859185DC01A20FB31F70
:101E10002417350731F49C912FEF3FEF358324834E
:101E200012C04217530764F446815781415051094B
:101E30002417350729F49C9113821282892F089563
:101E40009C912F5F3F4F33832283F8CF80E008952A
:101E5000FC0122813381848195812115310539F47A
:101E600046815781415051098417950719F1A901FD
:101E70004150510984179507E9F046815781415037
:101E800051098417950731F4121613061CF41582B4
:101E9000148203C0019695838483A085B1858481D3
:101EA0009581A80FB91F6C9382819381019611F4DB
:101EB000138212820895FC01683018F48BE290E0DE
:101EC0000FC088EF860F863030F425E230E0318392
:101ED0002083828308956E50663028F488E290E073
:101EE0009183808362830895FC01A081B1819E91DA
:101EF00021E030E0A901028002C0440F551F0A947E
:101F0000E2F7842F809589238C93A081B1818C91F5
:101F1000028002C0220F331F0A94E2F72095282383
:101F20002C930895FC01A081B1819E9121E030E0C5
:101F3000A901028002C0440F551F0A94E2F7842FC2
:101F4000809589238C93A081B1818C91028002C0FD
:101F5000220F331F0A94E2F7282B2C9308950C9438
:101F60005B0FFC0124853585F901E05CFF4F808122
:101F70009181329620813181821B930B8F73992737
:101F80000895DC011C96ED91FC911D97DF01A05C8A
:101F9000BF4F2D913C91119712968D919C91119765
:101FA0002817390739F08D919C91E80FF91F80812E
:101FB00090E008958FEF9FEF0895FC01A485B5850B
:101FC000FD01E05CFF4F208131813296808191815B
:101FD0002817390779F080819181A80FB91F8C915A
:101FE000208131812F5F3F4F2F733327318320832F
:101FF00090E008958FEF9FEF0895FC018685978507
:10200000FC01E05CFF4FDC01AE5BBF4F40815181C2
:102010002D913C91119742175307C1F708950F93E3
:102020001F93CF93DF93DC0192968C91929781302E
:10203000C9F11E96ED91FC911F978F01005C1F4F17
:10204000E801288139812F5F3F4F2F733327AF017C
:102050004E5B5F4FEA018881998182179307D1F324
:10206000E80148815981E40FF51F60831E96ED91C8
:10207000FC911F97E05CFF4F318320835696ED91D2
:10208000FC915797408121E030E0C9015D960C90AA
:1020900002C0880F991F0A94E2F7842B808381E0A5
:1020A00090E002C080E090E0DF91CF911F910F910E
:1020B000089508951F920F920FB60F9211242F9337
:1020C0003F934F935F936F937F938F939F93AF93C0
:1020D000BF93CF93EF93FF93C091C6008091A1046B
:1020E000882399F0CD3059F46DE081E894E00E94A6
:1020F0000F106AE081E894E00E940F1008C06C2F76
:1021000081E894E00E940F1006C0CD3021F481E0F8
:102110008093A0040DC0C03229F48091A2048823CA
:1021200039F04CC0CF3721F480913804811124C09C
:1021300080912A0590912B0520912C0530912D0539
:1021400001968F7399272817390761F0E0912A05C6
:10215000F0912B05E651FB4FC08390932B058093A4
:102160002A052CC08091A4049091A5040196909317
:10217000A5048093A40422C08091A4049091A50496
:10218000009711F00197F3CF20912A0530912B058C
:1021900080912C0590912D052817390779F08091B1
:1021A0002A0590912B05892B19F48FE390E0D5CF68
:1021B00080912A0590912B050197CFCFFF91EF9148
:1021C000CF91BF91AF919F918F917F916F915F91CF
:1021D0004F913F912F910F900FBE0F901F90189528
:1021E00081E894E00E94B10F892B11F00C945910F2
:1021F00008951F920F920FB60F9211242F933F93C1
:102200008F939F93EF93FF932091E6043091E7041F
:102210008091E8049091E9042817390731F48091FE
:10222000C1008F7D8093C10014C0E091E804F0915B
:10223000E904EA55FB4F20818091E8049091E9047C
:1022400001968F7399279093E9048093E804209373
:10225000C600FF91EF919F918F913F912F910F9029
:102260000FBE0F901F901895FC0112A2A689B78986
:102270004C9121E030E0C901038C02C0880F991F06
:102280000A94E2F7842B8C930895CF92DF92EF9219
:10229000FF92CF93DF93EC016A017B0119A218A290
:1022A0000E943411C11481EED806E104F10409F151
:1022B000EC89FD8981E090E00E8C02C0880F991FA7
:1022C0000A94E2F7808360E079E08DE390E0A70173
:1022D00096010E949319DA01C9010197A109B10978
:1022E000B695A795979587959C01211580E13807AC
:1022F000A8F0EC89FD89108260E874E88EE190E036
:10230000A70196010E949319DA01C9010197A10959
:10231000B109B695A795979587959C01E889F989A4
:102320003083EA89FB892083EE89FF89408181E03F
:1023300090E09C010A8C02C0220F331F0A94E2F73E
:10234000242B2083EE89FF8940819C010B8C02C0E5
:10235000220F331F0A94E2F7242B2083EE89FF8992
:1023600040819C010C8C02C0220F331F0A94E2F7BB
:10237000242B2083EE89FF8920810D8C02C0880FD9
:10238000991F0A94E2F78095822380831F8EDF9144
:10239000CF91FF90EF90DF90CF900895E1E8F4E0C7
:1023A0001382128288EE93E0A0E0B0E084839583EC
:1023B000A683B78386E294E0918380838AEE94E0DB
:1023C0009587848786EA94E09787868785EC90E0F6
:1023D000918B808B84EC90E0938B828B80EC90E0EF
:1023E000958B848B81EC90E0978B868B86EC90E0CC
:1023F000918F808F84E0828F83E0838F87E0848F4A
:1024000085E0858F81E0868F08959B01AC0160E0B7
:1024100074E284EF90E00E949319DA01C9014097B9
:10242000A109B109B695A795979587958F3F910515
:1024300009F040F41092B9008093B80024E0209392
:10244000BC00089580E090E008950F931F9384EA04
:102450008093BC000E94341660932E0570932F0564
:1024600080933005909331058091BC0087FD1EC09C
:102470000E94341600912E0510912F0520913005F1
:1024800030913105AB01BC01401B510B620B730B4A
:102490008091FE029091FF02A0E0B0E084179507C2
:1024A000A607B70708F782E090E008C02091B900BE
:1024B000287F81E090E0283009F080E01F910F91A3
:1024C00008950F931F9384EA8093BC000E943416F2
:1024D00060932E0570932F058093300590933105FE
:1024E0008091BC0087FD1EC00E94341600912E050D
:1024F00010912F052091300530913105AB01BC01C1
:10250000401B510B620B730B8091FE029091FF02F6
:10251000A0E0B0E084179507A607B70708F782E0A8
:1025200090E008C02091B900287F81E090E0203140
:1025300009F080E01F910F9108950F931F938093EE
:10254000BB009091BC0093FDFACF84E88093BC005F
:102550000E94341660932E0570932F0580933005EA
:10256000909331058091BC0087FD1DC00E943416F8
:1025700000912E0510912F052091300530913105E5
:10258000AB01BC01401B510B620B730B8091FE022F
:102590009091FF02A0E0B0E084179507A607B70767
:1025A00008F782E003C08091B900887F1F910F91E6
:1025B00008950F931F93CF93DF93EB01882311F0BE
:1025C00084E801C084EC8093BC000E9434166093C0
:1025D0002E0570932F0580933005909331058091DF
:1025E000BC0087FD1DC00E94341600912E0510917D
:1025F0002F052091300530913105AB01BC01401B06
:10260000510B620B730B8091FE029091FF02A0E0D0
:10261000B0E084179507A607B70708F782E004C063
:102620008091BB00888381E0DF91CF911F910F9152
:102630000895880F81600C949D12880F0C949D1250
:10264000FF920F931F93CF93DF93D82FC62FF42EB3
:10265000052F122F0E9425128D2F0E941D138C2FE3
:102660000E949D12CF2DD02FCE01810F911D8C0184
:10267000C017D10721F089910E949D12F9CF84E9FA
:102680008093BC0081E0DF91CF911F910F91FF906B
:102690000895CF92DF92EF92FF920F931F93CF9303
:1026A000DF93C82FD62F8A01E22E0E9425128C2F8D
:1026B0000E941D138D2F0E949D120E9461128C2F6B
:1026C0000E941913E801F12C00E010E0670181E09D
:1026D000C81AD1080E151F0569F0BE01C016D10633
:1026E00011F080E001C081E00E94D9120F5F1F4FFE
:1026F0002196F0CF84E98093BC0081E0DF91CF91F7
:102700001F910F91FF90EF90DF90CF9008950C9460
:10271000DD190895CF92DF92EF92FF920F931F93EE
:10272000CF93DF936C01EB017B01E40EF51E00E01B
:1027300010E0CE15DF0561F06991D601ED91FC91B5
:102740000190F081E02DC6010995080F191FF1CF06
:10275000C801DF91CF911F910F91FF90EF90DF9013
:10276000CF900895FB0101900020E9F73197AF0168
:10277000461B570BDC01ED91FC910280F381E02DAB
:102780000994EF92FF920F931F93CF93DF937C01F5
:10279000FB0100E010E06491EF012196662361F0F7
:1027A000D701ED91FC910190F081E02DC7010995D1
:1027B000080F191FFE01EFCFC801DF91CF911F91C4
:1027C0000F91FF90EF9008950C94B213DC01ED91FE
:1027D000FC910190F081E02D09940F931F93CF930A
:1027E000DF93EC016DE00E94E6138C016AE0CE01FC
:1027F0000E94E613800F911FDF91CF911F910F91DF
:1028000008950F931F93CF93DF93EC010E94C113A0
:102810008C01CE010E94ED13800F911FDF91CF91AB
:102820001F910F9108950F931F93CF93DF93EC01A6
:102830000E94B2138C01CE010E94ED13800F911FF4
:10284000DF91CF911F910F9108958F929F92AF9238
:10285000BF92CF92DF92EF92FF920F931F93CF938D
:10286000DF93CDB7DEB7A1970FB6F894DEBF0FBEEA
:10287000CDBF6C01142FE52FCB01022F19A22230FE
:1028800008F40AE07E0121E2E20EF11C802E912C78
:10289000A12CB12C612F7E2FA50194010E949319C8
:1028A000029F1019112481E0E81AF1081A3010F47F
:1028B000105D01C0195CF7011083122FE32FCA01CC
:1028C000232B242B252B31F7B701C6010E94B2130D
:1028D000A1960FB6F894DEBF0FBECDBFDF91CF91AA
:1028E0001F910F91FF90EF90DF90CF90BF90AF902E
:1028F0009F908F9008952115310541F4DC01ED91F1
:10290000FC910190F081E02D642F09940C94251422
:102910009A01462F50E060E070E00C947B140F9316
:102920001F93CF93DF93EC010E9488148C01CE019A
:102930000E94ED13800F911FDF91CF911F910F9196
:1029400008959A01AB0160E070E00C947B140F9342
:102950001F93CF93DF93EC010E94A1148C01CE0151
:102960000E94ED13800F911FDF91CF911F910F9166
:102970000895CF92DF92EF92FF920F931F93CF9320
:10298000DF932115310581F4DC01ED91FC9101907B
:10299000F081E02D642FDF91CF911F910F91FF9077
:1029A000EF90DF90CF9009942A30310501F577FF41
:1029B0001DC06A017B01EC016DE20E94E6138C01EF
:1029C00044275527BA014C195D096E097F092AE091
:1029D000CE010E942514800F911FDF91CF911F918E
:1029E0000F91FF90EF90DF90CF9008952AE0DF9154
:1029F000CF911F910F91FF90EF90DF90CF900C94AB
:102A000025149A01AB01770F660B770B0C94B91460
:102A10004F925F926F927F92AF92BF92CF92DF926E
:102A2000EF92FF920F931F93CF935C016A017B019A
:102A3000722E20E030E0A901C701B6010E94C7173D
:102A400087FF0AC06DE2C5010E94E6138C01F7FA08
:102A5000F094F7F8F09402C000E010E0C0E060E00D
:102A600070E080E09FE3C71541F020E030E040E2F5
:102A700051E40E94CC17CF5FF6CF9B01AC01C70198
:102A8000B6010E945B176B017C010E9445182B0167
:102A90003C012AE0AB01BC01C5010E942514080FCE
:102AA000191FCC23C1F1C301B2010E9474189B010C
:102AB000AC01C701B6010E945A176B017C0162E3A9
:102AC00074E0C5010E94B213080F191F20E030E026
:102AD00040E251E4C701B6010E9426192B013C01D6
:102AE0000E943E186B017C014AE050E0C5010E9443
:102AF0000115080F191FB601DD0C880B990B0E94F8
:102B000076189B01AC01C301B2010E945A176B01F8
:102B10007C01C150D9F6C801CF911F910F91FF9050
:102B2000EF90DF90CF90BF90AF907F906F905F90CD
:102B30004F9008950C9408150F931F93CF93DF9334
:102B4000EC010E9408158C01CE010E94ED13800F4C
:102B5000911FDF91CF911F910F91089561E08DE05A
:102B60000E94EF1661E08BE00E94EF1661E08AE0C0
:102B70000E94EF1660E08DE00E942B1760E08BE072
:102B80000E942B1761E08AE00E942B178CB58061B0
:102B90008CBD8CB580648CBD0895811103C08CB54B
:102BA000806202C08CB58F7D8CBD08959CB5937FEB
:102BB000892B8CBD08959CB59C7F282F2370922B68
:102BC0009CBD2DB582FB992790F9822F8E7F892B92
:102BD0008DBD08951F920F920FB60F9211242F935F
:102BE0003F938F939F93AF93BF93809133059091C1
:102BF0003405A0913505B09136053091320523E0BA
:102C0000230F2D3720F40196A11DB11D05C026E824
:102C1000230F0296A11DB11D209332058093330529
:102C200090933405A0933505B09336058091370510
:102C300090913805A0913905B0913A050196A11DF2
:102C4000B11D8093370590933805A0933905B09353
:102C50003A05BF91AF919F918F913F912F910F9026
:102C60000FBE0F901F9018952FB7F8946091330501
:102C70007091340580913505909136052FBF0895E8
:102C80003FB7F8948091370590913805A0913905A8
:102C9000B0913A0526B5A89B05C02F3F19F00196C3
:102CA000A11DB11D3FBFBA2FA92F982F8827820FD2
:102CB000911DA11DB11DBC01CD0142E0660F771F22
:102CC000881F991F4A95D1F70895CF92DF92EF920E
:102CD000FF92CF93DF936B017C010E944016EB01C2
:102CE000C114D104E104F10479F00E9440166C1B78
:102CF0007D0B683E7340A0F381E0C81AD108E1085B
:102D0000F108C851DC4FECCFDF91CF91FF90EF90ED
:102D1000DF90CF900895789484B5826084BD84B5A7
:102D2000816084BD85B5826085BD85B5816085BDC6
:102D3000EEE6F0E0808181608083E1E8F0E01082DF
:102D4000808182608083808181608083E0E8F0E020
:102D5000808181608083E1EBF0E08081846080830A
:102D6000E0EBF0E0808181608083EAE7F0E0808141
:102D700084608083808182608083808181608083A1
:102D80008081806880831092C1000895833081F033
:102D900028F4813099F08230A1F008958630A9F0AE
:102DA0008730B9F08430D1F4809180008F7D03C0EA
:102DB000809180008F7780938000089584B58F770D
:102DC00002C084B58F7D84BD08958091B0008F7757
:102DD00003C08091B0008F7D8093B0000895CF93A1
:102DE000DF9390E0FC01E75CF94F2491FC01E35B89
:102DF000F94F8491882361F190E0880F991FFC01BD
:102E0000E559F94FC591D491FC01EF59F94FA591BE
:102E1000B491611109C09FB7F894888120958223ED
:102E20008883EC912E230BC0623061F49FB7F89435
:102E30008881322F309583238883EC912E2B2C931D
:102E40009FBF06C08FB7F894E8812E2B28838FBFD1
:102E5000DF91CF9108951F93CF93DF93282F30E018
:102E6000F901EB5DF94F8491F901E75CF94FD491D9
:102E7000F901E35BF94FC491CC23C1F0162F811106
:102E80000E94C616EC2FF0E0EE0FFF1FEF59F94F2E
:102E9000A591B4919FB7F894111104C08C91D0956D
:102EA000D82302C0EC91DE2BDC939FBFDF91CF9142
:102EB0001F9108955058BB27AA270E9472170C949F
:102EC000EC180E94DE1838F00E94E51820F039F462
:102ED0009F3F19F426F40C94DB180EF4E095E7FB01
:102EE0000C94D518E92F0E94FD1858F3BA17620701
:102EF00073078407950720F079F4A6F50C941F1941
:102F00000EF4E0950B2EBA2FA02D0B01B901900104
:102F10000C01CA01A0011124FF27591B99F0593F48
:102F200050F4503E68F11A16F040A22F232F342F90
:102F30004427585FF3CF469537952795A795F040DE
:102F40005395C9F77EF41F16BA0B620B730B840BF3
:102F5000BAF09150A1F0FF0FBB1F661F771F881FAB
:102F6000C2F70EC0BA0F621F731F841F48F4879503
:102F700077956795B795F7959E3F08F0B0CF9395F5
:102F8000880F08F09927EE0F9795879508950E946E
:102F9000B11808F481E008950E94E0170C94EC1831
:102FA0000E94E51858F00E94DE1840F029F45F3FB7
:102FB00029F00C94D51851110C9420190C94DB189D
:102FC0000E94FD1868F39923B1F3552391F3951BE3
:102FD000550BBB27AA2762177307840738F09F5F3A
:102FE0005F4F220F331F441FAA1FA9F335D00E2EA7
:102FF0003AF0E0E832D091505040E695001CCAF714
:103000002BD0FE2F29D0660F771F881FBB1F2617D6
:1030100037074807AB07B0E809F0BB0B802DBF01AD
:10302000FF2793585F4F3AF09E3F510578F00C947C
:10303000D5180C9420195F3FE4F3983ED4F386959D
:1030400077956795B795F7959F5FC9F7880F911D9D
:103050009695879597F90895E1E0660F771F881F89
:10306000BB1F621773078407BA0720F0621B730B3C
:10307000840BBA0BEE1F88F7E09508950E9445185F
:103080006894B1110C94201908950E94051988F0D4
:103090009F5798F0B92F9927B751B0F0E1F0660F1C
:1030A000771F881F991F1AF0BA95C9F714C0B1305D
:1030B00091F00E941F19B1E008950C941F19672F19
:1030C000782F8827B85F39F0B93FCCF3869577958C
:1030D0006795B395D9F73EF4909580957095619575
:1030E0007F4F8F4F9F4F0895E89409C097FB3EF4A0
:1030F00090958095709561957F4F8F4F9F4F992345
:10310000A9F0F92F96E9BB279395F69587957795C2
:103110006795B795F111F8CFFAF4BB0F11F460FF82
:103120001BC06F5F7F4F8F4F9F4F16C0882311F0DA
:1031300096E911C0772321F09EE8872F762F05C0EE
:10314000662371F096E8862F70E060E02AF09A9589
:10315000660F771F881FDAF7880F9695879597F97E
:103160000895990F0008550FAA0BE0E8FEEF161618
:103170001706E807F907C0F012161306E407F5076B
:1031800098F0621B730B840B950B39F40A2661F0DF
:10319000232B242B252B21F408950A2609F4A14082
:1031A000A6958FEF811D811D089597F99F6780E88F
:1031B00070E060E008959FEF80EC089500240A9489
:1031C0001616170618060906089500240A94121602
:1031D0001306140605060895092E0394000C11F435
:1031E000882352F0BB0F40F4BF2B11F460FF04C0E2
:1031F0006F5F7F4F8F4F9F4F089557FD9058440F3B
:10320000551F59F05F3F71F04795880F97FB991F45
:1032100061F09F3F79F08795089512161306140602
:10322000551FF2CF4695F1DF08C01616170618068F
:10323000991FF1CF86957105610508940895E8946A
:10324000BB2766277727CB0197F908950E94391984
:103250000C94EC180E94DE1838F00E94E51820F05B
:10326000952311F00C94D5180C94DB1811240C94B0
:1032700020190E94FD1870F3959FC1F3950F50E03F
:10328000551F629FF001729FBB27F00DB11D639F18
:10329000AA27F00DB11DAA1F649F6627B00DA11DBE
:1032A000661F829F2227B00DA11D621F739FB00D64
:1032B000A11D621F839FA00D611D221F749F3327D4
:1032C000A00D611D231F849F600D211D822F762F6D
:1032D0006A2F11249F5750409AF0F1F088234AF04A
:1032E000EE0FFF1FBB1F661F771F881F91505040B6
:1032F000A9F79E3F510580F00C94D5180C94201925
:103300005F3FE4F3983ED4F3869577956795B7953C
:10331000F795E7959F5FC1F7FE2B880F911D969556
:10332000879597F90895A1E21A2EAA1BBB1BFD01F0
:103330000DC0AA1FBB1FEE1FFF1FA217B307E40794
:10334000F50720F0A21BB30BE40BF50B661F771FEC
:10335000881F991F1A9469F76095709580959095CC
:103360009B01AC01BD01CF010895A29FB001B39FA5
:10337000C001A39F700D811D1124911DB29F700D7E
:10338000811D1124911D08950E94B519A59F900DCE
:10339000B49F900DA49F800D911D11240895B7FF37
:1033A0000C94C4190E94C419821B930B0895EE0F4C
:1033B000FF1F0590F491E02D09940F931F93CF9375
:1033C000DF938230910510F482E090E0E0913D05BA
:1033D000F0913E0520E030E0A0E0B0E0309719F138
:1033E000408151810281138148175907C8F0841721
:1033F000950769F4109731F012960C931297139673
:103400001C9327C000933D0510933E0522C0211553
:10341000310519F04217530718F49A01BD01EF0165
:10342000DF01F801DBCF21153105F9F0281B390B3D
:103430002430310580F48A819B816115710521F06A
:10344000FB019383828304C090933E0580933D05E6
:10345000FE01329644C0FE01E20FF31F8193919367
:1034600022503109398328833AC020913B0530919D
:103470003C05232B41F4209102013091030130934C
:103480003C0520933B05209100013091010121155D
:10349000310541F42DB73EB740910401509105012B
:1034A000241B350BE0913B05F0913C05E217F30737
:1034B000A0F42E1B3F0B2817390778F0AC014E5FA4
:1034C0005F4F2417350748F04E0F5F1F50933C05A0
:1034D00040933B058193919302C0E0E0F0E0CF017F
:1034E000DF91CF911F910F910895CF93DF930097B4
:1034F00009F481C0FC01329713821282A0913D052C
:10350000B0913E05109781F420813181820F931F85
:1035100020913B0530913C052817390751F5F09370
:103520003C05E0933B0567C0ED0120E030E0CE179D
:10353000DF0740F44A815B819E0141155105F1F09E
:10354000EA01F5CFD383C28340815181840F951F57
:10355000C817D90759F488819981840F951F02965D
:10356000918380838A819B81938382832115310596
:1035700029F4F0933E05E0933D053DC0E901FB834E
:10358000EA8349915991C40FD51FEC17FD0761F4E7
:1035900080819181840F951F0296E9019983888328
:1035A000828193819B838A83E0E0F0E012968D9183
:1035B0009C911397009719F0FD01DC01F7CF8D91D5
:1035C0009C9111979D012E5F3F4F820F931F209179
:1035D0003B0530913C052817390769F4309729F4E9
:1035E00010923E0510923D0502C013821282B093E4
:1035F0003C05A0933B05DF91CF910895F894FFCF50
:1036000000003F0520000000000000000000000056
:1036100000000000000000000000000000000000AA
:10362000000000000000000000000000C0E0F0F812
:10363000FCFCFEFFFCE000000000000000000000B9
:10364000000000000000000000000000000000007A
:10365000000000000000000000000000000000006A
:103660000000000000000000000000F8F8F8F8F882
:10367000F8F8F8F8F8F8F8F0F0E0E0C080C0FCFFE7
:10368000FFFFFF7F3F7FFFFFFFFFFF000000000005
:10369000000000000000000000000000000000002A
:1036A000000000000000000000000000000000001A
:1036B000000000000000000000000000000000000A
:1036C0000F1F3F7FFFFFFFFFFFFFFFFFE7C7C7871A
:1036D0008F9F9FFFFFFFC1C0E0FCFFFFFFFFFFFCCC
:1036E000FCFCFCFEFEFEFCFCF8F8F0E0C0C00000B4
:1036F00000000000000000000000000000000000CA
:1037000000000000000000000000000000000000B9
:103710000000000000000080C0E0F1FBFFFFFFFFA1
:10372000FF7F1F0F0F87E7FFFFFF1F1F3FF9F8F80D
:10373000F8F8F8F8FDFFFFFFFFFFFFFFFFFF7F3FF7
:103740000F07010000000000000000000000000062
:103750000000000000000000000000000000000069
:10376000000000000000000000F0FEFFFFFFFFFF70
:10377000FFFFFFFFFFFE7E3F3F0F1FFFFFFFFCF03D
:10378000E0F1FFFFFFFFFFFCF0010101010101017A
:103790000100000000000000000000000000000028
:1037A0000000000000000000000000000000000019
:1037B0000000000000000000000000000003030300
:1037C00003030303030101010100000000000000E6
:1037D000030F1F3F7F7FFFFFFFFF7F7F1F0300005F
:1037E00000000000000000000000000000000000D9
:1037F0000000000000000000000000000000D007F2
:1038000000000000DD058A138913670368047F0444
:1038100019049504CA04E70400000000DD058A13BA
:103820005D06670368047F0419049504CA04E7046D
:1038300041005600567472696D5265717569726502
:1038400064206973203A00506F742030203A005091
:103850006F742031203A00416368696576656420A1
:10386000567472696D5F766F6C74616765203A009B
:10387000416368696576656420444344435F566FDD
:103880006C74616765203A0053657474696E6720D3
:10389000566F6C746167652C00494E412056425545
:1038A000532052656164696E6700494E4120536838
:1038B000756E742043757272656E74004375727212
:1038C000656E74204C696D6974207365742069732A
:1038D000203A00694C696D444143566F75745F6DC1
:1038E00056206973203A00416368696576656420F3
:1038F000694C696D5F44414320566F6C7461676524
:10390000203A004163686965766564204375727288
:10391000656E74204C696D6974203A0000000000E7
:10392000C60E000000000F108A13B10FDD0FC10F8B
:04393000FD0F2E0059
:00000001FF
