:100000000C94BE020C94E8020C94E6020C94E602F6
:100010000C94E6020C94E6020C94E6020C94E602C0
:100020000C94E6020C94E6020C94E6020C94E602B0
:100030000C94E6020C94E6020C94E6020C94E602A0
:100040000C94140B0C94E6020C943B080C94DA0804
:100050000C94E6020C94E6020C94E6020C94E60280
:100060000C94E6020C94E6024445564943455F4928
:100070004E495449414C495345440D0A0000000083
:1000800000003E5B4F5B3E3E6B4F6B3E1C3E7C3E3A
:100090001C183C7E3C181C577D571C1C5E7F5E1C48
:1000A00000183C1800FFE7C3E7FF0018241800FF02
:1000B000E7DBE7FF30483A060E2629792926407FFC
:1000C000050507407F05253F5A3CE73C5A7F3E1C0B
:1000D0001C08081C1C3E7F14227F22145F5F005FF7
:1000E0005F06097F017F006689956A6060606060D5
:1000F00094A2FFA29408047E040810207E20100819
:10010000082A1C08081C2A08081E101010100C1EB3
:100110000C1E0C30383E3830060E3E0E0600000035
:10012000000000005F00000007000700147F147F3C
:1001300014242A7F2A122313086462364956205059
:100140000008070300001C2241000041221C002A75
:100150001C7F1C2A08083E08080080703000080830
:10016000080808000060600020100804023E5149A1
:10017000453E00427F400072494949462141494D70
:10018000331814127F1027454545393C4A494931F7
:1001900041211109073649494936464949291E0076
:1001A0000014000000403400000008142241141420
:1001B000141414004122140802015909063E415D3D
:1001C000594E7C1211127C7F494949363E414141CA
:1001D000227F4141413E7F494949417F0909090147
:1001E0003E414151737F0808087F00417F41002054
:1001F00040413F017F081422417F404040407F0240
:100200001C027F7F0408107F3E4141413E7F090967
:1002100009063E4151215E7F09192946264949496F
:100220003203017F01033F4040403F1F2040201F19
:100230003F4038403F6314081463030478040361AB
:1002400059494D43007F41414102040810200041BB
:1002500041417F0402010204404040404000030746
:10026000080020545478407F28444438384444449B
:1002700028384444287F385454541800087E090212
:1002800018A4A49C787F0804047800447D400020D2
:1002900040403D007F1028440000417F40007C0426
:1002A0007804787C080404783844444438FC1824E2
:1002B000241818242418FC7C0804040848545454B6
:1002C0002404043F44243C4040207C1C2040201C4B
:1002D0003C4030403C44281028444C9090907C4452
:1002E00064544C440008364100000077000000418F
:1002F00036080002010204023C2623263C1EA1A16E
:1003000061123A4040207A38545455592155557954
:100310004122545478422155547840205455794014
:100320000C1E527212395555555939545454593975
:10033000555454580000457C410002457D4200015F
:10034000457C407D1211127DF0282528F07C545503
:1003500045002054547C547C0A097F49324949495C
:10036000323A4444443A324A4848303A4141217A88
:100370003A42402078009DA0A07D3D4242423D3D52
:100380004040403D3C24FF2424487E4943662B2FB7
:10039000FC2F2BFF0929F620C0887E090320545426
:1003A00079410000447D413048484A32384040227B
:1003B0007A007A0A0A727D0D19317D2629292F28A3
:1003C000262929292630484D4020380808080808E1
:1003D000080808382F10C8ACBA2F102834FA0000CB
:1003E0007B000008142A142222142A1408AA00559B
:1003F00000AAAA55AA55AA000000FF00101010FF7D
:1004000000141414FF001010FF00FF1010F010F083
:10041000141414FC001414F700FF0000FF00FF1474
:1004200014F404FC141417101F10101F101F1414C0
:10043000141F00101010F0000000001F101010100A
:100440001F10101010F010000000FF1010101010FE
:1004500010101010FF10000000FF140000FF00FF3C
:1004600000001F10170000FC04F4141417101714D8
:1004700014F404F40000FF00F714141414141414FA
:10048000F700F7141414171410101F101F1414146D
:10049000F4141010F010F000001F101F0000001FD7
:1004A00014000000FC140000F010F01010FF10FF0A
:1004B000141414FF141010101F00000000F010FF9F
:1004C000FFFFFFFFF0F0F0F0F0FFFFFF0000000083
:1004D00000FFFF0F0F0F0F0F3844443844FC4A4A07
:1004E0004A347E02020606027E027E0263554941BC
:1004F000633844443C04407E201E2006027E0202F3
:1005000099A5E7A5991C2A492A1C4C7201724C3006
:100510004A4D4D303048784830BC625A463D3E49DD
:100520004949007E0101017E2A2A2A2A2A44445F81
:10053000444440514A444040444A51400000FF0175
:1005400003E080FF000008086B6B08361236243683
:10055000060F090F060000181800000010100030E8
:1005600040FF0101001F01011E00191D1712003C70
:100570003C3C3C00000000005903AA0911241FBEA6
:10058000CFEFD8E0DEBFCDBF15E0A0E0B1E0E6E5FB
:10059000FDE102C005900D92A235B107D9F726E022
:1005A000A2E5B5E001C01D92A833B207E1F715E05E
:1005B000CCE7D5E004C02297FE010E94A50EC83703
:1005C000D107C9F70E9445030C94A90E0C940000B2
:1005D0001F920F920FB60F9211240F900FBE0F9023
:1005E0001F9018951F93CF93DF9300D000D000D0B9
:1005F000CDB7DEB7182F62E1CE0104960E94A107A5
:1006000063E1CE0101960E94A107CE010496112359
:1006100039F00E948507CE0101960E94850706C029
:100620000E946807CE0104960E94680726960FB6BE
:10063000F894DEBF0FBECDBFDF91CF911F9108951B
:100640000E946A0B40E051EE60E070E08EE795E0BA
:100650000E94250968E670E08EE795E00E94EF0AA7
:1006600060EA76E881E090E00E94FA0981E00E9469
:10067000F20221E04CE362E083E595E00E94AF06E0
:1006800061E083E595E00C943607A89588E10FB604
:10069000F89480936000109260000FBE0E942003C7
:1006A00081ED98E0892B11F00E94D10880E090E064
:1006B000089583E595E00C9487060F931F93CF93DD
:1006C000DF93EC018D89823061F08330D9F0813085
:1006D00009F0C8C0EC81FD81E41BF50B3197DB010B
:1006E00018C08C819D81DC01A61BB70BBD018E81DA
:1006F0009F81FC01E41BF50BAF0141505109621BC6
:10070000730BB0C0AE81BF81A61BB70BA21BB30B8E
:10071000FA01F7FD05C18C819D81E817F9070CF0FE
:10072000FFC0B7FF04C02A0F3B1FA0E0B0E08E81DE
:100730009F81AD01420F531F841795071CF49C0144
:100740002A1B3B0B121613060CF0EAC0422F8A2F0D
:1007500086958695869590E8899FE00DF11D112478
:10076000E05FFE4FA77069F158E05A1B852F90E0BB
:10077000EC01C85FDE4F6881251760F4DC01A21B25
:10078000B1098FEF90E00A2E02C0959587950A94E3
:10079000E2F768230130110539F048F00230110505
:1007A00051F48081862706C08081862B03C0609526
:1007B000808186238083451708F4B2C0451BE0582A
:1007C000FF4F4830A0F102301105A9F4DF01842F5A
:1007D0009C9190959C93A058BF4F88508830C0F74B
:1007E00088EF840F869586958695B0E88B9FE00DFF
:1007F000F11D112419C081E00130110509F080E0DC
:10080000982F9195EF01842F9883C058DF4F88501F
:100810008830D0F788EF840F86958695869590E886
:10082000899FE00DF11D1124E058FF4F47704423CC
:1008300009F476C0A42FB0E0A050BF4F9C910130C6
:10084000110541F050F00230110509F069C08081B6
:10085000892706C08081892B03C0909580818923D8
:1008600080835EC057FD5CC08E819F814817590709
:100870000CF056C077FF04C0260F371F60E070E011
:100880008C819D81FB01E20FF31F8E179F071CF4E3
:100890009C01261B370B121613060CF041C0CA012F
:1008A00057FD0796E3E095958795EA95E1F79695CC
:1008B000982F882797958795805F9E4F860F971F63
:1008C0004770552761E070E001C0660F4A95EAF76E
:1008D000462F0130110541F088F00230110501F575
:1008E000FC01280F391F15C0FC01280F391FE21722
:1008F000F307B1F08081842B8193F9CF6095FC01DF
:10090000280F391FE217F30759F08081862381935E
:10091000F9CFE217F30721F0808184278193F9CF83
:10092000DF91CF911F910F9108950F931F93CF9354
:10093000DF93FC018589823069F08330E1F08130FA
:1009400009F082C0C481D581C41BD50BC21BD30B57
:10095000DB0117C084819581DC01A61BB70BBD01AB
:100960006150710986819781DC01A41BB50BAD0133
:10097000421B530B69C0A681B781A61BB70B119709
:10098000EA01B7FD08C186819781A817B9070CF065
:1009900002C1D7FF04C02C0F3D1FC0E0D0E084810E
:1009A0009581AE01420F531F841795071CF49C01DB
:1009B0002C1B3D0B121613060CF0EDC0CD01B7FD3C
:1009C000079643E0959587954A95E1F79695982F78
:1009D000882797958795805F9E4F8C0F9D1FA770E6
:1009E000BB2741E050E00A2E01C0440F0A94EAF709
:1009F000642F0130110549F098F00230110509F01B
:100A0000CAC0FC01280F391F17C0FC01280F391F6D
:100A1000E217F30709F4BFC08081862B8193F8CFDA
:100A20004095FC01280F391FE217F30709F4B3C002
:100A3000808184238193F8CFE217F30709F4ABC0D8
:100A4000808186278193F8CF77FDA5C08481958129
:100A5000681779070CF09FC057FF04C0240F351F9B
:100A600040E050E086819781FA01E20FF31F8E1774
:100A70009F071CF49C01241B350B121613060CF067
:100A80008AC0522F842F869586958695FB01B0E803
:100A90008B9FE00DF11D1124E05FFE4F477069F15F
:100AA00068E0641B862F90E0EC01C85FDE4F488150
:100AB000261760F4DC01A21BB1098FEF90E00A2E2B
:100AC00002C0959587950A94E2F7482301301105F5
:100AD00039F048F00230110551F48081842706C0B6
:100AE0008081842B03C040958081842380835617A6
:100AF00008F451C0561BE058FF4F5830A0F10230A7
:100B00001105A9F4DF01852F9C9190959C93A05825
:100B1000BF4F88508830C0F788EF850F869586953F
:100B20008695B0E88B9FE00DF11D112419C081E07E
:100B30000130110509F080E0982F9195EF01852F84
:100B40009883C058DF4F88508830D0F788EF850FE2
:100B500086958695869590E8899FE00DF11D112474
:100B6000E058FF4F57705523B1F0A52FB0E0A050CB
:100B7000BF4F9C910130110539F048F0023011054A
:100B800051F48081892706C08081892B03C090950C
:100B9000808189238083DF91CF911F910F910895E8
:100BA000CF92DF92EF92FF920F931F93CF93DF9339
:100BB0007C018B01EA01690177FDA0C00E94790EDA
:100BC000081719070CF09AC0D7FD98C0C7010E94FA
:100BD0007D0EC817D9070CF091C0C7010E94760E90
:100BE000823009F07FC0F701848195819C01201B30
:100BF000310B89010150110986819781FC01EC1BA1
:100C0000FD0BEF0121970BC0813049F4F70184817E
:100C100095818C1B9D0BE8018C0101501109F1E0BD
:100C2000CF16D10431F010F132E0C316D104E1F156
:100C300065C0FE01D7FD379683E0F595E7958A9567
:100C4000E1F7F695FE2FEE27F795E795E00FF11FF8
:100C5000E05FFE4FC770DD2781E090E00C2E01C001
:100C6000880F0A94EAF79081982B3AC0FE01D7FDCD
:100C70003796A3E0F595E795AA95E1F7F695FE2F4F
:100C8000EE27F795E795E00FF11FE05FFE4FC77085
:100C9000DD2781E090E00C2E01C0880F0A94EAF76E
:100CA0008095908198231CC0FE01D7FD379663E0A4
:100CB000F595E7956A95E1F7F695FE2FEE27F795FE
:100CC000E795E00FF11FE05FFE4FC770DD2781E081
:100CD00090E00C2E01C0880F0A94EAF790819827C3
:100CE00090830CC0833009F08FCFF7018681978104
:100CF000801B910B8E01EC01219791CFDF91CF9159
:100D00001F910F91FF90EF90DF90CF900895CF93B8
:100D1000DF93EC0140E450E060E870E00E942C0DAD
:100D200086E195E0998388838FEF898F8D8F8B8FF4
:100D30008A8FDF91CF910895CF93DF931F92CDB724
:100D4000DEB7698321E0AE014F5F5F4F60E0FC01D9
:100D500087890E94910A0F90DF91CF9108951F9388
:100D6000CF93DF93EC01162F688F4F8B60E87AE109
:100D700086E090E00E94FA096EEACE010E949C068D
:100D800065EDCE010E949C0660E8CE010E949C06A3
:100D900068EACE010E949C066FE3CE010E949C0689
:100DA00063EDCE010E949C0660E0CE010E949C068D
:100DB00060E4CE010E949C066DE8CE010E949C0674
:100DC000113011F460E101C064E1CE010E949C0683
:100DD00060E2CE010E949C0660E0CE010E949C066B
:100DE00061EACE010E949C0668ECCE010E949C063E
:100DF0006AEDCE010E949C0662E1CE010E949C0633
:100E000061E8CE010E949C06113011F46FE901C027
:100E10006FECCE010E949C0669EDCE010E949C06FB
:100E2000113011F462E201C061EFCE010E949C0614
:100E30006BEDCE010E949C0660E4CE010E949C06F0
:100E400064EACE010E949C0666EACE010E949C06DE
:100E50006FEACE01DF91CF911F910C949C0666231F
:100E600011F067EA01C066EA0C949C061F93CF93C9
:100E7000DF93EC01611105C0888D813021F41FE9F9
:100E800003C010E001C01FEC61E8CE010E949C0687
:100E9000612FCE01DF91CF911F910C949C06FC0134
:100EA000683018F48BE290E00FC028EF260F263050
:100EB00030F485E290E091838083228308956E5020
:100EC000663028F488E290E09183808362830895FD
:100ED000FC01A081B1814E9181E090E09C010280F3
:100EE00002C0220F331F0A94E2F7209524232C938B
:100EF000A081B1812C91028002C0880F991F0A94B1
:100F0000E2F7809582238C930895FC01A081B18142
:100F10004E9181E090E09C01028002C0220F331FBD
:100F20000A94E2F7209524232C93A081B1812C917F
:100F3000028002C0880F991F0A94E2F7282B2C9395
:100F400008950C944F07FC0124853585F901E05C78
:100F5000FF4F80819181329620813181821B930BDA
:100F60008F7399270895FC0184859585FC01E05CC9
:100F7000FF4F4081518132962081318142175307C2
:100F800041F00190F081E02DE80FF91F808190E0A1
:100F900008958FEF9FEF0895FC0184859585FC01EE
:100FA000E05CFF4F408151813296208131814217B0
:100FB000530779F0A081B181A80FB91F8C912081CE
:100FC00031812F5F3F4F2F7333273183208390E090
:100FD00008958FEF9FEF0895FC0186859785FC01AA
:100FE000E05CFF4FDC01AE5BBF4F408151812D9132
:100FF0003C91119742175307C1F70895CF93DF93A0
:10100000FC0182A1813089F186859785DC01A05C95
:10101000BF4F2D913C9111972F5F3F4F2F73332777
:10102000EC01CE5BDF4F4881598124173507D9F396
:101030000D90BC91A02DA80FB91F6C93A685B78504
:10104000A05CBF4F11963C932E93A689B7892C9133
:1010500081E090E0058C02C0880F991F0A94E2F7A6
:10106000282B2C9381E090E002C080E090E0DF919B
:10107000CF91089508951F920F920FB60F921124E9
:101080002F933F934F935F936F937F938F939F9390
:10109000AF93BF93CF93EF93FF93C091C60080911E
:1010A0009E05882399F0CD3059F46DE08EE795E0E8
:1010B0000E94FE076AE08EE795E00E94FE0708C0E6
:1010C0006C2F8EE795E00E94FE0706C0CD3021F41C
:1010D00081E080939D050DC0C03229F480919F0569
:1010E000882339F04CC0CF3721F48091520581110B
:1010F00024C0809127069091280601968F73992726
:101100002091290630912A068217930761F0E09119
:101110002706F0912806E951FA4FC08390932806DC
:10112000809327062CC08091A1059091A20501967D
:101130009093A2058093A10522C08091A105909172
:10114000A205009711F00197F3CF20912706309167
:1011500028068091290690912A062817390779F0E8
:101160008091270690912806892B19F48FE390E04F
:10117000D5CF80912706909128060197CFCFFF9178
:10118000EF91CF91BF91AF919F918F917F916F918F
:101190005F914F913F912F910F900FBE0F901F9035
:1011A00018958EE795E00E94A307892B11F00C9407
:1011B0003A0808951F920F920FB60F9211242F93A1
:1011C0003F938F939F93EF93FF932091E30530918B
:1011D000E4058091E5059091E6052817390731F47B
:1011E0008091C1008F7D8093C10014C0E091E5051E
:1011F000F091E605ED55FA4F20818091E50590913B
:10120000E60501968F7399279093E6058093E5058F
:101210002093C600FF91EF919F918F913F912F9165
:101220000F900FBE0F901F901895FC0112A2A68977
:10123000B7898C9121E030E0038C02C0220F331F6C
:101240000A94E2F7822B8C930895CF92DF92EF926B
:10125000FF92CF93DF93EC016A017B0119A218A2E0
:101260000E941509C11481EED806E104F104F9F0D9
:10127000EC89FD8981E090E00E8C02C0880F991FF7
:101280000A94E2F7808360E079E08DE390E0A701C3
:1012900096010E94810E215031094109510956954C
:1012A000479537952795211580E1380798F0EC8907
:1012B000FD89108260E874E88EE190E0A701960154
:1012C0000E94810E215031094109510956954795D7
:1012D00037952795E889F9893083EA89FB89208346
:1012E000EE89FF89408181E090E09C010A8C02C078
:1012F000220F331F0A94E2F7422B4083EE89FF89C5
:1013000040819C010B8C02C0220F331F0A94E2F72C
:10131000422B4083EE89FF8940819C010C8C02C0E6
:10132000220F331F0A94E2F7422B4083EE89FF8994
:1013300020810D8C02C0880F991F0A94E2F78095D6
:10134000822380831F8EDF91CF91FF90EF90DF90FB
:10135000CF900895109281051092800588EE93E059
:10136000A0E0B0E08093820590938305A09384056C
:10137000B09385058EE295E090937F0580937E057E
:1013800087EE95E090938B0580938A0583EA95E03C
:1013900090938D0580938C0585EC90E090938F055C
:1013A00080938E0584EC90E0909391058093900556
:1013B00080EC90E0909393058093920581EC90E00F
:1013C000909395058093940586EC90E09093970513
:1013D0008093960584E08093980583E08093990537
:1013E00087E080939A0585E080939B0581E0809358
:1013F0009C0508959B01AC0160E074E284EF90E0ED
:101400000E94810E20513109410951095695479595
:10141000379527952F3F310509F048F41092B90010
:101420002093B80084E08093BC00C901089580E057
:1014300090E008950F931F9384EA8093BC000E946C
:101440005E0B60932B0670932C0680932D06909371
:101450002E068091BC0087FD1CC00E945E0B00918F
:101460002B0610912C0620912D0630912E06601B24
:10147000710B820B930B009110051091110520E068
:1014800030E0061717072807390718F782E090E0C1
:1014900008C02091B900287F81E090E0283009F051
:1014A00080E01F910F9108950F931F938093BB00CD
:1014B0009091BC0093FDFACF84E88093BC000E9419
:1014C0005E0B60932B0670932C0680932D069093F1
:1014D0002E068091BC0087FD1BC00E945E0B009110
:1014E0002B0610912C0620912D0630912E06601BA4
:1014F000710B820B930B009110051091110520E0E8
:1015000030E0061717072807390718F782E003C0ED
:101510008091B900887F1F910F910895880F0C94D6
:10152000540AEF92FF920F931F93CF93DF9300D053
:101530001F92CDB7DEB7082F122F4A835B836983D2
:101540000E941A0A802F0E948E0A6981862F0E94AB
:10155000540A4A81042FE42E5B81F52E8E2D801BC8
:10156000811730F4F70181917F010E94540AF6CF70
:1015700084E98093BC0081E00F900F900F90DF9181
:10158000CF911F910F91FF90EF9008950895CF9202
:10159000DF92EF92FF920F931F93CF93DF936C0133
:1015A0007A01EB01E60EF71E00E010E0CE15DF0534
:1015B00061F06991D601ED91FC910190F081E02DEF
:1015C000C6010995080F191FF1CFC801DF91CF910E
:1015D0001F910F91FF90EF90DF90CF900895EF92C1
:1015E000FF920F931F93CF93DF938C01FB01C0E019
:1015F000D0E064917F018FEFE81AF80A662361F06A
:10160000D801ED91FC910190F081E02DC801099580
:10161000C80FD91FF701EDCFCE01DF91CF911F91F8
:101620000F91FF90EF9008951F920F920FB60F92B7
:1016300011242F933F938F939F93AF93BF938091E8
:10164000300690913106A0913206B0913306309168
:101650002F0623E0230F2D3720F40196A11DB11D85
:1016600005C026E8230F0296A11DB11D20932F0669
:101670008093300690933106A0933206B0933306E0
:101680008091340690913506A0913606B0913706C8
:101690000196A11DB11D8093340690933506A09349
:1016A0003606B0933706BF91AF919F918F913F91CE
:1016B0002F910F900FBE0F901F9018952FB7F89491
:1016C0006091300670913106809132069091330618
:1016D0002FBF0895789484B5826084BD84B58160FD
:1016E00084BD85B5826085BD85B5816085BDEEE62A
:1016F000F0E0808181608083E1E8F0E01082808109
:1017000082608083808181608083E0E8F0E0808176
:1017100081608083E1EBF0E0808184608083E0EB96
:10172000F0E0808181608083EAE7F0E0808184607E
:1017300080838081826080838081816080838081DA
:10174000806880831092C10008952F923F924F923B
:101750005F926F927F928F929F92AF92BF92CF9241
:10176000DF92EF92FF920F931F93CF93DF9300D0FE
:1017700000D0CDB7DEB74C017C836B836A01590181
:10178000C8018701AC014C195D0957FF03C0519591
:101790004195510995016B817C81261B370B37FFE1
:1017A00003C031952195310922242394312C24172B
:1017B000350714F0212C312C2114310459F03A2D25
:1017C0002B2D5C01832F922F3B812C81DC82CB82DD
:1017D000C32ED22EAB81BC81AA16BB065CF43C2D75
:1017E0002D2D6C01832F922F3B812C81BC82AB82EB
:1017F000A32EB22E2501EB81FC814E1A5F0A3C011B
:101800006C187D0877FE03C07194619471087201B1
:1018100057FE03C0FFEFEF1AFF0AF594E794C816CE
:10182000D9062CF421E030E03A83298324C06FEFFD
:101830007FEF7A8369831FC0D401ED91FC9104800E
:10184000F581E02D980121143104D9F04B815C81A0
:10185000B601C4010995E618F708F7FE06C0E9814C
:10186000FA81CE0EDF1EE40CF51C2B813C812F5F2C
:101870003F4F3C832B836B817C81A616B706E4F631
:1018800004C0A6016B817C81E4CF0F900F900F9074
:101890000F90DF91CF911F910F91FF90EF90DF900C
:1018A000CF90BF90AF909F908F907F906F905F9000
:1018B0004F903F902F9008956F927F928F929F92BA
:1018C000AF92BF92CF92DF92EF92FF920F931F934E
:1018D000CF93DF93EC015B016A0139014801E88194
:1018E000F9810284F385E02D87010995E881F9816A
:1018F000A601480D591D415051090284F385E02D80
:101900009301B501CE010995E881F9810084F18543
:10191000E02D9401A601B501CE010995E881F98178
:10192000B501660D771D615071090084F185E02DC8
:101930009401A601CE010995DF91CF911F910F91DE
:10194000FF90EF90DF90CF90BF90AF909F908F90DF
:101950007F906F900895EF92FF920F931F93DC0199
:10196000ED91FC91240F351F215031090680F7813C
:10197000E02D780189019B0109951F910F91FF903E
:10198000EF900895EF92FF920F931F93DC01ED917A
:10199000FC91260F371F215031090680F781E02D79
:1019A00078018A0109951F910F91FF90EF9008959A
:1019B0006F927F928F929F92AF92BF92CF92DF925F
:1019C000EF92FF920F931F93CF93DF935C014A0135
:1019D00069013801EB01C60ED71ECC15DD0574F484
:1019E000D501ED91FC910084F185E02D87019301F3
:1019F000A401BE01C50109952196EFCFDF91CF91DA
:101A00001F910F91FF90EF90DF90CF90BF90AF901C
:101A10009F908F907F906F900895EF92FF920F9319
:101A20001F93DC01ED91FC9111971A960D911C9179
:101A30001B9718962D913C9119970684F785E02DF8
:101A40007B0140E050E060E070E009951F910F914C
:101A5000FF90EF9008950895FC01138212828EE3A7
:101A600095E0918380837583648357834683718770
:101A7000608753874287158A1586148617861686CF
:101A800021E0248B8FEF9FEF938B828B918B808B48
:101A9000268B08952F923F924F925F926F927F9282
:101AA0008F929F92AF92BF92CF92DF92EF92FF926E
:101AB0000F931F93CF93DF93CDB7DEB72C970FB65D
:101AC000F894DEBF0FBECDBF9C878B873A01188785
:101AD0000F83FA86E986CD82DC0118968D919C9160
:101AE0001997681779070CF094C01A968D919C91FC
:101AF0001B97481759070CF08CC08C2C912CCB01EC
:101B0000B6E0CB9E800D911D1124181619060CF01D
:101B100080C0C40153E0880F991F5A95E1F7860DE4
:101B2000971D181619060CF074C0F5E02F9F2001C0
:101B300011245B016B011C82920123583F4F290144
:101B4000461A570A3C81353031F0F201EA0DFB1D8F
:101B500044914B8301C01B827A82698213011E82E9
:101B60008B8180FF13C0AB85BC85ED91FC91BD815D
:101B7000B13031F40480F581E02D2F81388519C012
:101B80000684F785E02DEF80F8841EC0E985FA858C
:101B90002F813885E217F307F9F0AB85BC85ED910D
:101BA000FC91BD81B13059F40480F581E02D298587
:101BB0003A85A101B5018B859C8509950DC00684E8
:101BC000F785E02DE984FA848401940149815A81E2
:101BD000B6018B859C850995EB81E695EB83FE81AB
:101BE000FF5FFE8329813A81280D391D3A832983BD
:101BF0003FEF231A330AF83009F0B2CF4C814F5F20
:101C00004C83C80CD91C8FEFA81AB80A463009F0CB
:101C100099CF2C960FB6F894DEBF0FBECDBFDF91E3
:101C2000CF911F910F91FF90EF90DF90CF90BF90D9
:101C3000AF909F908F907F906F905F904F903F906C
:101C40002F900895CF92EF92FF920F931F93CF930F
:101C5000DF93EC01262F6A3049F42C898E859F850D
:101C600038E0239F800D911D112432C06D30A1F109
:101C7000EA88FB88088919894E855F856C857D8592
:101C8000CC880E944A0D2C89422F50E08C859D857E
:101C900036E0239F800D911D11249D878C872E890E
:101CA0002223D1F06AEF64039001659F300D112467
:101CB00068857985260F371F281739076CF463E08C
:101CC000440F551F6A95E1F78E859F85840F951FF8
:101CD0009F878E871D861C8681E090E0DF91CF91E3
:101CE0001F910F91FF90EF90CF900895FC0185898F
:101CF0000895FC01808591850895FC018285938576
:101D00000895A1E21A2EAA1BBB1BFD010DC0AA1F3C
:101D1000BB1FEE1FFF1FA217B307E407F50720F054
:101D2000A21BB30BE40BF50B661F771F881F991FCF
:101D30001A9469F760957095809590959B01AC0118
:101D4000BD01CF010895EE0FFF1F0590F491E02D26
:061D50000994F894FFCF96
:101D5600000103070F1F3F7F0080C0E0F0F8FCFE84
:101D6600000000000000000000000000000000006D
:101D7600000000000000000000000000000000005D
:101D8600000000000000000000000000000000004D
:101D960000000000000000000000000000000080BD
:101DA600808000000000000000000000000000002D
:101DB600008080C0C000000000000000000000009D
:101DC600000000000000000000000000000000000D
:101DD60000000000000000000000000000000000FD
:101DE60000000000000000000000000000000000ED
:101DF6000000000080C0E0F0F8FCF8E00000000001
:101E0600000000000000000000000000008080804C
:101E1600808000808000000000808080808000FF3D
:101E2600FFFF0000000080808080000080800000AE
:101E360080FFFF808000808000808080800080801E
:101E46000000000000808000008C8E84000080F876
:101E5600F8F880000000000000000000000000000C
:101E6600F0F0F0F0F0F0F0F0F0F0F0F0E0E0C0802C
:101E760000E0FCFEFFFFFF7FFFFFFFFFFF0000000B
:101E86000000000000000000000000FEFFC7010186
:101E9600010183FFFF00007CFEC70101010183FFF2
:101EA600FFFF0038FEC78301010183C7FFFF000063
:101EB60001FFFF010100FFFF0701010100007FFF95
:101EC60080000000FFFF7F0000FFFFFF000001FF12
:101ED600FFFF0100000000000000000000000000FD
:101EE600030F3F7F7FFFFFFFFFFFFFFFE7C7C78FA0
:101EF6008F9FBFFFFFC3C0F0FFFFFFFFFFFCFCFC8F
:101F0600FCFCFCFCFCF8F8F0F0E0C0000103030365
:101F1600030301030300000000010303030301019F
:101F26000301000000010303030301010303000092
:101F3600000303000000030300000000000000018E
:101F46000303030303010000000103010000000373
:101F56000301000000000000000000000000000077
:101F660000000080C0E0F0F9FFFFFFFFFF3F1F0FFA
:101F760087C7F7FFFF1F1F3DFCF8F8F8F87C7DFFC9
:101F8600FFFFFFFFFFFFFF7F3F0F0700303000001E
:101F9600000000000000000000000000000000003B
:101FA60000000000FEFEFC00000000000000000033
:101FB60000000000000000000000000000E0C0007B
:101FC60000000000000000000000303000000000AB
:101FD60000000000000000000000000000000000FB
:101FE60000C0FEFFFFFFFFFFFFFFFFFF7F7F3F1FDA
:101FF6000F071F7FFFFFF8F8FFFFFFFFFFFEF8E068
:10200600000000010000000000000000FEFE0000CD
:1020160000FCFEFC0C06060EFCF80000F0F81C0E98
:102026000606060CFFFFFF0000FEFE00000000FC97
:10203600FEFC00183C7E66E6CE84000006FFFF0626
:1020460006FCFEFC0C0606060000FEFE0000C0F8BC
:10205600FC4E4646464E7C7840183C76E6CECC8012
:10206600000000000000000000000000000000006A
:102076000000000001070F1F1F3F3F3F3F1F0F03D8
:102086000000000000000000000000000F0F00002C
:10209600000F0F0F000000000F0F000003070E0CCB
:1020A60018180C060F0F0F0000010F0E0C180C0F5E
:1020B600070100040E0C180C0F070000000F0F009C
:1020C600000F0F0F0000000000000F0F00000007B8
:1020D600070C0C181C0C060600040E0C180C0F0737
:1020E60000000000000000000000000000000000EA
:1020F60000000000000000000000000000000000DA
:1021060000000000000000000000000000000000C9
:1021160000000000000000000000000000000000B9
:1021260000000000000000000000000000000000A9
:102136000000000000000000000000000000000099
:102146000000000000000000000000000000000089
:102156000000000000000000000000000000000079
:10216600D00700000000220EC70AD005A50B950473
:102176005D035C0CD80C0D0D2F0700000000FE0758
:10218600C70AA307CC07B307EC0700000000220E1E
:10219600C70AC60AA50BAB0CC20C5C0CD80C0D0DFD
:0221A6002B0DFF
:00000001FF
