:100000000C942C070C94E4110C9454070C94581580
:100010000C9485150C94B2150C9454070C94540749
:100020000C9454070C9454070C9454070C945407E4
:100030000C9454070C9454070C9454070C945407D4
:100040000C94FA200C9454070C94631B0C94151C0C
:100050000C9454070C9454070C9454070C945407B4
:100060000C9454070C94540708000000BE922449D5
:10007000123EABAAAA2ABECDCCCC4C3E00000080DA
:10008000BEABAAAAAA3E00000000BF000000803F4D
:100090000000000000084178D3BB4387D1133D190D
:1000A0000E3CC3BD4282AD2B3E68EC8276BED98F3A
:1000B000E1A93E4C80EFFFBE01C4FF7F3F0000007E
:1000C000000000000000003E5B4F5B3E3E6B4F6B4C
:1000D0003E1C3E7C3E1C183C7E3C181C577D571C29
:1000E0001C5E7F5E1C00183C1800FFE7C3E7FF00A2
:1000F00018241800FFE7DBE7FF30483A060E2629F0
:10010000792926407F050507407F05253F5A3CE7B2
:100110003C5A7F3E1C1C08081C1C3E7F14227F2278
:10012000145F5F005F5F06097F017F006689956A43
:10013000606060606094A2FFA29408047E040810CE
:10014000207E201008082A1C08081C2A08081E10F7
:100150001010100C1E0C1E0C30383E3830060E3EAF
:100160000E06000000000000005F0000000700070E
:1001700000147F147F14242A7F2A12231308646238
:1001800036495620500008070300001C2241000099
:1001900041221C002A1C7F1C2A08083E08080080F7
:1001A000703000080808080800006060002010088F
:1001B00004023E5149453E00427F40007249494990
:1001C000462141494D331814127F102745454539C2
:1001D0003C4A4949314121110907364949493646C6
:1001E0004949291E000014000000403400000008A6
:1001F0001422411414141414004122140802015949
:1002000009063E415D594E7C1211127C7F494949D5
:10021000363E414141227F4141413E7F494949416A
:100220007F090909013E414151737F0808087F0099
:10023000417F41002040413F017F081422417F401F
:100240004040407F021C027F7F0408107F3E4141F6
:10025000413E7F090909063E4151215E7F09192966
:1002600046264949493203017F01033F4040403F50
:100270001F2040201F3F4038403F63140814630391
:10028000047804036159494D43007F414141020410
:10029000081020004141417F040201020440404017
:1002A0004040000307080020545478407F2844440D
:1002B000383844444428384444287F385454541827
:1002C00000087E090218A4A49C787F080404780022
:1002D000447D40002040403D007F10284400004104
:1002E0007F40007C047804787C0804047838444417
:1002F0004438FC1824241818242418FC7C0804040E
:1003000008485454542404043F44243C4040207C76
:100310001C2040201C3C4030403C44281028444CC9
:100320009090907C4464544C440008364100000096
:10033000770000004136080002010204023C262337
:10034000263C1EA1A161123A4040207A38545455EF
:1003500059215555794122545478422155547840B9
:1003600020545579400C1E52721239555555593941
:100370005454545939555454580000457C41000296
:10038000457D420001457C407D1211127DF02825FB
:1003900028F07C545545002054547C547C0A097F35
:1003A0004932494949323A4444443A324A48483049
:1003B0003A4141217A3A42402078009DA0A07D3DFB
:1003C0004242423D3D4040403D3C24FF2424487E83
:1003D0004943662B2FFC2F2BFF0929F620C0887E6E
:1003E000090320545479410000447D413048484A73
:1003F00032384040227A007A0A0A727D0D19317D26
:100400002629292F28262929292630484D402038F9
:100410000808080808080808382F10C8ACBA2F10B8
:100420002834FA00007B000008142A142222142A1F
:100430001408AA005500AAAA55AA55AA000000FF50
:1004400000101010FF00141414FF001010FF00FF24
:100450001010F010F0141414FC001414F700FF0036
:1004600000FF00FF1414F404FC141417101F1010E4
:100470001F101F1414141F00101010F000000000B3
:100480001F101010101F10101010F010000000FFAF
:10049000101010101010101010FF10000000FF14AA
:1004A0000000FF00FF00001F10170000FC04F41400
:1004B000141710171414F404F40000FF00F71414B8
:1004C0001414141414F700F7141414171410101F34
:1004D000101F141414F4141010F010F000001F106A
:1004E0001F0000001F14000000FC140000F010F0BA
:1004F0001010FF10FF141414FF141010101F000030
:100500000000F010FFFFFFFFFFF0F0F0F0F0FFFF42
:10051000FF0000000000FFFF0F0F0F0F0F384444D3
:100520003844FC4A4A4A347E02020606027E027EB3
:100530000263554941633844443C04407E201E20F8
:1005400006027E020299A5E7A5991C2A492A1C4C9D
:100550007201724C304A4D4D303048784830BC62A0
:100560005A463D3E494949007E0101017E2A2A2A18
:100570002A2A44445F444440514A444040444A513A
:10058000400000FF0103E080FF000008086B6B08DB
:100590003612362436060F090F0600001818000020
:1005A000001010003040FF0101001F01011E001962
:1005B0001D1712003C3C3C3C000000000044455626
:1005C0004943455F494E495449414C495345440DBF
:1005D0000A00544849532045515549504D454E5401
:1005E00000504F574552204359434C450044455411
:1005F0004543544544004F5645522D4355525245AC
:100600004E5400204C494D49543A200020200020EF
:10061000204F5645522D54454D5000567365743A3F
:1006200000496C696D3A004572726F722120437502
:100630007272656E74204C696D69742052657175B3
:100640006573746564204F7574206F662052616E07
:100650006765004572726F722120566F6C74616716
:100660006520526571756573746564204F757420DB
:100670006F662052616E676500526F746172795FB8
:10068000456E636F64657228293A3A636F6E6669D6
:10069000672D3E556E6B6E6F776E205043494E54FA
:1006A0005F504F525420417267756D656E740045FE
:1006B00052524F52282129004543484F5F44495325
:1006C00041424C4544004543484F5F454E41424CF2
:1006D000454400436173652053656E7369746976A0
:1006E0006974792044697361626C65640043617365
:1006F000652053656E736974697669747920456EF7
:1007000061626C6564004261636B73706163652054
:10071000646574656374696F6E2044697361626CAB
:100720006564004261636B73706163652064657426
:10073000656374696F6E20456E61626C6564006606
:10074000616E5F73706565645F7365742076616C5C
:100750007565206F7574206F662052616E67650045
:100760007365742066616E206F7665727269646568
:100770002066697273742120697420697320696E20
:10078000206175746F6D61746963206D6F646500BD
:100790004F4646004F4E004F4646004F4E004F56C4
:1007A00045525400495F4C696D69745F73657420EC
:1007B00076616C7565206F7574206F662052616E6E
:1007C0006765004F5645525400565F736574207636
:1007D000616C7565206F7574206F662052616E675D
:1007E00065004F56455254004F56455254006174AF
:1007F0006409090909090909093A09446973616227
:100800006C65207465726D696E616C206563686FDC
:100810000061746509090909090909093A09456E60
:1008200061626C65207465726D696E616C206563D0
:10083000686F00636173655F640909090909090943
:10084000093A0944697361626C65206361736520CC
:1008500073656E7369746976697479206F66206355
:100860006F6D6D616E64732C206175746F6D617452
:100870006963616C6C7920636F6E76657274732046
:10088000696E70757420636F6D6D616E6420737432
:1008900072696E6720746F206C6F77657220636178
:1008A000736500636173655F6509090909090909D1
:1008B000093A09456E61626C652063617365207356
:1008C000656E7369746976697479206F6620636FE9
:1008D0006D6D616E64732C20646F6573206E6F7430
:1008E000206175746F2D636F6E7665727420746805
:1008F000652063617365206F6620696E7075742072
:10090000737472696E67006273706163655F640916
:100910000909090909093A0964697361626C65206A
:100920006261636B73706163652064657465637491
:10093000696F6E006273706163655F65203C6F7004
:1009400074696F6E616C3A206273706163655F6B8E
:1009500065795F636F64653A20313237207C2038D7
:100960002864656661756C7429203E09093A096539
:100970006E61626C65206261636B73706163652098
:10098000646574656374696F6E000D0A48656C7008
:10099000657220436F6D6D616E647320666F7220A7
:1009A000696E746572616374697665206D6F6465E4
:1009B0003A0068656C7009090909090909093A09C9
:1009C0007072696E74207573616765007265736516
:1009D0007409090909090909093A097265736574F5
:1009E000206465766963650066616E6109090909BD
:1009F000090909093A097365742066616E20636FFD
:100A00006E74726F6C20746F206175746F6D617499
:100A10006963206D6F64650066616E6F090909097D
:100A2000090909093A097365742066616E20636FCC
:100A30006E74726F6C206F766572726964652C20BB
:100A4000726571756972656420666F7220226661D5
:100A50006E732220746F20776F726B0066616E7305
:100A6000203C73706565643A20302D3135303E0985
:100A700009090909093A097365742066616E2073D2
:100A800070656564206265747765656E20302074DA
:100A90006F203135300066616E733F09090909091D
:100AA0000909093A09526561642046616E20537054
:100AB0006565640074656D703F09090909090909D4
:100AC000093A09526561642074686520696E74652D
:100AD000726E616C2064756D6D79206C6F6164203D
:100AE00074656D706572617475726500756E6C6F9A
:100AF000636B09090909090909093A09756E6C6FDF
:100B0000636B206F6E2064657669636520636F6E2A
:100B100074726F6C73006C6F636B090909090909C2
:100B200009093A096C6F636B206F6E206465766902
:100B3000636520636F6E74726F6C732C2072656DC9
:100B40006F746520616363657373206F6E6C7900E9
:100B500069736F6E3F09090909090909093A0952C0
:100B6000656164204F75747075742052656C61798D
:100B70002073746174757300626C6F6E3F090909AC
:100B800009090909093A0952656164204261636BE8
:100B90002D6C696768742073746174757300626C7E
:100BA0006F6E09090909090909093A095475726E34
:100BB000206261636B2D6C69676874206F6E0062E0
:100BC0006C6F666609090909090909093A0954752A
:100BD000726E206261636B2D6C69676874206F664A
:100BE0006600697365743F09090909090909093A29
:100BF00009526561642043757272656E74204C6998
:100C00006D69742073657420706F696E74007673FB
:100C100065743F09090909090909093A0952656119
:100C20006420566F6C746167652073657420706F03
:100C3000696E740069736574093C7365742063752B
:100C40007272656E74206C696D697420696E206DB6
:100C5000413E090909093A095365742043757272C6
:100C6000656E74204C696D69740076736574093C17
:100C700073657420766F6C7461676520696E206D92
:100C8000563E09090909093A0953657420566F6CE3
:100C90007461676500706275733F09090909090984
:100CA00009093A095265616420506F7765720069DD
:100CB0006275733F09090909090909093A09526569
:100CC00061642043757272656E7400766275733F5D
:100CD00009090909090909093A0952656164205697
:100CE0006F6C74616765006F666609090909090917
:100CF00009093A095475726E206F75747075742005
:100D00006F6666006F6E09090909090909093A0940
:100D10005475726E206F7574707574206F6E005408
:100D2000686973206973207468652068656C702039
:100D30006D6573736167652C20796F752077696CB9
:100D40006C2066696E6420757361676520696E73D7
:100D50007472756374696F6E732062656C6F773A35
:100D60000066616E610066616E6F0066616E7300A1
:100D700066616E733F0074656D703F00617464005E
:100D800061746500636173655F6400636173655FCF
:100D900065006273706163655F64006273706163B4
:100DA000655F6500726573657400756E6C6F636B6B
:100DB000006C6F636B0068656C700069736F6E3FE9
:100DC00000626C6F6E00626C6F6E3F00626C6F66EB
:100DD0006600697365740076736574006973657481
:100DE0003F00767365743F00706275733F006962FF
:100DF00075733F00766275733F006F6666006F6EB5
:100E000000000000070002010000030406000000CB
:100E100000000000000102040810204080010204CC
:100E2000081020010204081020040404040404042F
:100E30000402020202020203030303030300000090
:100E400000250028002B0000000000240027002AB5
:100E500000001B12F81C511211241FBECFEFD8E066
:100E6000DEBFCDBF13E0A0E0B1E0E4ECFFE402C0E0
:100E700005900D92AA38B107D9F725E0AAE8B3E0AA
:100E800001C01D92A233B207E1F717E0CBE2D7E031
:100E900004C02197FE010E945826C932D107C9F724
:100EA0000E94C9110C94D5270C9400002F923F92F8
:100EB0004F925F926F927F928F929F92AF92BF926A
:100EC000CF92DF92EF92FF920F931F93CF93DF9316
:100ED00000D000D000D0CDB7DEB72C017E836D836B
:100EE0006A015901C801FC82EB824801841A950A03
:100EF00097FE03C091948194910835012D813E8124
:100F0000621A730A77FE03C07194619471086814C1
:100F100079045CF43A2D2B2D5C01832F922F3D81B7
:100F20002E81DE82CD82C32ED22EAD81BE81AA1645
:100F3000BB065CF43C2D2D2D6C01832F922F3D813F
:100F40002E81BE82AD82A32EB22E85012D813E81DF
:100F5000021B130B1C012C183D0837FE03C03194F3
:100F600021943108780117FF03C03FEFE31AF30A19
:100F7000F594E794C816D9062CF08FEF9FEF9A836B
:100F8000898304C0A1E0B0E0BA83A9832D813E81AA
:100F9000A216B30624F1D201ED91FC910480F581F3
:100FA000E02D2B813C816814790424F44D815E810D
:100FB000B60103C0A6016D817E81C2010995E218C8
:100FC000F308F7FE06C029813A81C20ED31EE00E57
:100FD000F11E8D819E8101969E838D83D7CF2696AB
:100FE0000FB6F894DEBF0FBECDBFDF91CF911F913A
:100FF0000F91FF90EF90DF90CF90BF90AF909F90B8
:101000008F907F906F905F904F903F902F900895BA
:101010006F927F928F929F92AF92BF92CF92DF9208
:10102000EF92FF920F931F93CF93DF93EC014B014D
:101030005A0169013801E881F9810284F385E02DC4
:1010400087010995A501460D571D41505109E881B9
:10105000F9810284F385E02D9601B401CE01099552
:10106000E881F9810084F185E02D9301A501B401A7
:10107000CE010995C80CD91CB60161507109E881EF
:10108000F9810084F185E02D9301A501CE01099538
:10109000DF91CF911F910F91FF90EF90DF90CF9054
:1010A000BF90AF909F908F907F906F900895EF9238
:1010B000FF920F931F93240F351F21503109DC013C
:1010C000ED91FC910680F781E02D780189019B016B
:1010D00009951F910F91FF90EF900895EF92FF9265
:1010E0000F931F93260F371F21503109DC01ED911B
:1010F000FC910680F781E02D78018A0109951F9106
:101100000F91FF90EF9008956F927F928F929F9230
:10111000AF92BF92CF92DF92EF92FF920F931F9305
:10112000CF93DF936C015A014801EB013B01620E42
:10113000731EC615D70574F4D601ED91FC91008499
:10114000F185E02D87019401A501BE01C601099535
:101150002196EFCFDF91CF911F910F91FF90EF90EC
:10116000DF90CF90BF90AF909F908F907F906F90C7
:101170000895EF92FF920F931F93DC011A960D9141
:101180001C911B9718962D913C911997ED91FC910C
:101190000684F785E02D7B0140E050E060E070E0E0
:1011A00009951F910F91FF90EF9008950895FC010C
:1011B0001382128286E093E0918380837583648337
:1011C000578346837187608753874287158A1586C0
:1011D00014861786168681E0848B2FEF3FEF338BC2
:1011E000228B318B208B868B08952F923F924F92CA
:1011F0005F926F927F928F929F92AF92BF92CF92A7
:10120000DF92EF92FF920F931F93CF93DF93CDB7AF
:10121000DEB72D970FB6F894DEBF0FBECDBFDC0151
:101220001896ED91FC9119976E177F070CF09BC0F3
:101230001A96ED91FC911B974E175F070CF093C027
:101240008C2C912CFB01B6E0CB9EE00DF11D1124FE
:101250001E161F060CF087C0F40133E0EE0FFF1FCF
:101260003A95E1F7E40FF51F1E161F060CF07BC040
:10127000CF82FE82ED821C830B831A015C0145E064
:10128000249F900111247D876C873B011A82C9013C
:10129000861B970B99878887D1011896BB87AA87E9
:1012A000BA81B53049F0E885F985E60DF71DEE53B2
:1012B000FF4F2491298301C01982210161013981E5
:1012C00030FF12C0D501ED91FC91BF81B13031F4F6
:1012D0000480F581E02D2B813C8117C00684F785C1
:1012E000E02DEB80FC801BC02B813C814D815E8119
:1012F00024173507D9F0D501ED91FC91BF81B130AC
:1013000049F40480F581E02D9A01A201B301C501E1
:1013100009950CC00684F785E02DED80FE808401E0
:101320009401A6016C857D85C501099529812695C5
:1013300029833FEF431A530AC80CD91C4A855B85A1
:101340004416550609F0BBCF5A815F5F5A838FEF71
:10135000681A780AAC85BD85A80DB91DBD87AC8714
:10136000563009F09DCF2D960FB6F894DEBF0FBE14
:10137000CDBFDF91CF911F910F91FF90EF90DF9044
:10138000CF90BF90AF909F908F907F906F905F9025
:101390004F903F902F900895CF92EF92FF920F932E
:1013A0001F93CF93DF93EC016A3059F42C898E851B
:1013B0009F8538E0239F800D911D11249F878E8784
:1013C00035C06D30A9F1262FEA88FB880889198974
:1013D0004E855F856C857D85CC880E94F5084C899B
:1013E000242F30E08C859D8556E0459F800D911D12
:1013F00011249D878C874E894423D1F04AEF420304
:10140000B001439F700D112448855985460F571F21
:10141000481759076CF483E0220F331F8A95E1F7D0
:101420008E859F85280F391F3F872E871D861C8636
:1014300081E090E0DF91CF911F910F91FF90EF90AD
:10144000CF900895611101C061E0FC01648B0895A3
:10145000FC01738B628B718B608B0895FC01718B27
:10146000608B538B428B0895FC01668B0895FC01C1
:101470006370658B8481958126813781613039F075
:10148000633029F0918780873387228708953187D9
:101490002087938782870895FC0177FD68C0808547
:1014A0009185681779070CF062C057FD60C082858E
:1014B0009385481759070CF05AC08589823059F036
:1014C0008330B1F08130D1F48FE290E0861B970B2E
:1014D000BA01AC0113C083E590E0FC01E61BF70BF9
:1014E000BF018FE290E0FC01E41BF50BAF0106C0E9
:1014F00083E590E0841B950BAB01BC01643571055D
:10150000B0F54033510598F5CA01E3E0959587950C
:10151000EA95E1F747705527232BA1F024E5289F92
:10152000F001299FF00D11246E0F7F1FFB01EA5F70
:10153000FE4F81E090E001C0880F4A95EAF7908164
:10154000892B14C024E5289FF001299FF00D112458
:101550006E0F7F1FFB01EA5FFE4F81E090E001C04C
:10156000880F4A95EAF780959081892380830895B2
:10157000EF92FF920F931F93CF93DF93EC01F62E20
:10158000E42E122F40E350E064E570E00E94D7089B
:101590008EE193E099838883EF8AF88E198F0A8F02
:1015A0008FEF8B8FDF91CF911F910F91FF90EF9075
:1015B0000895FC0187898F3F21F481E0908D9F3F42
:1015C00009F080E008951F93CF93DF93EC01162F6D
:1015D0000E94D90A882331F01EBD0DB407FEFDCF4D
:1015E0008EB521C028E030E090E8EE8DFF8D40817F
:1015F00089A1809584238083EC8DFD8D88A1412F66
:10160000492319F04081842B03C0408180958423B5
:101610008083EE8DFF8D408189A1842B80839695F8
:101620002150310911F7DF91CF911F9108951F9338
:10163000CF93DF93EC01162F60E0898D0E94BA22D0
:101640008B8D18161CF460E00E94BA22612FCE0127
:101650000E94E30A8B8D181634F461E0DF91CF917C
:101660001F910C94BA22DF91CF911F910895CF92D0
:10167000DF92EF92FF920F931F93CF93DF93EC01D2
:1016800086E0E82E81E0F82E10E0612F6064CE0144
:101690000E94170B60E8CE010E94170B61E0898D54
:1016A0000E94BA228B8D18161CF460E00E94BA22A8
:1016B000670104E5F60161916F01CE010E94E30A22
:1016C0000150C1F78B8D18161CF461E00E94BA22FC
:1016D0001F5FF4E5EF0EF11C1630B9F660E4CE01A1
:1016E000DF91CF911F910F91FF90EF90DF90CF90FE
:1016F0000C94170B0F931F93CF93DF93EC01162FCE
:10170000042F0E94D90A882361F00E94BE2080E045
:101710000E94EB2080E00E94E62081E00E94DD2014
:1017200034C061E08F890E947E2261E0888D0E9432
:101730007E22888D082E000C990BFC01E75DF14F8D
:10174000E491F0E0EE0FFF1FE35CF14F259134913F
:101750003F8F2E8FFC01EB5EF14FE491E9A38F895F
:10176000082E000C990BFC01E75DF14FE491F0E0CD
:10177000EE0FFF1FE35CF14F259134913D8F2C8FCD
:10178000FC01EB5EF14FE491E8A361E0898D0E94DA
:101790007E228A8D18161CF461E00E947E228B8DB9
:1017A00018161CF461E00E947E228A8D181684F4BB
:1017B00060E00E94BA222FEF89E698E12150804034
:1017C0009040E1F700C0000061E08A8D0E94BA22DB
:1017D00061E2CE010E94170B602F6061CE010E9472
:1017E000170B17FD1FE7612F6068CE010E94170BD2
:1017F00060E2CE010E94170B6CE0CE010E94170B35
:10180000CE01DF91CF911F910F910C94370B28EFF0
:1018100031E0E6E0F1E0DF01A9011D9241505040C6
:10182000E1F7DC011D961C921E921C971F961C92DC
:101830001E921E970895FC0114821382608388E033
:1018400081831282089581E00E94D62184E10E9462
:10185000D921BC01990F880B990B0E94462420E0E6
:1018600030E44CE950E40E944B250E94152480E0AE
:1018700090E00E9444249B01AC0160E97BE689E78B
:101880009BE40E949C2320E030E849E055E40E945C
:101890002A230E94152480E090E00E9444240E94A4
:1018A00003252DEC3CEC4CE750E40E949C232FE6F2
:1018B00032E143E85FE30E942B239B01AC0160E02F
:1018C00070E08AE794E40E949C2320E030E848E836
:1018D00053E40E942A230895873970F4811103C0CC
:1018E0006FEF70E004C066E970E0681B71098AE080
:1018F0000E94F62181E0089580E00895AF92BF92A2
:10190000CF92DF92EF92FF920F931F930E94230CCE
:1019100060938A0370938B0380938C0390938D0361
:101920000E9415246093900380919203811137C027
:10193000683278F1862F90E020918E03821B910906
:1019400097FF03C0919581959109029744F170E04A
:1019500080E090E01F921F921F9226E92F93A12C06
:10196000B12C6501A39410E5E12EF12C00E010E00C
:1019700028E230E040E050E00E94E92260939103C9
:101980008091900380938E030F900F900F900F9093
:1019900006C0643220F41092910360938E0380910C
:1019A000910390918F03891731F00E946C0C809104
:1019B000910380938F031F910F91FF90EF90DF9021
:1019C000CF90BF90AF9008959C01255031092230EF
:1019D0003105C0F1245031092230310508F451C0DD
:1019E000877F039769F560347105D9F05CF468303E
:1019F0007105E9F06032710591F06130710501F512
:101A000081E016C0611581E0780769F0611584E016
:101A1000780759F06038710599F485E009C083E0D2
:101A200007C084E005C086E003C087E001C082E013
:101A30009091B100987F892B8093B10081E0089547
:101A400080E008956034710531F483E095B5987FA6
:101A5000892B85BDF3CF6134710554F46130710574
:101A600011F481E0F3CF6830710551F782E0EECFD9
:101A7000611581E0780721F16115744009F785E06F
:101A8000E5CF60347105D1F02CF46130710589F433
:101A900081E008C0611581E07807A1F0611574400C
:101AA00079F685E090918100987F892B8093810061
:101AB000C5CF6830710521F682E0F4CF83E0F2CF24
:101AC00084E0C4CF84E0EECF60E08AE00E94BA22D6
:101AD00061E08AE00E947E2261E070E08AE090E0AE
:101AE0000E94E40C86E90E946C0C86E980938F03C7
:101AF0000895FC01608381E008950F931F93FC011A
:101B0000458B568B678B708F018F128F238F348F8D
:101B10001F910F910895CF93DF9300D0CDB7DEB71B
:101B20001A82198222E0AE014F5F5F4FFC01808173
:101B30000E94731E89819A819827892798270F9080
:101B40000F90DF91CF910895CF93DF93EC0163E085
:101B50000E948B0DBC01990F880B990B0E944624A3
:101B60002D813E814F8158850E944B25DF91CF9179
:101B70000895CF93DF93EC0161E00E948B0DBC01CF
:101B8000990F880B990B0E94462429813A814B8139
:101B90005C810E944B252D893E894F89588D0E947A
:101BA0002B23DF91CF910895CF93DF93EC0162E077
:101BB0000E948B0DBC01990F880B990B0E94462443
:101BC00029853A854B855C850E944B25298D3A8D68
:101BD0004B8D5C8D0E942B23DF91CF910895CF9385
:101BE000DF9300D0CDB7DEB74A83598322E0AE0140
:101BF0004F5F5F4FFC0180810E944A1E0F900F9043
:101C0000DF91CF910895CF92DF92EF92FF920F93E1
:101C1000CF93DF93EC01842FC12CD12C90E1E92EDE
:101C200092E4F92EC98ADA8AEB8AFC8AC12CD12C7B
:101C300030E7E32E31E4F32ECD86DE86EF86F88A98
:101C40004AE0C42E47EDD42E43EAE42E4AE3F42EB4
:101C5000C982DA82EB82FC82C986DA86EB86FC8650
:101C60005AE0C52E57EDD52E53E2E52E5CE3F52E56
:101C7000CD82DE82EF82F88698E0299FA0011124B0
:101C8000402B20E4829FC0011124482B592B70E087
:101C9000762F6627770F462B572B60E0CE010E94E8
:101CA000EF0D1D8A1E8A1F8A188E198E1A8E1B8EA2
:101CB0001C8E81E0DF91CF910F91FF90EF90DF902C
:101CC000CF9008958F929F92AF92BF92CF92DF9262
:101CD000EF92FF920F931F936B017C0149015A0110
:101CE0000E9444210091D0031091D1032091D2038E
:101CF0003091D303DC01CB01801B910BA20BB30B02
:101D000085369105A105B10508F484C087ED93E0FF
:101D10000E94070C62E087ED93E00E94370A61E0C1
:101D200087ED93E00E94340A61E087ED93E00E9422
:101D3000220A41E050E060E070E087ED93E00E940D
:101D40002E0A61E276E087ED93E00E94EB1E23E02D
:101D500030E0B501A40187ED93E00E94BC2062E36E
:101D600073E087ED93E00E943B1F6BE176E087ED27
:101D700093E00E94EB1E23E030E0B701A60187ED5F
:101D800093E00E94BC2064E373E087ED93E00E943F
:101D90003B1F61E070E087ED93E00E94280A62E05B
:101DA00087ED93E00E94220A4091FE035091FF03C9
:101DB000609100047091010422E030E087ED93E02F
:101DC0000E94BC2064E373E087ED93E00E943B1F18
:101DD0004091020450910304609104047091050441
:101DE00023E030E087ED93E00E94BC2062E373E0E3
:101DF00087ED93E00E943B1F87ED93E00E94370B35
:101E00000E9444216093D0037093D1038093D20346
:101E10009093D3031F910F91FF90EF90DF90CF909D
:101E2000BF90AF909F908F9008950F931F93CF9383
:101E3000DF93D82FC62F0E9444210091D003109128
:101E4000D1032091D2033091D303DC01CB01801B5D
:101E5000910BA20BB30B85369105A105B10508F4D2
:101E600061C087ED93E00E94070C62E087ED93E08C
:101E70000E94370A61E087ED93E00E94340A61E036
:101E800070E087ED93E00E94280A61E087ED93E01F
:101E90000E94220A87ED93E00E94151F6FE076E012
:101EA00087ED93E00E94291F62E087ED93E00E9496
:101EB000220A6CE076E087ED93E00E94EB1E4AE098
:101EC00050E06D2F87ED93E00E94C21F66E373E040
:101ED00087ED93E00E943B1F61E087ED93E00E9455
:101EE000220A63E076E087ED93E00E94EB1E4AE071
:101EF00050E06C2F87ED93E00E94C21F66E373E011
:101F000087ED93E00E943B1F87ED93E00E94370B23
:101F10000E9444216093D0037093D1038093D20335
:101F20009093D303DF91CF911F910F910895EF927A
:101F30000F931F93CF93DF931F92CDB7DEB70E940D
:101F4000640D64E48AE094E00E94790D07E024E0E7
:101F500044E062E08AE094E00E94030E00E010E0BA
:101F600098014FE652E163E87BE38AE094E00E9447
:101F70007D0D80EC898321E0AE014F5F5F4F60E112
:101F800080E50E944A1E21E0AE014F5F5F4F60E195
:101F900081E50E944A1E84EE9CE00E94E91288EED0
:101FA00093E00E94121368EC70E080E090E00E94E1
:101FB000752144E068E287ED93E00E947A0B82E0AD
:101FC000E82E04E610E024E135E040E556E464EE56
:101FD0007CE087EA93E00E94EB13EE24E3940AE0AE
:101FE00010E02AE030E048E853E168EE73E086E96B
:101FF00093E00E94EB138AEC93E00E94891A80EC34
:1020000093E00E94891A84ED93E00E94311A8DECCE
:1020100093E00E94431A0F90DF91CF911F910F918F
:10202000EF900895CF92DF92EF92FF920F931F935C
:102030008AE094E00E94D40D6093FE037093FF0346
:1020400080930004909301048AE094E00E94B90D0B
:102050006093020470930304809304049093050436
:102060008AE094E00E94A40D609306047093070434
:1020700080930804909309040E947E0C809194033D
:10208000811118C12091900330E04091950380E5C3
:1020900090E0841B91092817390794F185E080931B
:1020A000950381E0809393038DEC93E00E94A61A40
:1020B000882351F08DEC93E00E94431A6AE070E0AF
:1020C00080E090E00E9475218091B8039091B9035F
:1020D0008431954051F084E195E00E94E91284E159
:1020E00095E09093B9038093B80360E580919003E5
:1020F0001F910F91FF90EF90DF90CF900C94150FF0
:10210000109295031092930380913004811180C046
:1021100087EA93E00E948713823039F0833049F4D4
:1021200087EA93E00E94D31304C087EA93E00E94F9
:10213000BB1386E993E00E948713823039F0833025
:1021400049F486E993E00E94D31304C086E993E042
:102150000E94BB138AEC93E00E94A61A811129C049
:102160000E9444210091C6031091C7032091C80327
:102170003091C903DC01CB01801B910BA20BB30B87
:10218000893C9105A105B105A0F08DEC93E00E947A
:10219000561A8AEC93E00E94A61A8823D1F30E9473
:1021A00044216093C6037093C7038093C803909340
:1021B000C90380EC93E00E94A61A811129C00E94F5
:1021C00044210091BC031091BD032091BE033091C6
:1021D000BF03DC01CB01801B910BA20BB30B893C2D
:1021E0009105A105B105A0F084ED93E00E94561A77
:1021F00080EC93E00E94A61A8823D1F30E94442128
:102200006093BC037093BD038093BE039093BF03A0
:102210008091A7039091A8032091B8033091B9034E
:102220008217930751F00E94E9128091A7039091C1
:10223000A8039093B9038093B8038091960390917B
:1022400097032091BA033091BB038217930751F093
:102250000E94121380919603909197039093BB0371
:102260008093BA03609196037091970380E090E0A9
:102270000E94442420E030E04AE754E40E949C237A
:102280006B017C016091A7037091A80380E090E04E
:102290000E94442420E030E04AE754E40E949C235A
:1022A000A70196011F910F91FF90EF90DF90CF90C3
:1022B0000C94620E0E9444210091D0031091D1032E
:1022C0002091D2033091D303DC01CB01801B910B11
:1022D000A20BB30B85369105A105B105D0F187EDB1
:1022E00093E00E94070C62E087ED93E00E94370ABA
:1022F00061E070E087ED93E00E94280A61E087EDDD
:1023000093E00E94220A66EF75E087ED93E00E9459
:10231000291F6DEE75E087ED93E00E94291F61EEA5
:1023200075E087ED93E00E94291F62ED75E087ED6F
:1023300093E00E94291F87ED93E00E94370B0E94D3
:1023400044216093D0037093D1038093D203909380
:10235000D3031F910F91FF90EF90DF90CF900895DE
:102360000E949B2140E051EE60E070E084E794E041
:102370000E946F1C6DEB75E084E794E00E94EB1EF9
:1023800060E87AE186E090E00E942F1D81E00C94E5
:102390006B12A8950FB6F894A8958091600088619B
:1023A00080936000109260000FBE0E94B0110E94E6
:1023B000970FCCE0DCE10E9412100E94D01620970B
:1023C000D1F30E940C1CF7CF1F920F920FB60F9201
:1023D00011242F933F934F935F936F937F938F932A
:1023E0009F93AF93BF93EF93FF938DEC93E00E9485
:1023F000431A8AE090E00E9412138FE39CE9019750
:10240000F1F700C0000084E195E00E94E91281E04C
:1024100080939403FF91EF91BF91AF919F918F9122
:102420007F916F915F914F913F912F910F900FBED0
:102430000F901F9018950F9368E489EF93E00E9426
:102440001B0C08E029E04BE06DE087ED93E00E9473
:10245000B80A67E084ED93E00E94B81A61E18DEC60
:1024600093E00E94B81A60E18AEC93E00E94B81AE7
:1024700063E083EC93E00E94B81A66E080EC93E09E
:102480000E94B81A25E044E062E087EA93E00E94E7
:10249000031521E040E061E086E993E00F910C94A0
:1024A000031586E993E00E94FE1387EA93E00C94FB
:1024B000FE13F894E0E6F0E080818861808388E88C
:1024C00080832FEF80E792E0215080409040E1F739
:1024D00000C0000008951F93CF93DF9300D000D079
:1024E00000D0CDB7DEB7182F62E1CE0104960E946E
:1024F000B81A63E1CE0101960E94B81ACE01049683
:10250000112339F00E94891ACE0101960E94891A7E
:1025100006C00E946B1ACE0104960E946B1A269682
:102520000FB6F894DEBF0FBECDBFDF91CF911F91E4
:102530000895CF93DF931F92CDB7DEB7898321E053
:10254000AE014F5F5F4F692F80E60E944A1E0F90D9
:10255000DF91CF910895BC0180E090E00E94442477
:1025600021E836E242E85FE30E944B2526E33BE2A6
:1025700043EB51E40E942A230E941524CB010895C5
:10258000CF92DF92EF92FF9220E030E44CE95EE3DD
:102590000E949C236B017C0120E030E0A9010E9495
:1025A000F62420E030E040E05FE387FD05C0C7018E
:1025B000B6010E942B2304C0C701B6010E942A2342
:1025C0000E940E24CB01FF90EF90DF90CF900C94EF
:1025D00099129C01245135402D33314440F063E57C
:1025E00076E084E794E00E94291F80E008950E942D
:1025F000AB129C01A1E1B0E00E943E260E9444245F
:1026000020E030E04AE753E40E949C239B01AC01A8
:1026100060E070EE86EA94E40E942A230E94C012D1
:1026200081E00895CF92DF92EF92FF920F931F9374
:10263000CF93DF9300D0CDB7DEB79C012A5031098C
:102640002F37334140F067E276E084E794E00E9460
:10265000291F80E051C0BC0180E090E00E9444242A
:1026600020E030E040EA50E40E949C236B017C01B2
:1026700020E030E040E053E40E944B2520E030E4CD
:102680004CE154E40E949C230E9415248B016F3F6F
:10269000710509F028F4672B29F401E010E002C06D
:1026A0000FEF10E0098320E030E040E853E4C70179
:1026B000B6010E944B256B017C019801A1E7B2E0B5
:1026C0000E943E260E94442420E030E040E85CE383
:1026D0000E944B259B01AC01C701B6010E949C23BF
:1026E0000E9415246A8322E0AE014F5F5F4F60E0D5
:1026F00081E50E944A1E81E00F900F90DF91CF91FB
:102700001F910F91FF90EF90DF90CF900895CF939E
:10271000DF93EC018E859F850E948D19811106C083
:102720008E859F85DF91CF910C94A11980E0DF9178
:10273000CF910895E8E6F0E0408121E030E0DC014F
:102740001B960C9002C0220F331F0A94E2F72095CB
:10275000242320830895E8E6F0E0408121E030E082
:10276000DC011B960C9002C0220F331F0A94E2F783
:10277000242B20830895FC0181858F5F81879085BC
:10278000891310C0408151818681978122813381D4
:10279000281B390B2417350720F0840F951F9183D0
:1027A000808311860895FC0182858F5F82879085E2
:1027B000891310C0808191814681578124813581A0
:1027C000240F351F8217930720F0841B950B9183EC
:1027D000808312860895EF920F931F93FC017183FB
:1027E0006083538342833583248317830683E08683
:1027F000118612861F910F91EF9008950895EF9220
:10280000FF921F93CF93DF93EC01162F4C872D87F8
:10281000188A8AE090E00E94B11E7C0164E070E0BA
:102820000E949A19FF86EE86113009F493C008F4CD
:102830004AC0123009F0D5C04AB181E090E0BC0135
:102840000C8402C0660F771F0A94E2F79C010D8486
:1028500002C0220F331F0A94E2F7262B209524236F
:102860002AB93BB1BC010C8402C0660F771F0A94E1
:10287000E2F7AC010D8402C0440F551F0A94E2F741
:10288000262F242B232B2BB91B8720916D00AC0105
:102890000C8402C0440F551F0A94E2F70D8402C055
:1028A000880F991F0A94E2F7842B822B80936D0086
:1028B000809168008460809368002B96D0932F04E9
:1028C000C0932E0499C044B181E090E0BC010C8417
:1028D00002C0660F771F0A94E2F79C010D8402C0C4
:1028E000220F331F0A94E2F7262B2095242324B9C4
:1028F00035B1BC010C8402C0660F771F0A94E2F761
:10290000AC010D8402C0440F551F0A94E2F7262F34
:10291000242B232B25B91B8620916B00AC010C8442
:1029200002C0440F551F0A94E2F70D8402C0880FBD
:10293000991F0A94E2F7842B822B80936B0080917D
:1029400068008160809368002B96D0932B04C0931D
:102950002A0452C047B181E090E0BC010C8402C05F
:10296000660F771F0A94E2F79C010D8402C0220FC4
:10297000331F0A94E2F7262B2095242327B938B178
:10298000BC010C8402C0660F771F0A94E2F7AC0109
:102990000D8402C0440F551F0A94E2F7262F242B02
:1029A000232B28B91B8720916C00AC010C8402C03A
:1029B000440F551F0A94E2F70D8402C0880F991F37
:1029C0000A94E2F7842B822B80936C00809168003C
:1029D0008260809368002B96D0932D04C0932C04C2
:1029E0000BC069E776E084E794E0DF91CF911F9117
:1029F000FF90EF900C94291F7894DF91CF911F9155
:102A0000FF90EF9008950C94FF130F931F93CF93B3
:102A1000DF931F92CDB7DEB7FC011982A081B0E031
:102A2000A95DBB4F8C9190E0018002C09595879580
:102A30000A94E2F780FF03C08981816089838C91C9
:102A400090E0028002C0959587950A94E2F780FF96
:102A500003C089818260898385819981891711F1F9
:102A60008F019981911104C08130C9F463E006C0DF
:102A70009981913049F4811112C062E0F80183819B
:102A800094810E94D3190BC09981933019F482303C
:102A900031F4ECCF9981923011F4833071F3898154
:102AA000F80185830F90DF91CF911F910F910895C9
:102AB0001F920F920FB60F9211242F933F934F93B3
:102AC0005F936F937F938F939F93AF93BF93EF9396
:102AD000FF9383B18093270480912A0490912B0463
:102AE000009711F00E940515FF91EF91BF91AF91F2
:102AF0009F918F917F916F915F914F913F912F9116
:102B00000F900FBE0F901F9018951F920F920FB647
:102B10000F9211242F933F934F935F936F937F9363
:102B20008F939F93AF93BF93EF93FF9386B180935F
:102B3000280480912C0490912D04009711F00E949C
:102B40000515FF91EF91BF91AF919F918F917F916B
:102B50006F915F914F913F912F910F900FBE0F900A
:102B60001F9018951F920F920FB60F9211242F935A
:102B70003F934F935F936F937F938F939F93AF9305
:102B8000BF93EF93FF9389B18093290480912E0422
:102B900090912F04009711F00E940515FF91EF917D
:102BA000BF91AF919F918F917F916F915F914F9165
:102BB0003F912F910F900FBE0F901F9018956FE1CE
:102BC0007DE084E794E00E94291F64E07DE084E7D3
:102BD00094E00E94291F67EE7CE084E794E00E9465
:102BE000291F6BEC7CE084E794E00E94291F6FEAC8
:102BF0007CE084E794E00E94291F65E97CE084E79B
:102C000094E00E94291F6AE67CE084E794E00E9439
:102C1000291F64E37CE084E794E00E94291F6EE0B2
:102C20007CE084E794E00E94291F62EE7BE084E769
:102C300094E00E94291F6FEB7BE084E794E00E9400
:102C4000291F6EE97BE084E794E00E94291F68E772
:102C50007BE084E794E00E94291F60E57BE084E745
:102C600094E00E94291F66E17BE084E794E00E94E3
:102C7000291F6CEE7AE084E794E00E94291F64EB40
:102C80007AE084E794E00E94291F66E97AE084E70D
:102C900094E00E94291F6CE57AE084E794E00E94AA
:102CA000291F68E17AE084E794E00E94291F68EE1A
:102CB00079E084E794E00E94291F6CEC79E084E7D6
:102CC00094E00E94291F62EB79E084E794E00E947F
:102CD000291F6AE879E084E794E00E94291F64E3F1
:102CE00079E084E794E00E94291F67E079E084E7B7
:102CF00094E00E94291F63EA78E084E794E00E9450
:102D0000291F63E378E084E794E00E94291F61E1D2
:102D100078E084E794E00E94291F6EEE77E084E774
:102D200094E00C94291F6DE673E084E794E00C9422
:102D30003B1FBF92CF92DF92EF92FF920F931F93B0
:102D4000CF93DF938C01B62ED42F7C01C0E084E7B3
:102D500094E00E94BA1A1816190694F4CD1789F057
:102D6000670184E794E00E94E61AF70181937F01EE
:102D70008B1104C0F60110828C2F08C0CF5FE7CF03
:102D8000DC2FF801ED0FF11D108280E0DF91CF9173
:102D90001F910F91FF90EF90DF90CF90BF9008951B
:102DA0001F93CF93DF93CDB7DEB72C970FB6F89470
:102DB000DEBF0FBECDBF84E794E00E94501C882385
:102DC00009F485C284E794E00E94BA1A892B09F4B9
:102DD0007EC240E46DE084E394E00E949916809303
:102DE000330480913204882321F084E394E00E942C
:102DF000B42710913304112309F469C26EEF7DE00A
:102E000084E394E00E949D27892B51F480919303E1
:102E1000811103C08DEC93E01DC168EE77E053C2D1
:102E20006AEF7DE084E394E00E949D27892B61F4A2
:102E300080919303811105C08DEC93E00E94431AA9
:102E400046C262EE77E03FC264EF7DE084E394E047
:102E50000E949D27892B49F44091FE035091FF0366
:102E600060910004709101044EC06EEE7DE084E339
:102E700094E00E949D27892BA9F44091020450916F
:102E80000304609104047091050423E030E084E7BA
:102E900094E00E94BC2062E373E084E794E00E9427
:102EA0003B1F15C268EE7DE084E394E00E949D27FD
:102EB000892B89F44091060450910704609108041D
:102EC0007091090423E030E084E794E00E94BC2084
:102ED00060E773E0E2CF62EE7DE084E394E00E947D
:102EE0009D27892BC9F46091A7037091A80380E006
:102EF00090E00E94442420E030E04AE754E40E943D
:102F00009C23AB01BC0123E030E084E794E00E9405
:102F1000BC2064E373E0C1CF6CED7DE084E394E01A
:102F20000E949D27892B89F46091960370919703E5
:102F300080E090E00E94442420E030E04AE754E43E
:102F40000E949C23AB01BC01A0CF44E050E067EDA0
:102F50007DE084E394E00E94A627892B19F58091F7
:102F6000930381111CC0412F50E04450510968E384
:102F700074E0CE0101960E94BE27CE0101960E9408
:102F80007F279C01245135402D33314418F069ECE2
:102F900077E099C19093A8038093A7038FC163EC56
:102FA00077E091C144E050E062ED7DE084E394E09D
:102FB0000E94A627892B19F58091930381111CC0CB
:102FC000412F50E04450510968E374E0CE0101966E
:102FD0000E94BE27CE0101960E947F279C012A50A5
:102FE00031092F37334118F064EA77E06CC19093D0
:102FF00097038093960362C16EE977E064C16CEC3D
:103000007DE084E394E00E949D27892B29F484EDE0
:1030100093E00E94431A52C166EC7DE084E394E0A1
:103020000E949D27892B61F484ED93E00E94A61AEB
:10303000882319F06BE977E046C167E977E043C17F
:1030400061EC7DE084E394E00E949D27892B29F4C4
:1030500084ED93E00E94311A31C16BEB7DE084E393
:1030600094E00E949D27892B61F48DEC93E00E94EF
:10307000A61A882319F064E977E025C160E977E0B2
:1030800022C161EB7DE084E394E00E949D27892BBF
:1030900061F487EA93E00E949A1386E993E00E9424
:1030A0009A1381E08093300409C16AEA7DE084E3E9
:1030B00094E00E949D27892B59F487EA93E00E94AF
:1030C000AB1386E993E00E94AB1310923004F6C074
:1030D00066EB7DE084E394E00E949D27892B19F440
:1030E0000E94DF15F4C064EA7DE084E394E00E946E
:1030F0009D27892B59F40E9493166EE170E080E0C1
:1031000090E00E9475210E945912E1C066E77DE0BF
:1031100084E394E00E949D27892BA1F440918A03C7
:1031200050918B0360918C0370918D0323E030E00C
:1031300084E794E00E94BC2063E484E794E00E946A
:103140004D1FC5C060E77DE084E394E00E949D27A9
:10315000892B49F44AE050E06091910384E794E0C0
:103160000E94C91FB4C044E050E06BE67DE084E3F8
:1031700094E00E94A627892BF1F48091920381119B
:1031800003C060E677E09FC0412F50E044505109F2
:1031900068E374E0CE0101960E94BE27CE0101963D
:1031A0000E947F278739910518F06FE377E08BC085
:1031B0008093910383C066E67DE084E394E00E94FF
:1031C0009D27892B21F481E08093920377C061E6EB
:1031D0007DE084E394E00E949D27892B19F41092EE
:1031E00092036CC048E050E06BE97DE084E394E03A
:1031F0000E94A627892BC9F4412F50E0485051095D
:103200006CE374E0CE0101960E94BE27CE010196C8
:103210000E947F278F3709F088E08093FE0281E0CB
:103220008093310463E277E045C062E97DE084E3A6
:1032300094E00E949D27892B29F41092310466E0C6
:1032400077E038C06BE87DE084E394E00E949D273E
:10325000892B29F4109232046DEE76E02BC064E8DD
:103260007DE084E394E00E949D27892B31F481E086
:103270008093320463ED76E01DC060E87DE084E376
:1032800094E00E949D27892B39F484E794E00E9402
:10329000571C66EC76E00EC06CE77DE084E394E0BA
:1032A0000E949D27892B69F484E794E00E945B1CAF
:1032B00068EB76E084E794E00E94291F0E94931651
:1032C00006C06FEA76E084E794E00E94291F2C96FE
:1032D0000FB6F894DEBF0FBECDBFDF91CF911F9127
:1032E00008950F931F93CF93DF93EC01162F072FB1
:1032F00081E090E00E94B11EFC01108399878887CD
:103300001E830F838FEF9FEF9D838C839B838A8324
:10331000DF91CF911F910F910895FC0182819381DC
:10332000019631F481E0248135812F3F3F4F09F030
:1033300080E0089526E733E0FC01318320830C947C
:103340007119FC0122813381448155812F3F8FEF18
:10335000380721F44F3F8FEF580719F18085918589
:10336000DC01A20FB31F2417350731F49C912FEF16
:103370003FEF3583248312C04217530764F446811C
:103380005781415051092417350729F49C91138224
:103390001282892F08959C912F5F3F4F33832283A0
:1033A000F8CF80E00895FC012281338184819581EA
:1033B0002115310539F4468157814150510984174F
:1033C000950719F1A9014150510984179507E9F0B2
:1033D00046815781415051098417950731F41216DF
:1033E00013061CF41582148203C00196958384830E
:1033F000A085B18584819581A80FB91F6C938281C6
:103400009381019611F4138212820895FC016830B1
:1034100018F48BE290E00FC088EF860F863030F40E
:1034200025E230E031832083828308956E50663038
:1034300028F488E290E09183808362830895DC0120
:10344000ED91FC911197429121E030E0C901129673
:103450000C9002C0880F991F0A94E2F7842B808396
:103460000895DC01ED91FC911197408121E030E05D
:1034700012960C9002C0220F331F0A94E2F7242BFD
:1034800020830C941F1ADC01ED91FC91119740816F
:1034900021E030E012960C9002C0220F331F0A94F4
:1034A000E2F72095242320830C941F1ACF93DF93F7
:1034B000EC010E941F1AE881F981208181E090E0EF
:1034C0000A8002C0880F991F0A94E2F7822780833E
:1034D000DF91CF910895FC01A081B1819E9121E0FF
:1034E00030E0A901028002C0440F551F0A94E2F7A0
:1034F000842F809589238C93A081B1818C91028047
:1035000002C0220F331F0A94E2F7209528232C9340
:103510000895FC01A081B1819E9121E030E0A901D4
:10352000028002C0440F551F0A94E2F7842F809551
:1035300089238C93A081B1818C91028002C0220FDB
:10354000331F0A94E2F7282B2C930895DC01ED91A8
:10355000FC9111973297208130E0F90112960C907E
:1035600002C0F595E7950A94E2F7CF0181700895BE
:103570000C94061AFC0124853585F901E05CFF4FA7
:1035800080819181329620813181821B930B8F73D0
:1035900099270895DC011C96ED91FC911D97DF01A0
:1035A000A05CBF4F2D913C91119712968D919C91EB
:1035B00011972817390739F08D919C91E80FF91F61
:1035C000808190E008958FEF9FEF0895FC01A4851E
:1035D000B585FD01E05CFF4F20813181329680810D
:1035E00091812817390779F080819181A80FB91F3F
:1035F0008C91208131812F5F3F4F2F73332731838F
:10360000208390E008958FEF9FEF0895FC01868559
:103610009785FC01E05CFF4FDC01AE5BBF4F408152
:1036200051812D913C91119742175307C1F708958D
:103630000F931F93CF93DF93DC0192968C91929717
:103640008130C9F11E96ED91FC911F978F01005CAE
:103650001F4FE801288139812F5F3F4F2F73332798
:10366000AF014E5B5F4FEA01888199818217930712
:10367000D1F3E80148815981E40FF51F60831E965C
:10368000ED91FC911F97E05CFF4F318320835696AC
:10369000ED91FC915797408121E030E0C9015D96A2
:1036A0000C9002C0880F991F0A94E2F7842B808344
:1036B00081E090E002C080E090E0DF91CF911F9127
:1036C0000F91089508951F920F920FB60F92112433
:1036D0002F933F934F935F936F937F938F939F931A
:1036E000AF93BF93CF93EF93FF93C091C6008091A8
:1036F0009404882399F0CD3059F46DE084E794E088
:103700000E94181B6AE084E794E00E94181B08C01E
:103710006C2F84E794E00E94181B06C0CD3021F482
:1037200081E08093930406C0C03221F48091950417
:10373000811160C08091FE02C81339C080913104AC
:103740008823A9F18091970490919804009731F013
:10375000019790939804809397041DC020911D05B4
:1037600030911E0580911F0590912005281739077B
:1037700091F080911D0590911E05892B19F48FE31E
:1037800090E005C080911D0590911E0501979093D2
:103790001E0580931D0560E284E794E00E94181BDB
:1037A0006091FE0284E794E00E94181B23C0809180
:1037B0001D0590911E0520911F0530912005019651
:1037C0008F7399272817390761F0E0911D05F09153
:1037D0001E05E352FB4FC08390931E0580931D0589
:1037E00009C0809197049091980401969093980451
:1037F00080939704FF91EF91CF91BF91AF919F91EB
:103800008F917F916F915F914F913F912F910F9089
:103810000FBE0F901F90189584E794E00E94BA1A8B
:10382000892B11F00C94621B08951F920F920FB612
:103830000F9211242F933F938F939F93EF93FF93B6
:103840002091D9043091DA048091DB049091DC045A
:103850002817390731F48091C1008F7D8093C10012
:1038600014C0E091DB04F091DC04E756FB4F2081AB
:103870008091DB049091DC0401968F7399279093DB
:10388000DC048093DB042093C600FF91EF919F91AD
:103890008F913F912F910F900FBE0F901F90189511
:1038A000FC01878D882311F0178E81E0089521E0B7
:1038B000FC0120A30895FC0110A20895FC0112A2AE
:1038C000A689B7894C9121E030E0C901038C02C080
:1038D000880F991F0A94E2F7842B8C930895CF9256
:1038E000DF92EF92FF92CF93DF93EC016A017B01AD
:1038F00019A218A20E945E1CC11481EED806E10430
:10390000F10409F1EC89FD8981E090E00E8C02C0A0
:10391000880F991F0A94E2F7808360E079E08DE3D5
:1039200090E0A70196010E94FD25DA01C9010197E7
:10393000A109B109B695A795979587959C01211581
:1039400080E13807A8F0EC89FD89108260E874E80E
:103950008EE190E0A70196010E94FD25DA01C901E0
:103960000197A109B109B695A795979587959C01EF
:10397000E889F9893083EA89FB892083EE89FF8908
:10398000408181E090E09C010A8C02C0220F331F2D
:103990000A94E2F7242B2083EE89FF8940819C0161
:1039A0000B8C02C0220F331F0A94E2F7242B2083D2
:1039B000EE89FF8940819C010C8C02C0220F331FCD
:1039C0000A94E2F7242B2083EE89FF8920810D8C55
:1039D00002C0880F991F0A94E2F7809582238083A2
:1039E0001F8EDF91CF91FF90EF90DF90CF900895E1
:1039F000E4E7F4E01382128288EE93E0A0E0B0E006
:103A000084839583A683B7838CE793E09183808337
:103A10008DED94E09587848789E994E09787868780
:103A200085EC90E0918B808B84EC90E0938B828B83
:103A300080EC90E0958B848B81EC90E0978B868B6B
:103A400086EC90E0918F808F84E0828F83E0838F7B
:103A500087E0848F85E0858F81E0868F08959B01C4
:103A6000AC0160E074E284EF90E00E94FD25DA0191
:103A7000C9014097A109B109B695A7959795879572
:103A80008F3F910509F040F41092B9008093B8007F
:103A900024E02093BC00089580E090E008950F9307
:103AA0001F9384EA8093BC000E9444216093210507
:103AB0007093220580932305909324058091BC0088
:103AC00087FD1EC00E94442100912105109122050E
:103AD0002091230530912405AB01BC01401B510B03
:103AE000620B730B8091FF0290910003A0E0B0E0A5
:103AF00084179507A607B70708F782E090E008C08B
:103B00002091B900287F81E090E0283009F080E022
:103B10001F910F9108950F931F9384EA8093BC0027
:103B20000E94442160932105709322058093230510
:103B3000909324058091BC0087FD1EC00E94442103
:103B40000091210510912205209123053091240533
:103B5000AB01BC01401B510B620B730B8091FF0248
:103B600090910003A0E0B0E084179507A607B7077F
:103B700008F782E090E008C02091B900287F81E03A
:103B800090E0203109F080E01F910F9108950F938C
:103B90001F938093BB009091BC0093FDFACF84E803
:103BA0008093BC000E9444216093210570932205FC
:103BB00080932305909324058091BC0087FD1DC050
:103BC0000E94442100912105109122052091230596
:103BD00030912405AB01BC01401B510B620B730BF0
:103BE0008091FF0290910003A0E0B0E08417950758
:103BF000A607B70708F782E003C08091B900887F65
:103C00001F910F9108950F931F93CF93DF93EB01B3
:103C1000882311F084E801C084EC8093BC000E94EA
:103C2000442160932105709322058093230590938E
:103C300024058091BC0087FD1DC00E944421009195
:103C40002105109122052091230530912405AB0117
:103C5000BC01401B510B620B730B8091FF029091D2
:103C60000003A0E0B0E084179507A607B70708F7A0
:103C700082E004C08091BB00888381E0DF91CF9116
:103C80001F910F910895880F81600C94C71D880FB4
:103C90000C94C71DFF920F931F93CF93DF93D82FE0
:103CA000C62FF42E052F122F0E944F1D8D2F0E941C
:103CB000471E8C2F0E94C71DCF2DD02FCE01810F04
:103CC000911D8C01C017D10721F089910E94C71D59
:103CD000F9CF84E98093BC0081E0DF91CF911F91FF
:103CE0000F91FF900895CF92DF92EF92FF920F9382
:103CF0001F93CF93DF93C82FD62F8A01E22E0E9405
:103D00004F1D8C2F0E94471E8D2F0E94C71D0E94A1
:103D10008B1D8C2F0E94431EE801F12C00E010E067
:103D2000670181E0C81AD1080E151F0569F0BE01B0
:103D3000C016D10611F080E001C081E00E94031E90
:103D40000F5F1F4F2196F0CF84E98093BC0081E084
:103D5000DF91CF911F910F91FF90EF90DF90CF9067
:103D600008950C945E260895CF92DF92EF92FF9211
:103D70000F931F93CF93DF936C01EB017B01E40E54
:103D8000F51E00E010E0CE15DF0561F06991D60167
:103D9000ED91FC910190F081E02DC6010995080F8D
:103DA000191FF1CFC801DF91CF911F910F91FF90A3
:103DB000EF90DF90CF900895FB0101900020E9F78C
:103DC0003197AF01461B570BDC01ED91FC9102804E
:103DD000F381E02D0994EF92FF920F931F93CF93FD
:103DE000DF937C01FB0100E010E06491EF0121967C
:103DF000662361F0D701ED91FC910190F081E02DF7
:103E0000C7010995080F191FFE01EFCFC801DF9107
:103E1000CF911F910F91FF90EF900895DC01ED91EC
:103E2000FC910190F081E02D09940F931F93CF93A3
:103E3000DF93EC016DE00E940E1F8C016AE0CE0161
:103E40000E940E1F800F911FDF91CF911F910F9144
:103E500008950F931F93CF93DF93EC010E94EB1E05
:103E60008C01CE010E94151F800F911FDF91CF9111
:103E70001F910F9108950F931F93CF93DF93EC0140
:103E80000E94DC1E8C01CE010E94151F800F911F25
:103E9000DF91CF911F910F9108950F931F93CF93AF
:103EA000DF93EC010E940E1F8C01CE010E94151FB2
:103EB000800F911FDF91CF911F910F9108958F92E5
:103EC0009F92AF92BF92CF92DF92EF92FF920F93A9
:103ED0001F93CF93DF93CDB7DEB7A1970FB6F894BA
:103EE000DEBF0FBECDBF6C01142FE52FCB01022F1B
:103EF00019A2223008F40AE07E0121E2E20EF11C50
:103F0000802E912CA12CB12C612F7E2FA501940124
:103F10000E94FD25029F1019112481E0E81AF10882
:103F20001A3010F4105D01C0195CF7011083122FD4
:103F3000E32FCA01232B242B252B31F7B701C60110
:103F40000E94DC1EA1960FB6F894DEBF0FBECDBF57
:103F5000DF91CF911F910F91FF90EF90DF90CF9065
:103F6000BF90AF909F908F9008952115310541F437
:103F7000DC01ED91FC910190F081E02D642F09941A
:103F80000C945F1F9A01462F50E060E070E00C94A3
:103F9000B51F0F931F93CF93DF93EC010E94C21FB5
:103FA0008C01CE010E94151F800F911FDF91CF91D0
:103FB0001F910F910895CF92DF92EF92FF920F938E
:103FC0001F93CF93DF932115310581F4DC01ED912F
:103FD000FC910190F081E02D642FDF91CF911F9132
:103FE0000F91FF90EF90DF90CF9009942A30310528
:103FF00001F577FF1DC06A017B01EC016DE20E94B3
:104000000E1F8C0144275527BA014C195D096E0912
:104010007F092AE0CE010E945F1F800F911FDF9170
:10402000CF911F910F91FF90EF90DF90CF90089567
:104030002AE0DF91CF911F910F91FF90EF90DF90D9
:10404000CF900C945F1F9A01AB01770F660B770B33
:104050000C94DB1F4F925F926F927F92AF92BF9250
:10406000CF92DF92EF92FF920F931F93CF935C0159
:104070006A017B01722E20E030E0A901C701B60180
:104080000E94972387FF0AC06DE2C5010E940E1FA0
:104090008C01F7FAF094F7F8F09402C000E010E019
:1040A000C0E060E070E080E09FE3C71541F020E0F1
:1040B00030E040E251E40E949C23CF5FF6CF9B01A9
:1040C000AC01C701B6010E942B236B017C010E9449
:1040D00015242B013C012AE0AB01BC01C5010E9463
:1040E0005F1F080F191FCC23C1F1C301B2010E9449
:1040F00044249B01AC01C701B6010E942A236B0135
:104100007C0168E873E0C5010E94DC1E080F191FDE
:1041100020E030E040E251E4C701B6010E944B25A7
:104120002B013C010E940E246B017C014AE050E00F
:10413000C5010E942320080F191FB601DD0C880B52
:10414000990B0E9446249B01AC01C301B2010E945D
:104150002A236B017C01C150D9F6C801CF911F9170
:104160000F91FF90EF90DF90CF90BF90AF907F9036
:104170006F905F904F9008950C942A2061E08DE03D
:104180000E947E2261E08BE00E947E2261E08AE054
:104190000E947E2260E08DE00E94BA2260E08BE007
:1041A0000E94BA2261E08AE00E94BA228CB5806146
:1041B0008CBD8CB580648CBD0895811103C08CB515
:1041C000806202C08CB58F7D8CBD08959CB5937FB5
:1041D000892B8CBD08959CB59C7F282F2370922B32
:1041E0009CBD2DB582FB992790F9822F8E7F892B5C
:1041F0008DBD08951F920F920FB60F9211242F9329
:104200003F938F939F93AF93BF9380912605909197
:104210002705A0912805B09129053091250523E0B7
:10422000230F2D3720F40196A11DB11D05C026E8EE
:10423000230F0296A11DB11D20932505809326050D
:1042400090932705A0932805B093290580912A050E
:1042500090912B05A0912C05B0912D050196A11DE3
:10426000B11D80932A0590932B05A0932C05B09344
:104270002D05BF91AF919F918F913F912F910F90FD
:104280000FBE0F901F9018952FB7F89460912605D8
:104290007091270580912805909129052FBF0895D9
:1042A0003FB7F89480912A0590912B05A0912C0599
:1042B000B0912D0526B5A89B05C02F3F19F001969A
:1042C000A11DB11D3FBFBA2FA92F982F8827820F9C
:1042D000911DA11DB11DBC01CD0142E0660F771FEC
:1042E000881F991F4A95D1F70895CF92DF92EF92D8
:1042F000FF92CF93DF936B017C010E945021EB0171
:10430000C114D104E104F10479F00E9450216C1B26
:104310007D0B683E7340A0F381E0C81AD108E10824
:10432000F108C851DC4FECCFDF91CF91FF90EF90B7
:10433000DF90CF900895789484B5826084BD84B571
:10434000816084BD85B5826085BD85B5816085BD90
:10435000EEE6F0E0808181608083E1E8F0E01082A9
:10436000808182608083808181608083E0E8F0E0EA
:10437000808181608083E1EBF0E0808184608083D4
:10438000E0EBF0E0808181608083EAE7F0E080810B
:10439000846080838081826080838081816080836B
:1043A0008081806880831092C1000895809301030A
:1043B00008958E3008F08E502091010390E4299FDB
:1043C000900111248770822B80937C0080917A0069
:1043D000806480937A0080917A0086FDFCCF809182
:1043E00078002091790090E0922B08951F93CF934D
:1043F000DF93182FEB0161E00E947E22209711F4D9
:1044000060E004C0CF3FD10539F461E0812FDF9136
:10441000CF911F910C94BA22E12FF0E0EF5FF14FA2
:10442000E491E330F9F048F4E130B9F0E230A1F57D
:1044300084B5806284BDC8BD34C0E630E9F0E730A1
:1044400019F1E43049F5809180008062809380000A
:10445000D0938B00C0938A0024C084B5806884BD4B
:10446000C7BD1FC080918000806880938000D0937A
:104470008900C093880015C08091B0008068809347
:10448000B000C093B3000DC08091B00080628093F3
:10449000B000C093B40005C0C038D1050CF0B5CF52
:1044A000AFCFDF91CF911F910895833081F028F431
:1044B000813099F08230A1F008958630A9F08730DC
:1044C000B9F08430D1F4809180008F7D03C0809159
:1044D00080008F7780938000089584B58F7702C025
:1044E00084B58F7D84BD08958091B0008F7703C01F
:1044F0008091B0008F7D8093B0000895CF93DF93BB
:1045000090E0FC01EB5EF14F2491FC01E75DF14F7F
:104510008491882361F190E0880F991FFC01E95B89
:10452000F14FC591D491FC01E35CF14FA591B49199
:10453000611109C09FB7F8948881209582238883F0
:10454000EC912E230BC0623061F49FB7F894888100
:10455000322F309583238883EC912E2B2C939FBF91
:1045600006C08FB7F894E8812E2B28838FBFDF9188
:10457000CF9108951F93CF93DF93282F30E0F90157
:10458000EF5FF14F8491F901EB5EF14FD491F901A6
:10459000E75DF14FC491CC23C1F0162F81110E9429
:1045A0005522EC2FF0E0EE0FFF1FE35CF14FA591D9
:1045B000B4919FB7F894111104C08C91D095D82371
:1045C00002C0EC91DE2BDC939FBFDF91CF911F9156
:1045D00008954F925F926F927F92AF92BF92CF9267
:1045E000DF92EF92FF920F931F93CF93DF93CDB79C
:1045F000DEB729013A019B01AC01241935094609AE
:10460000570989899A89AB89BC89BC01CD016A198E
:104610007B098C099D090E94ED25A80197012419A9
:104620003509460957090E941F26CA01B9016A0DBA
:104630007B1D8C1D9D1DDF91CF911F910F91FF90D0
:10464000EF90DF90CF90BF90AF907F906F905F9092
:104650004F9008955058BB27AA270E9442230C94DC
:10466000BC240E94AE2438F00E94B52420F039F416
:104670009F3F19F426F40C94AB240EF4E095E7FB6D
:104680000C94A524E92F0E94CD2458F3BA17620791
:1046900073078407950720F079F4A6F50C94EF24AE
:1046A0000EF4E0950B2EBA2FA02D0B01B90190014D
:1046B0000C01CA01A0011124FF27591B99F0593F91
:1046C00050F4503E68F11A16F040A22F232F342FD9
:1046D0004427585FF3CF469537952795A795F04027
:1046E0005395C9F77EF41F16BA0B620B730B840B3C
:1046F000BAF09150A1F0FF0FBB1F661F771F881FF4
:10470000C2F70EC0BA0F621F731F841F48F487954B
:1047100077956795B795F7959E3F08F0B0CF93953D
:10472000880F08F09927EE0F9795879508950E94B6
:10473000812408F481E008950E94B0230C94BC24E5
:104740000E94B52458F00E94AE2440F029F45F3F47
:1047500029F00C94A52451110C94F0240C94AB2452
:104760000E94CD2468F39923B1F3552391F3951B4F
:10477000550BBB27AA2762177307840738F09F5F82
:104780005F4F220F331F441FAA1FA9F335D00E2EEF
:104790003AF0E0E832D091505040E695001CCAF75C
:1047A0002BD0FE2F29D0660F771F881FBB1F26171F
:1047B00037074807AB07B0E809F0BB0B802DBF01F6
:1047C000FF2793585F4F3AF09E3F510578F00C94C5
:1047D000A5240C94F0245F3FE4F3983ED4F386952F
:1047E00077956795B795F7959F5FC9F7880F911DE6
:1047F0009695879597F90895E1E0660F771F881FD2
:10480000BB1F621773078407BA0720F0621B730B84
:10481000840BBA0BEE1F88F7E09508950E941524CB
:104820006894B1110C94F02408950E94D52488F066
:104830009F5798F0B92F9927B751B0F0E1F0660F64
:10484000771F881F991F1AF0BA95C9F714C0B130A5
:1048500091F00E94EF24B1E008950C94EF24672FAB
:10486000782F8827B85F39F0B93FCCF386957795D4
:104870006795B395D9F73EF49095809570956195BD
:104880007F4F8F4F9F4F0895E89409C097FB3EF4E8
:1048900090958095709561957F4F8F4F9F4F99238D
:1048A000A9F0F92F96E9BB279395F695879577950B
:1048B0006795B795F111F8CFFAF4BB0F11F460FFCB
:1048C0001BC06F5F7F4F8F4F9F4F16C0882311F023
:1048D00096E911C0772321F09EE8872F762F05C037
:1048E000662371F096E8862F70E060E02AF09A95D2
:1048F000660F771F881FDAF7880F9695879597F9C7
:104900000895990F0008550FAA0BE0E8FEEF161660
:104910001706E807F907C0F012161306E407F507B3
:1049200098F0621B730B840B950B39F40A2661F027
:10493000232B242B252B21F408950A2609F4A140CA
:10494000A6958FEF811D811D089597F99F6780E8D7
:1049500070E060E008959FEF80EC089500240A94D1
:104960001616170618060906089500240A9412164A
:104970001306140605060895092E0394000C11F47D
:10498000882352F0BB0F40F4BF2B11F460FF04C02A
:104990006F5F7F4F8F4F9F4F089557FD9058440F83
:1049A000551F59F05F3F71F04795880F97FB991F8E
:1049B00061F09F3F79F0879508951216130614064B
:1049C000551FF2CF4695F1DF08C0161617061806D8
:1049D000991FF1CF86957105610508940895E894B3
:1049E000BB2766277727CB0197F908950E9481247A
:1049F00008F48FEF089516F00C94B8250C94AB24AE
:104A000068940C94A5240E94D524A8F39923C1F39B
:104A1000AEF3DF93CF931F930F93FF92C92FDD2740
:104A200088232AF02197660F771F881FDAF720E086
:104A300030E040E85FEB9FE3883920F0803E38F0BB
:104A400021968F770E942B23E8E6F0E004C00E94B5
:104A50002B23E5E9F0E00E94C6258B01BE01EC01A5
:104A6000FB2E6F5771097595771F880B990B0E9464
:104A7000462428E132E741E35FE30E945E25AF2D43
:104A80009801AE01FF900F911F91CF91DF910E948D
:104A900042230C94BC240E945E250C94BC240E94EA
:104AA000AE2438F00E94B52420F0952311F00C9428
:104AB000A5240C94AB2411240C94F0240E94CD2442
:104AC00070F3959FC1F3950F50E0551F629FF00161
:104AD000729FBB27F00DB11D639FAA27F00DB11D7A
:104AE000AA1F649F6627B00DA11D661F829F222703
:104AF000B00DA11D621F739FB00DA11D621F839F8A
:104B0000A00D611D221F749F3327A00D611D231F5F
:104B1000849F600D211D822F762F6A2F11249F57AD
:104B200050409AF0F1F088234AF0EE0FFF1FBB1FB0
:104B3000661F771F881F91505040A9F79E3F51056F
:104B400080F00C94A5240C94F0245F3FE4F3983E8D
:104B5000D4F3869577956795B795F795E7959F5F19
:104B6000C1F7FE2B880F911D9695879597F90895AB
:104B70009F3F31F0915020F4879577956795B795D1
:104B8000880F911D9695879597F90895DF93CF9398
:104B90001F930F93FF92EF92DF927B018C01689439
:104BA00006C0DA2EEF010E945E25FE01E894A59171
:104BB0002591359145915591A6F3EF010E9442232D
:104BC000FE019701A801DA9469F7DF90EF90FF905A
:104BD0000F911F91CF91DF910895DB018F939F93E8
:104BE0000E944D26BF91AF91A29F800D911DA39F62
:104BF000900DB29F900D11240895A1E21A2EAA1BC8
:104C0000BB1BFD010DC0AA1FBB1FEE1FFF1FA2177C
:104C1000B307E407F50720F0A21BB30BE40BF50B79
:104C2000661F771F881F991F1A9469F76095709502
:104C3000809590959B01AC01BD01CF010895052E93
:104C400097FB1EF400940E94362657FD07D00E9461
:104C5000FD2507FC03D04EF40C9436265095409564
:104C6000309521953F4F4F4F5F4F08959095809518
:104C7000709561957F4F8F4F9F4F0895A29FB00110
:104C8000B39FC001A39F700D811D1124911DB29F80
:104C9000700D811D1124911D08950E943E26A59F2F
:104CA000900DB49F900DA49F800D911D1124089527
:104CB000EE0FFF1F0590F491E02D09940F931F93C1
:104CC000CF93DF938230910510F482E090E0E09181
:104CD0003005F091310520E030E0A0E0B0E0309701
:104CE00019F1408151810281138148175907C8F099
:104CF0008417950769F4109731F012960C93129768
:104D000013961C9327C0009330051093310522C0E1
:104D10002115310519F04217530718F49A01BD0106
:104D2000EF01DF01F801DBCF21153105F9F0281B78
:104D3000390B2430310580F48A819B81611571051E
:104D400021F0FB019383828304C09093310580930B
:104D50003005FE01329644C0FE01E20FF31F81933D
:104D6000919322503109398328833AC020912E052E
:104D700030912F05232B41F4209102013091030142
:104D800030932F0520932E052091000130910101D1
:104D90002115310541F42DB73EB7409104015091E2
:104DA0000501241B350BE0912E05F0912F05E2172C
:104DB000F307A0F42E1B3F0B2817390778F0AC013E
:104DC0004E5F5F4F2417350748F04E0F5F1F50931B
:104DD0002F0540932E058193919302C0E0E0F0E00F
:104DE000CF01DF91CF911F910F910895CF93DF9362
:104DF000009709F481C0FC01329713821282A091BE
:104E00003005B0913105109781F420813181820FF6
:104E1000931F20912E0530912F052817390751F542
:104E2000F0932F05E0932E0567C0ED0120E030E000
:104E3000CE17DF0740F44A815B819E014115510581
:104E4000F1F0EA01F5CFD383C28340815181840F11
:104E5000951FC817D90759F488819981840F951F28
:104E60000296918380838A819B819383828321151B
:104E7000310529F4F0933105E09330053DC0E90197
:104E8000FB83EA8349915991C40FD51FEC17FD07A5
:104E900061F480819181840F951F0296E9019983C5
:104EA0008883828193819B838A83E0E0F0E012967D
:104EB0008D919C911397009719F0FD01DC01F7CFBC
:104EC0008D919C9111979D012E5F3F4F820F931FF3
:104ED00020912E0530912F052817390769F4309756
:104EE00029F4109231051092300502C0138212820B
:104EF000B0932F05A0932E05DF91CF910895FC016B
:104F000088279927E89421912032E9F3293010F07D
:104F10002E30C8F32B3241F02D3239F4689404C09E
:104F20000E94CD27820F911D219120532A30C0F37A
:104F30001EF4909581959F4F0895FB01DC018D91A2
:104F4000059080190110D9F3990B0895FB01DC013C
:104F50004150504030F08D910590801919F4002097
:104F6000B9F7881B990B0895DC016C9161546A3183
:104F700008F060526F596D93C1F70895FB01DC0191
:104F80004150504048F001900D920020C9F701C0F7
:104F90001D9241505040E0F708957AE0979F902D80
:104FA000879F802D910D1124089517E0CBE2D7E063
:104FB00004C0FE010E9458262196CC32D107C9F7C1
:044FC000F894FFCF93
:104FC4000000320520000000000000000000000086
:104FD40000000000000000000000000000000000CD
:104FE400000000000000000000000000C0E0F0F835
:104FF400FCFCFEFFFCE000000000000000000000DC
:10500400000000000000000000000000000000009C
:10501400000000000000000000000000000000008C
:105024000000000000000000000000F8F8F8F8F8A4
:10503400F8F8F8F8F8F8F8F0F0E0E0C080C0FCFF09
:10504400FFFFFF7F3F7FFFFFFFFFFF000000000027
:10505400000000000000000000000000000000004C
:10506400000000000000000000000000000000003C
:10507400000000000000000000000000000000002C
:105084000F1F3F7FFFFFFFFFFFFFFFFFE7C7C7873C
:105094008F9F9FFFFFFFC1C0E0FCFFFFFFFFFFFCEE
:1050A400FCFCFCFEFEFEFCFCF8F8F0E0C0C00000D6
:1050B40000000000000000000000000000000000EC
:1050C40000000000000000000000000000000000DC
:1050D4000000000000000080C0E0F1FBFFFFFFFFC4
:1050E400FF7F1F0F0F87E7FFFFFF1F1F3FF9F8F830
:1050F400F8F8F8F8FDFFFFFFFFFFFFFFFFFF7F3F1A
:105104000F07010000000000000000000000000084
:10511400000000000000000000000000000000008B
:10512400000000000000000000F0FEFFFFFFFFFF92
:10513400FFFFFFFFFFFE7E3F3F0F1FFFFFFFFCF05F
:10514400E0F1FFFFFFFFFFFCF0010101010101019C
:10515400010000000000000000000000000000004A
:10516400000000000000000000000000000000003B
:105174000000000000000000000000000003030322
:105184000303030303010101010000000000000008
:10519400030F1F3F7F7FFFFFFFFF7F7F1F03000081
:1051A40000000000000000000000000000000000FB
:1051B400000000000000000000000000000008D013
:1051C400070100000000CC09B41EB31E560757089F
:1051D4006E0808088408B908D60800000000CC0945
:1051E400B41E4C0A560757086E0808088408B90804
:1051F400D60841005600430053657474696E6720F5
:10520400566F6C746167652C00494E4120564255B7
:10521400532052656164696E672C00494E412053E6
:1052240068756E742043757272656E74004F4B001E
:10523400570000000000711900000000181BB41E84
:0A524400BA1AE61ACA1A061B2E0059
:00000001FF
