S01300004469676974616C5F5053552E73726563FC
S11300000C941C030C94390B0C9444030C9444037B
S11300100C9444030C94580C0C9444030C94440323
S11300200C9444030C9444030C9444030C94440330
S11300300C9444030C9444030C9444030C94440320
S11300400C9420140C9444030C94900E0C942F0FD5
S11300500C9444030C9444030C9444030C94440300
S11300600C9444030C94440300000000003E5B4FD6
S11300705B3E3E6B4F6B3E1C3E7C3E1C183C7E3C04
S1130080181C577D571C1C5E7F5E1C00183C180012
S1130090FFE7C3E7FF0018241800FFE7DBE7FF30A2
S11300A0483A060E2629792926407F050507407F10
S11300B005253F5A3CE73C5A7F3E1C1C08081C1C83
S11300C03E7F14227F22145F5F005F5F06097F0179
S11300D07F006689956A606060606094A2FFA29464
S11300E008047E040810207E201008082A1C080832
S11300F01C2A08081E101010100C1E0C1E0C303880
S11301003E3830060E3E0E06000000000000005F80
S113011000000007000700147F147F14242A7F2A9C
S1130120122313086462364956205000080703005E
S1130130001C2241000041221C002A1C7F1C2A08AA
S1130140083E08080080703000080808080800000D
S113015060600020100804023E5149453E00427F81
S1130160400072494949462141494D331814127FD0
S11301701027454545393C4A494931412111090770
S11301803649494936464949291E000014000000F1
S113019040340000000814224114141414140041C3
S11301A022140802015909063E415D594E7C121180
S11301B0127C7F494949363E414141227F414141B8
S11301C03E7F494949417F090909013E4141517333
S11301D07F0808087F00417F41002040413F017FA4
S11301E0081422417F404040407F021C027F7F046C
S11301F008107F3E4141413E7F090909063E4151B5
S1130200215E7F09192946264949493203017F01A4
S1130210033F4040403F1F2040201F3F4038403FA5
S1130220631408146303047804036159494D4300BB
S11302307F4141410204081020004141417F0402F2
S11302400102044040404040000307080020545489
S113025078407F2844443838444444283844442867
S11302607F385454541800087E090218A4A49C78BA
S11302707F0804047800447D40002040403D007F16
S11302801028440000417F40007C047804787C08F6
S11302900404783844444438FC18242418182424CA
S11302A018FC7C08040408485454542404043F44AF
S11302B0243C4040207C1C2040201C3C4030403CDE
S11302C044281028444C9090907C4464544C44003E
S11302D008364100000077000000413608000201A2
S11302E00204023C2623263C1EA1A161123A40408E
S11302F0207A38545455592155557941225454780B
S113030042215554784020545579400C1E527212A3
S1130310395555555939545454593955545458002C
S113032000457C410002457D420001457C407D1230
S113033011127DF0282528F07C5455450020545492
S11303407C547C0A097F4932494949323A4444443D
S11303503A324A4848303A4141217A3A4240207878
S1130360009DA0A07D3D4242423D3D4040403D3C79
S113037024FF2424487E4943662B2FFC2F2BFF099E
S113038029F620C0887E0903205454794100004492
S11303907D413048484A32384040227A007A0A0A7D
S11303A0727D0D19317D2629292F282629292926F0
S11303B030484D4020380808080808080808382F35
S11303C010C8ACBA2F102834FA00007B00000814BF
S11303D02A142222142A1408AA005500AAAA55AAEB
S11303E055AA000000FF00101010FF00141414FFA1
S11303F0001010FF00FF1010F010F0141414FC0093
S11304001414F700FF0000FF00FF1414F404FC149C
S11304101417101F10101F101F1414141F00101095
S113042010F0000000001F101010101F101010100A
S1130430F010000000FF101010101010101010FF2A
S113044010000000FF140000FF00FF00001F101741
S11304500000FC04F414141710171414F404F4002A
S113046000FF00F714141414141414F700F71414F0
S113047014171410101F101F141414F4141010F077
S113048010F000001F101F0000001F14000000FCEB
S1130490140000F010F01010FF10FF141414FF14D7
S11304A01010101F00000000F010FFFFFFFFFFF00E
S11304B0F0F0F0F0FFFFFF0000000000FFFF0F0F5F
S11304C00F0F0F3844443844FC4A4A4A347E02022F
S11304D00606027E027E0263554941633844443C69
S11304E004407E201E2006027E020299A5E7A599FB
S11304F01C2A492A1C4C7201724C304A4D4D303032
S113050048784830BC625A463D3E494949007E011C
S113051001017E2A2A2A2A2A44445F444440514A3B
S1130520444040444A51400000FF0103E080FF0082
S11305300008086B6B083612362436060F090F06BE
S1130540000018180000001010003040FF010100E6
S11305501F01011E00191D1712003C3C3C3C000009
S11305600000004445564943455F494E49544941BA
S11305704C495345440D0A004572726F7221204361
S1130580757272656E74204C696D69742052657160
S1130590756573746564204F7574206F66205261AD
S11305A06E6765004572726F722120566F6C7461BC
S11305B0676520526571756573746564204F757441
S11305C0206F662052616E676500434C4B00414EBC
S11305D0544900567365743A00496C696D3A0000D9
S11305E000000700020100000304060000000000F0
S11305F000000001020408102040800102040810D9
S11306002001020408102004040404040404040265
S11306100202020202030303030303000000002595
S11306200028002B0000000000240027002A0000FE
S1130630280CF10C0410F70C11241FBECFEFD8E0E6
S1130640DEBFCDBF14E0A0E0B1E0E2E8F2E302C017
S113065005900D92A433B107D9F725E0A4E3B4E0E3
S113066001C01D92A934B207E1F713E0CBE1D3E056
S113067004C02197FE010E940D18C831D107C9F7A3
S11306800E948A0B0C9434190C9400002F923F9210
S11306904F925F926F927F928F929F92AF92BF928E
S11306A0CF92DF92EF92FF920F931F93CF93DF933A
S11306B000D000D000D0CDB7DEB72C017E836D838F
S11306C06A015901C801FC82EB824801841A950A27
S11306D097FE03C091948194910835012D813E8148
S11306E0621A730A77FE03C07194619471086814E6
S11306F079045CF43A2D2B2D5C01832F922F3D81DC
S11307002E81DE82CD82C32ED22EAD81BE81AA1669
S1130710BB065CF43C2D2D2D6C01832F922F3D8163
S11307202E81BE82AD82A32EB22E85012D813E8103
S1130730021B130B1C012C183D0837FE03C0319417
S113074021943108780117FF03C03FEFE31AF30A3D
S1130750F594E794C816D9062CF08FEF9FEF9A838F
S1130760898304C0A1E0B0E0BA83A9832D813E81CE
S1130770A216B30624F1D201ED91FC910480F58117
S1130780E02D2B813C816814790424F44D815E8131
S1130790B60103C0A6016D817E81C2010995E218EC
S11307A0F308F7FE06C029813A81C20ED31EE00E7B
S11307B0F11E8D819E8101969E838D83D7CF2696CF
S11307C00FB6F894DEBF0FBECDBFDF91CF911F915E
S11307D00F91FF90EF90DF90CF90BF90AF909F90DC
S11307E08F907F906F905F904F903F902F900895DF
S11307F06F927F928F929F92AF92BF92CF92DF922D
S1130800EF92FF920F931F93CF93DF93EC014B0171
S11308105A0169013801E881F9810284F385E02DE8
S113082087010995A501460D571D41505109E881DD
S1130830F9810284F385E02D9601B401CE01099576
S1130840E881F9810084F185E02D9301A501B401CB
S1130850CE010995C80CD91CB60161507109E88113
S1130860F9810084F185E02D9301A501CE0109955C
S1130870DF91CF911F910F91FF90EF90DF90CF9078
S1130880BF90AF909F908F907F906F900895EF925C
S1130890FF920F931F93240F351F21503109DC0160
S11308A0ED91FC910680F781E02D780189019B018F
S11308B009951F910F91FF90EF900895EF92FF9289
S11308C00F931F93260F371F21503109DC01ED913F
S11308D0FC910680F781E02D78018A0109951F912A
S11308E00F91FF90EF9008956F927F928F929F9255
S11308F0AF92BF92CF92DF92EF92FF920F931F932A
S1130900CF93DF936C015A014801EB013B01620E66
S1130910731EC615D70574F4D601ED91FC910084BD
S1130920F185E02D87019401A501BE01C601099559
S11309302196EFCFDF91CF911F910F91FF90EF9010
S1130940DF90CF90BF90AF909F908F907F906F90EB
S11309500895EF92FF920F931F93DC011A960D9165
S11309601C911B9718962D913C911997ED91FC9130
S11309700684F785E02D7B0140E050E060E070E004
S113098009951F910F91FF90EF9008950895FC0130
S11309901382128284E093E091838083758364835D
S11309A0578346837187608753874287158A1586E4
S11309B014861786168681E0848B2FEF3FEF338BE6
S11309C0228B318B208B868B08952F923F924F92EE
S11309D05F926F927F928F929F92AF92BF92CF92CB
S11309E0DF92EF92FF920F931F93CF93DF93CDB7D4
S11309F0DEB72D970FB6F894DEBF0FBECDBFDC0176
S1130A001896ED91FC9119976E177F070CF09BC017
S1130A101A96ED91FC911B974E175F070CF093C04B
S1130A208C2C912CFB01B6E0CB9EE00DF11D112422
S1130A301E161F060CF087C0F40133E0EE0FFF1FF3
S1130A403A95E1F7E40FF51F1E161F060CF07BC064
S1130A50CF82FE82ED821C830B831A015C0145E088
S1130A60249F900111247D876C873B011A82C90160
S1130A70861B970B99878887D1011896BB87AA870D
S1130A80BA81B53049F0E885F985E60DF71DE859D6
S1130A90FF4F2491298301C0198221016101398109
S1130AA030FF12C0D501ED91FC91BF81B13031F41A
S1130AB00480F581E02D2B813C8117C00684F785E5
S1130AC0E02DEB80FC801BC02B813C814D815E813D
S1130AD024173507D9F0D501ED91FC91BF81B130D0
S1130AE049F40480F581E02D9A01A201B301C50106
S1130AF009950CC00684F785E02DED80FE80840105
S1130B009401A6016C857D85C501099529812695E9
S1130B1029833FEF431A530AC80CD91C4A855B85C5
S1130B204416550609F0BBCF5A815F5F5A838FEF95
S1130B30681A780AAC85BD85A80DB91DBD87AC8738
S1130B40563009F09DCF2D960FB6F894DEBF0FBE38
S1130B50CDBFDF91CF911F910F91FF90EF90DF9068
S1130B60CF90BF90AF909F908F907F906F905F9049
S1130B704F903F902F900895CF92EF92FF920F9352
S1130B801F93CF93DF93EC016A3059F42C898E853F
S1130B909F8538E0239F800D911D11249F878E87A8
S1130BA035C06D30A9F1262FEA88FB880889198998
S1130BB04E855F856C857D85CC880E94E5044C89D3
S1130BC0242F30E08C859D8556E0459F800D911D36
S1130BD011249D878C874E894423D1F04AEF420328
S1130BE0B001439F700D112448855985460F571F46
S1130BF0481759076CF483E0220F331F8A95E1F7F5
S1130C008E859F85280F391F3F872E871D861C865A
S1130C1081E090E0DF91CF911F910F91FF90EF90D1
S1130C20CF900895611101C061E0FC01648B0895C7
S1130C30FC01738B628B718B608B0895FC01718B4B
S1130C40608B538B428B0895FC01668B0895FC01E5
S1130C506370658B8481958126813781613039F099
S1130C60633029F0918780873387228708953187FD
S1130C702087938782870895FC0177FD68C080856B
S1130C809185681779070CF062C057FD60C08285B2
S1130C909385481759070CF05AC08589823059F05A
S1130CA08330B1F08130D1F48FE290E0861B970B52
S1130CB0BA01AC0113C083E590E0FC01E61BF70B1D
S1130CC0BF018FE290E0FC01E41BF50BAF0106C00D
S1130CD083E590E0841B950BAB01BC016435710581
S1130CE0B0F54033510598F5CA01E3E09595879531
S1130CF0EA95E1F747705527232BA1F024E5289FB7
S1130D00F001299FF00D11246E0F7F1FFB01EA5F94
S1130D10FE4F81E090E001C0880F4A95EAF7908188
S1130D20892B14C024E5289FF001299FF00D11247C
S1130D306E0F7F1FFB01EA5FFE4F81E090E001C070
S1130D40880F4A95EAF780959081892380830895D6
S1130D50FF920F931F93CF93DF93EC01F62E142F82
S1130D60022F40E350E064E570E00E94C7048CE188
S1130D7093E0998388838FEF8F8B888FF98E0A8F06
S1130D801B8FDF91CF911F910F91FF900895FC016C
S1130D9087898F3F21F481E0908D9F3F09F080E0A7
S1130DA008951F93CF93DF93EC01162F0E94C7067B
S1130DB0882331F01EBD0DB407FEFDCF8EB521C0D2
S1130DC028E030E090E8EE8DFF8D408189A1809588
S1130DD084238083EC8DFD8D88A1412F492319F054
S1130DE04081842B03C04081809584238083EE8DD1
S1130DF0FF8D408189A1842B8083969521503109F0
S1130E0011F7DF91CF911F9108951F93CF93DF9333
S1130E10EC01162F60E0898D0E9461158B8D1816E8
S1130E201CF460E00E946115612FCE010E94D1067E
S1130E308B8D181634F461E0DF91CF911F910C94DF
S1130E406115DF91CF911F910895CF92DF92EF92B8
S1130E50FF920F931F93CF93DF93EC0186E0E82E6C
S1130E6081E0F82E10E0612F6064CE010E94050736
S1130E7060E8CE010E94050761E0898D0E9461153A
S1130E808B8D18161CF460E00E946115670104E55F
S1130E90F60161916F01CE010E94D1060150C1F7A4
S1130EA08B8D18161CF461E00E9461151F5FF4E538
S1130EB0EF0EF11C1630B9F660E4CE01DF91CF914C
S1130EC01F910F91FF90EF90DF90CF900C94050746
S1130ED00F931F93CF93DF93EC01162F042F0E94DF
S1130EE0C706882361F00E94E41380E00E94111475
S1130EF080E00E940C1481E00E94031434C061E07D
S1130F008F890E94251561E0888D0E942515888DA2
S1130F10082E000C990BFC01E95FF94FE491F0E015
S1130F20EE0FFF1FE55EF94F259134913F8F2E8F11
S1130F30FC01ED50FA4FE491E9A38F89082E000CCF
S1130F40990BFC01E95FF94FE491F0E0EE0FFF1F0C
S1130F50E55EF94F259134913D8F2C8FFC01ED50C6
S1130F60FA4FE491E8A361E0898D0E9425158A8DEA
S1130F7018161CF461E00E9425158B8D18161CF4BC
S1130F8061E00E9425158A8D181684F460E00E94A1
S1130F9061152FEF89E698E1215080409040E1F7F8
S1130FA000C0000061E08A8D0E94611561E2CE01FB
S1130FB00E940507602F6061CE010E94050717FD9E
S1130FC01FE7612F6068CE010E94050760E2CE0131
S1130FD00E9405076CE0CE010E940507CE01DF9157
S1130FE0CF911F910F910C94250728EF31E0E6E093
S1130FF0F1E0DF01A9011D9241505040E1F7DC010D
S11310001D961C921E921C971F961C921E921E9750
S11310100895FC0114821382608388E08183128224
S11310200895FC01608381E00895CF93DF9300D09D
S1131030CDB7DEB71A82198222E0AE014F5F5F4F4F
S1131040FC0180810E947F1189819A8198278927D8
S113105098270F900F90DF91CF910895CF93DF934E
S1131060EC0161E00E941508BC01990F880B990BF3
S11310700E94AC1629813A814B815C810E945C17E5
S1131080DF91CF910895CF93DF93EC0162E00E944A
S11310901508BC01990F880B990B0E94AC16298581
S11310A03A854B855C850E945C17DF91CF9108954A
S11310B0CF93DF9300D0CDB7DEB74A83598322E0C4
S11310C0AE014F5F5F4FFC0180810E9456110F906B
S11310D00F90DF91CF910895CF92DF92EF92FF921C
S11310E00F93FC01842FC12CD12C90E1E92E92E4C2
S11310F0F92EC18AD28AE38AF48AC12CD12C30E732
S1131100E32E31E4F32EC586D686E786F08A4AE0DC
S1131110C42E47EDD42E43EAE42E4AE3F42EC182D2
S1131120D282E382F482C186D286E386F4865AE0D0
S1131130C52E57EDD52E53E2E52E5CE3F52EC58280
S1131140D682E782F08698E0299FA0011124402BE3
S113115020E4829FC0011124482B592B70E0762F84
S11311606627770F462B572B60E0CF010E94580863
S113117081E00F91FF90EF90DF90CF9008958F92D0
S11311809F92AF92BF92CF92DF92EF92FF920F9312
S11311901F936B017C0149015A010E946A1400915A
S11311A03604109137042091380430913904DC015D
S11311B0CB01801B910BA20BB30B85369105A105C6
S11311C0B10508F480C08EE394E00E94F50762E064
S11311D08EE394E00E94270661E08EE394E00E948F
S11311E0240661E08EE394E00E94120641E050E0A0
S11311F060E070E08EE394E00E941E0669ED75E005
S11312008EE394E00E94F71123E030E0B501A401DD
S11312108EE394E00E94D01360E373E08EE394E0E5
S11312200E94491263ED75E08EE394E00E94F71189
S113123023E030E0B701A6018EE394E00E94D013CE
S113124062E373E08EE394E00E94491261E070E08F
S11312508EE394E00E94180662E08EE394E00E941C
S1131260120685E694E00E944308AB01BC0122E02B
S113127030E08EE394E00E94D01362E373E08EE3E7
S113128094E00E94491285E694E00E942E08AB0186
S1131290BC0123E030E08EE394E00E94D01360E3CD
S11312A073E08EE394E00E9449128EE394E00E947E
S11312B025070E946A146093360470933704809360
S11312C03804909339041F910F91FF90EF90DF90B1
S11312D0CF90BF90AF909F908F9008958F929F92E0
S11312E0AF92BF92CF92DF92EF92FF92CF93DF93B0
S11312F000D0CDB7DEB79C0128573540293D304496
S113130040F064EA75E08BE894E00E94371280E0D4
S1131310B4C09C01A1E1B0E00E94EB170E94AA16A0
S113132020E030E04AE753E40E9402169B01AC013E
S113133060E070EE86EA94E40E9490156B017C01F3
S113134020E030E040E853E40E945C174B015C016C
S113135020E030E44CE154E40E9402160E947B1623
S11313609B016F3F710509F028F4672B29F421E0F4
S113137030E002C02FEF30E02983A1E7B2E00E9401
S1131380EB170E94AA1620E030E040E05CE30E94E4
S11313905C179B01AC01C501B4010E9402160E94B6
S11313A07B166A8364E373E08BE894E00E941A126C
S11313B022E030E0B701A6018BE894E00E94D2134A
S11313C067E473E08BE894E00E941A124AE050E06C
S11313D069818BE894E00E94C5126FE473E08BE8A6
S11313E094E00E941A124AE050E06A818BE894E08B
S11313F00E94C5122981AA8130E0B0E00E94EB1757
S11314009B01AC01A2EEB4E00E94FA176C01EE2439
S1131410FF2467E573E08BE894E00E941A124AE027
S113142050E0B6018BE894E00E94DD1260E773E0BF
S11314308BE894E00E941A12A6E0BFEFA701960180
S11314400E9408186A54784E8A4F9F4F21E130E079
S113145040E050E00E94C917CA01B9014AE050E0D7
S11314608BE894E00E94DD1222E0AE014F5F5F4FF3
S113147060E080E50E94561181E00F900F90DF91AB
S1131480CF91FF90EF90DF90CF90BF90AF909F905F
S11314908F9008954F925F926F927F92AF92BF9216
S11314A0CF92DF92EF92FF920F931F93CF93DF932C
S11314B000D0CDB7DEB75C010A978F37934140F077
S11314C068E775E08BE894E00E94371280E0C0C0C2
S11314D0B50180E090E00E94AA1620E030E040EAE6
S11314E050E40E9402166B017C0120E030E040E0F1
S11314F053E40E945C1720E030E44CE154E40E9481
S113150002160E947B168B016F3F710509F028F4C7
S1131510672B29F401E010E002C00FEF10E009830B
S113152020E030E040E853E4C701B6010E945C17B4
S11315302B013C019801A1E7B2E00E94EB170E9445
S1131540AA1620E030E040E85CE30E945C179B01AF
S1131550AC01C301B2010E9402160E947B166A8389
S11315606CEB73E08BE894E00E941A124AE050E0BE
S1131570B5018BE894E00E94DD1263ED73E08BE823
S113158094E00E941A1222E030E0B701A6018BE831
S113159094E00E94D21367E473E08BE894E00E9425
S11315A01A124AE050E069818BE894E00E94C51267
S11315B06FE473E08BE894E00E941A124AE050E072
S11315C06A818BE894E00E94C5122981AA8130E0E7
S11315D0B0E00E94EB179B01AC01A4ECB9E00E94BF
S11315E0FA170E94AA1620E030E040E857E30E9470
S11315F05C176B017C0167EE73E08BE894E00E945A
S11316001A1222E030E0B701A6018BE894E00E94B0
S1131610D21363E074E08BE894E00E941A1220E095
S113162030E040EA50E4C701B6010E945C17AB0108
S1131630BC0122E030E08BE894E00E94D21322E067
S1131640AE014F5F5F4F60E081E50E94561181E07B
S11316500F900F90DF91CF911F910F91FF90EF901A
S1131660DF90CF90BF90AF907F906F905F904F903E
S113167008951F920F920FB60F9211240F900FBE70
S11316800F901F9018951F93CF93DF9300D000D035
S113169000D0CDB7DEB7182F62E1CE0104960E94C8
S11316A0E50D63E1CE0101960E94E50DCE0104969D
S11316B0112339F00E94C80DCE0101960E94C80D75
S11316C006C00E94AA0DCE0104960E94AA0D269679
S11316D00FB6F894DEBF0FBECDBFDF91CF911F913F
S11316E008950E94C11440E051EE60E070E08BE880
S11316F094E00E947B0F63E675E08BE894E00E941F
S1131700F71160E87AE186E090E00E943B1081E006
S11317100C94430BCF93DF931F92CDB7DEB7A895FC
S11317200FB6F894A895809160008861809360005A
S1131730109260000FBE0E94710B64E485E694E091
S11317400E94110807E024E044E060E085E694E0AC
S11317500E946C0880EC898321E0AE014F5F5F4FEB
S113176060E180E50E94561184EC99E00E946E09C4
S113177088E893E10E944A0A68EC70E080E090E017
S11317800E949B1444E068E28EE394E00E946807A0
S113179020E030E040EA50E460E070E080E290E471
S11317A00E94BF080E94390C06E21FE08CE794E017
S11317B00E94170D81112BC08CE794E00E942B0D21
S11317C0833091F46EEC75E08BE894E00E9437125C
S11317D0809135048F5F809335048230C1F40E9478
S11317E0DC0C1092350413C0823089F46AEC75E085
S11317F08BE894E00E943712809134048F5F8093C9
S11318003404823021F40E94C60C10923404809176
S1131810890490918A040E946E09609189047091F0
S11318208A0480E090E00E94AA1620E030E04AE7B3
S113183054E40E94021620E030E040EA50E40E94A2
S1131840BF080115110509F4B1CF0E94260FAECFD0
S113185068E480E694E00E94090828E04AE069E030
S11318608EE394E00E94A80667E08BE394E00C9476
S1131870E50D84EE9CE090938A0480938904109291
S1131880880484E690E090937B0480937A048AB180
S11318908F7C8AB98BB180638BB9EDE6F0E08081EF
S11318A080638083E8E6F0E080818460808308952B
S11318B01F920F920FB60F9211242F933F934F93C1
S11318C05F936F937F938F939F93AF93BF93EF93A4
S11318D0FF9389B180938604F894109287048091D1
S11318E0860484FF05C08091870481608093870407
S11318F08091860485FF05C080918704826080936F
S113190087049091880480918704981769F18091E5
S11319108704811106C080918804813009F563E051
S113192009C080918704813051F480918804811129
S113193017C062E08CE794E00E945D0D11C08091B5
S11319408704833029F480918804823049F4E7CFF6
S113195080918704823021F480918804833049F394
S113196080918704809388047894FF91EF91BF91CC
S1131970AF919F918F917F916F915F914F913F9123
S11319802F910F900FBE0F901F90189540917A04DD
S113199050917B048091890490918A0420E536E477
S11319A0241B350B2817390730F0840F951F9093AB
S11319B08A0480938904089520917A0430917B04E9
S11319C08091890490918A04A90148585A4F841738
S11319D0950730F0821B930B90938A0480938904BB
S11319E0089560E170E08CE794E00C94240D8CE79A
S11319F094E00C94900D0F931F93CF93DF93EC011D
S1131A00162F072F81E090E00E94BD11FC01108386
S1131A10998788871E830F838FEF9FEF9D838C8325
S1131A209B838A83DF91CF911F910F910895FC01CD
S1131A3082819381019631F481E0248135812F3FA5
S1131A403F4F09F080E0089520E234E0FC01318347
S1131A5020830C94FB0CFC01228133814481558149
S1131A602F3F8FEF380721F44F3F8FEF580719F1BD
S1131A7080859185DC01A20FB31F2417350731F44B
S1131A809C912FEF3FEF3583248312C042175307F5
S1131A9064F446815781415051092417350729F4CC
S1131AA09C9113821282892F08959C912F5F3F4F3E
S1131AB033832283F8CF80E00895FC0122813381AF
S1131AC0848195812115310539F44681578141502E
S1131AD051098417950719F1A90141505109841737
S1131AE09507E9F0468157814150510984179507BC
S1131AF031F4121613061CF41582148203C00196E5
S1131B0095838483A085B18584819581A80FB91FAD
S1131B106C9382819381019611F413821282089549
S1131B200895FC01683018F48BE290E00FC088EF50
S1131B30860F863030F425E230E0318320838283BF
S1131B4008956E50663028F488E290E09183808393
S1131B5062830895FC01A081B1819E9121E030E06F
S1131B60A901028002C0440F551F0A94E2F7842F92
S1131B70809589238C93A081B1818C91028002C0CD
S1131B80220F331F0A94E2F7209528232C930895FB
S1131B90FC01A081B1819E9121E030E0A901028085
S1131BA002C0440F551F0A94E2F7842F80958923BD
S1131BB08C93A081B1818C91028002C0220F331FCB
S1131BC00A94E2F7282B2C9308950C94910DFC01B0
S1131BD024853585F901E05CFF4F8081918132963F
S1131BE020813181821B930B8F7399270895DC0127
S1131BF01C96ED91FC911D97DF01A05CBF4F2D91C8
S1131C003C91119712968D919C9111972817390741
S1131C1039F08D919C91E80FF91F808190E008952F
S1131C208FEF9FEF0895FC01A485B585FD01E05C6D
S1131C30FF4F2081318132968081918128173907A5
S1131C4079F080819181A80FB91F8C912081318115
S1131C502F5F3F4F2F7333273183208390E0089504
S1131C608FEF9FEF0895FC0186859785FC01E05C6A
S1131C70FF4FDC01AE5BBF4F408151812D913C9100
S1131C80119742175307C1F708950F931F93CF93EA
S1131C90DF93DC0192968C9192978130C9F11E9664
S1131CA0ED91FC911F978F01005C1F4FE801288183
S1131CB039812F5F3F4F2F733327AF014E5B5F4F47
S1131CC0EA018881998182179307D1F3E801488159
S1131CD05981E40FF51F60831E96ED91FC911F97C7
S1131CE0E05CFF4F318320835696ED91FC9157972A
S1131CF0408121E030E0C9015D960C9002C0880F5C
S1131D00991F0A94E2F7842B808381E090E002C05B
S1131D1080E090E0DF91CF911F910F910895089595
S1131D201F920F920FB60F9211242F933F934F934C
S1131D305F936F937F938F939F93AF93BF93CF934F
S1131D40EF93FF93C091C6008091AB04882399F070
S1131D50CD3059F46DE08BE894E00E94450E6AE0C2
S1131D608BE894E00E94450E08C06C2F8BE894E049
S1131D700E94450E06C0CD3021F481E08093AA0470
S1131D800DC0C03229F48091AC04882339F04CC0D2
S1131D90CF3721F480913A04811124C08091340515
S1131DA090913505209136053091370501968F7352
S1131DB099272817390761F0E0913405F09135052A
S1131DC0EC50FB4FC08390933505809334052CC0B1
S1131DD08091AE049091AF0401969093AF048093E8
S1131DE0AE0422C08091AE049091AF04009711F02C
S1131DF00197F3CF20913405309135058091360554
S1131E00909137052817390779F08091340590911E
S1131E103505892B19F48FE390E0D5CF80913405F3
S1131E20909135050197CFCFFF91EF91CF91BF915D
S1131E30AF919F918F917F916F915F914F913F915E
S1131E402F910F900FBE0F901F9018958BE894E080
S1131E500E94E70D892B11F00C948F0E08951F92A8
S1131E600F920FB60F9211242F933F938F939F934A
S1131E70EF93FF932091F0043091F1048091F204E8
S1131E809091F3042817390731F48091C1008F7DB4
S1131E908093C10014C0E091F204F091F304E05582
S1131EA0FB4F20818091F2049091F30401968F738B
S1131EB099279093F3048093F2042093C600FF9132
S1131EC0EF919F918F913F912F910F900FBE0F90A3
S1131ED01F901895FC0112A2A689B7894C9121E0A4
S1131EE030E0C901038C02C0880F991F0A94E2F7FD
S1131EF0842B8C930895CF92DF92EF92FF92CF932D
S1131F00DF93EC016A017B0119A218A20E946A0FF7
S1131F10C11481EED806E104F10409F1EC89FD89CC
S1131F2081E090E00E8C02C0880F991F0A94E2F7BA
S1131F30808360E079E08DE390E0A70196010E9440
S1131F40C917DA01C9010197A109B109B695A79585
S1131F50979587959C01211580E13807A8F0EC89B5
S1131F60FD89108260E874E88EE190E0A701960193
S1131F700E94C917DA01C9010197A109B109B695EF
S1131F80A795979587959C01E889F9893083EA8913
S1131F90FB892083EE89FF89408181E090E09C01E8
S1131FA00A8C02C0220F331F0A94E2F7242B2083E9
S1131FB0EE89FF8940819C010B8C02C0220F331FE4
S1131FC00A94E2F7242B2083EE89FF8940819C0147
S1131FD00C8C02C0220F331F0A94E2F7242B2083B7
S1131FE0EE89FF8920810D8C02C0880F991F0A9405
S1131FF0E2F78095822380831F8EDF91CF91FF903B
S1132000EF90DF90CF900895EBE8F4E01382128212
S113201088EE93E0A0E0B0E084839583A683B78341
S113202086E294E09183808384EF94E095878487AB
S113203080EB94E09787868785EC90E0918B808B8A
S113204084EC90E0938B828B80EC90E0958B848B76
S113205081EC90E0978B868B86EC90E0918F808F5B
S113206084E0828F83E0838F87E0848F85E0858F8F
S113207081E0868F08959B01AC0160E074E284EFF7
S113208090E00E94C917DA01C9014097A109B1097A
S1132090B695A795979587958F3F910509F040F4DC
S11320A01092B9008093B80024E02093BC000895F6
S11320B080E090E008950F931F9384EA8093BC001E
S11320C00E946A14609338057093390580933A0529
S11320D090933B058091BC0087FD1EC00E946A144A
S11320E0009138051091390520913A0530913B054E
S11320F0AB01BC01401B510B620B730B8091FE02C0
S11321009091FF02A0E0B0E084179507A607B707F7
S113211008F782E090E008C02091B900287F81E0B0
S113212090E0283009F080E01F910F9108950F93FB
S11321301F9384EA8093BC000E946A14609338055C
S11321407093390580933A0590933B058091BC00C8
S113215087FD1EC00E946A1400913805109139054C
S113216020913A0530913B05AB01BC01401B510B5A
S1132170620B730B8091FE029091FF02A0E0B0E02D
S113218084179507A607B70708F782E090E008C010
S11321902091B900287F81E090E0203109F080E0AF
S11321A01F910F9108950F931F938093BB009091FB
S11321B0BC0093FDFACF84E88093BC000E946A14AB
S11321C0609338057093390580933A0590933B05E5
S11321D08091BC0087FD1DC00E946A1400913805DF
S11321E01091390520913A0530913B05AB01BC01B2
S11321F0401B510B620B730B8091FE029091FF0206
S1132200A0E0B0E084179507A607B70708F782E0B7
S113221003C08091B900887F1F910F9108950F9397
S11322201F93CF93DF93EB01882311F084E801C05F
S113223084EC8093BC000E946A1460933805709308
S1132240390580933A0590933B058091BC0087FD46
S11322501DC00E946A14009138051091390520911F
S11322603A0530913B05AB01BC01401B510B620B9D
S1132270730B8091FE029091FF02A0E0B0E08417FE
S11322809507A607B70708F782E004C08091BB0052
S1132290888381E0DF91CF911F910F910895880F7A
S11322A081600C94D310880F0C94D310FF920F9379
S11322B01F93CF93DF93D82FC62FF42E052F122F01
S11322C00E945B108D2F0E9453118C2F0E94D310FB
S11322D0CF2DD02FCE01810F911D8C01C017D107B6
S11322E021F089910E94D310F9CF84E98093BC0036
S11322F081E0DF91CF911F910F91FF900895CF92CC
S1132300DF92EF92FF920F931F93CF93DF93C82F27
S1132310D62F8A01E22E0E945B108C2F0E9453114B
S11323208D2F0E94D3100E9497108C2F0E944F1162
S1132330E801F12C00E010E0670181E0C81AD1083F
S11323400E151F0569F0BE01C016D10611F080E01C
S113235001C081E00E940F110F5F1F4F2196F0CF43
S113236084E98093BC0081E0DF91CF911F910F91AC
S1132370FF90EF90DF90CF9008950C941318089578
S1132380CF92DF92EF92FF920F931F93CF93DF933D
S11323906C01EB017B01E40EF51E00E010E0CE15AC
S11323A0DF0561F06991D601ED91FC910190F08116
S11323B0E02DC6010995080F191FF1CFC801DF915F
S11323C0CF911F910F91FF90EF90DF90CF900895E0
S11323D0FB0101900020E9F73197AF01461B570B31
S11323E0DC01ED91FC910280F381E02D0994EF92E0
S11323F0FF920F931F93CF93DF937C01FB0100E0C7
S113240010E06491EF012196662361F0D701ED910C
S1132410FC910190F081E02DC7010995080F191F67
S1132420FE01EFCFC801DF91CF911F910F91FF9073
S1132430EF9008950C94E811DC01ED91FC9101906A
S1132440F081E02D09940F931F93CF93DF93EC0158
S11324506DE00E941C128C016AE0CE010E941C12E5
S1132460800F911FDF91CF911F910F9108950F93CA
S11324701F93CF93DF93EC010E94F7118C01CE01DF
S11324800E942312800F911FDF91CF911F910F9112
S113249008950F931F93CF93DF93EC010E94E811EB
S11324A08C01CE010E942312800F911FDF91CF91E6
S11324B01F910F9108958F929F92AF92BF92CF92E6
S11324C0DF92EF92FF920F931F93CF93DF93CDB7D9
S11324D0DEB7A1970FB6F894DEBF0FBECDBF6C0177
S11324E0142FE52FCB01022F19A2223008F40AE0A1
S11324F07E0121E2E20EF11C802E912CA12CB12C44
S1132500612F7E2FA50194010E94C917029F101903
S1132510112481E0E81AF1081A3010F4105D01C0AA
S1132520195CF7011083122FE32FCA01232B242BEC
S1132530252B31F7B701C6010E94E811A1960FB609
S1132540F894DEBF0FBECDBFDF91CF911F910F91E5
S1132550FF90EF90DF90CF90BF90AF909F908F90BF
S113256008952115310541F4DC01ED91FC910190B0
S1132570F081E02D642F09940C945B129A01462F8C
S113258050E060E070E00C94B1120F931F93CF936E
S1132590DF93EC010E94BE128C01CE010E94231233
S11325A0800F911FDF91CF911F910F9108959A0190
S11325B0AB0160E070E00C94B1120F931F93CF93C2
S11325C0DF93EC010E94D7128C01CE010E942312EA
S11325D0800F911FDF91CF911F910F910895CF929A
S11325E0DF92EF92FF920F931F93CF93DF93211506
S11325F0310581F4DC01ED91FC910190F081E02D35
S1132600642FDF91CF911F910F91FF90EF90DF9096
S1132610CF9009942A30310501F577FF1DC06A0176
S11326207B01EC016DE20E941C128C0144275527AA
S1132630BA014C195D096E097F092AE0CE010E9496
S11326405B12800F911FDF91CF911F910F91FF902B
S1132650EF90DF90CF9008952AE0DF91CF911F9102
S11326600F91FF90EF90DF90CF900C945B129A0142
S1132670AB01770F660B770B0C94EF124F925F92BE
S11326806F927F92AF92BF92CF92DF92EF92FF92BE
S11326900F931F93CF935C016A017B01722E20E09C
S11326A030E0A901C701B6010E94FD1587FF0AC0E9
S11326B06DE2C5010E941C128C01F7FAF094F7F840
S11326C0F09402C000E010E0C0E060E070E080E060
S11326D09FE3C71541F020E030E040E251E40E945E
S11326E00216CF5FF6CF9B01AC01C701B6010E9471
S11326F091156B017C010E947B162B013C012AE0A1
S1132700AB01BC01C5010E945B12080F191FCC2349
S1132710C1F1C301B2010E94AA169B01AC01C70119
S1132720B6010E9490156B017C0162E374E0C5015F
S11327300E94E811080F191F20E030E040E251E444
S1132740C701B6010E945C172B013C010E9474165C
S11327506B017C014AE050E0C5010E943713080F69
S1132760191FB601DD0C880B990B0E94AC169B0156
S1132770AC01C301B2010E9490156B017C01C150F0
S1132780D9F6C801CF911F910F91FF90EF90DF9080
S1132790CF90BF90AF907F906F905F904F900895CF
S11327A00C943E130F931F93CF93DF93EC010E947D
S11327B03E138C01CE010E942312800F911FDF91E2
S11327C0CF911F910F91089561E08DE00E9425152E
S11327D061E08BE00E94251561E08AE00E942515E6
S11327E060E08DE00E94611560E08BE00E9461155D
S11327F061E08AE00E9461158CB580618CBD8CB566
S113280080648CBD0895811103C08CB5806202C0C0
S11328108CB58F7D8CBD08959CB5937F892B8CBD21
S113282008959CB59C7F282F2370922B9CBD2DB5B9
S113283082FB992790F9822F8E7F892B8DBD089575
S11328401F920F920FB60F9211242F933F938F93E1
S11328509F93AF93BF9380913D0590913E05A091C6
S11328603F05B091400530913C0523E0230F2D37FF
S113287020F40196A11DB11D05C026E8230F029680
S1132880A11DB11D20933C0580933D0590933E0509
S1132890A0933F05B0934005809141059091420576
S11328A0A0914305B09144050196A11DB11D8093EB
S11328B0410590934205A0934305B0934405BF910D
S11328C0AF919F918F913F912F910F900FBE0F90D9
S11328D01F9018952FB7F89460913D0570913E05AF
S11328E080913F05909140052FBF08953FB7F8941C
S11328F08091410590914205A0914305B091440512
S113290026B5A89B05C02F3F19F00196A11DB11D46
S11329103FBFBA2FA92F982F8827820F911DA11D81
S1132920B11DBC01CD0142E0660F771F881F991FBE
S11329304A95D1F70895CF92DF92EF92FF92CF9309
S1132940DF936B017C010E947614EB01C114D10466
S1132950E104F10479F00E9476146C1B7D0B683E4F
S11329607340A0F381E0C81AD108E108F108C85106
S1132970DC4FECCFDF91CF91FF90EF90DF90CF90C1
S11329800895789484B5826084BD84B5816084BDE3
S113299085B5826085BD85B5816085BDEEE6F0E0D4
S11329A0808181608083E1E8F0E010828081826030
S11329B08083808181608083E0E8F0E080818160B1
S11329C08083E1EBF0E0808184608083E0EBF0E0E1
S11329D0808181608083EAE7F0E080818460808385
S11329E0808182608083808181608083808180682F
S11329F080831092C1000895833081F028F48130DF
S1132A0099F08230A1F008958630A9F08730B9F0AA
S1132A108430D1F4809180008F7D03C08091800048
S1132A208F7780938000089584B58F7702C084B532
S1132A308F7D84BD08958091B0008F7703C080910D
S1132A40B0008F7D8093B0000895CF93DF9390E022
S1132A50FC01ED50FA4F2491FC01E95FF94F849198
S1132A60882361F190E0880F991FFC01EB5DF94F19
S1132A70C591D491FC01E55EF94FA591B491611122
S1132A8009C09FB7F8948881209582238883EC91AC
S1132A902E230BC0623061F49FB7F8948881322FE3
S1132AA0309583238883EC912E2B2C939FBF06C0F3
S1132AB08FB7F894E8812E2B28838FBFDF91CF91B5
S1132AC008951F93CF93DF93282F30E0F901E1524B
S1132AD0FA4F8491F901ED50FA4FD491F901E95F6D
S1132AE0F94FC491CC23C1F0162F81110E94FC141C
S1132AF0EC2FF0E0EE0FFF1FE55EF94FA591B491C6
S1132B009FB7F894111104C08C91D095D82302C0BA
S1132B10EC91DE2BDC939FBFDF91CF911F91089541
S1132B205058BB27AA270E94A8150C9422170E946C
S1132B30141738F00E941B1720F039F49F3F19F442
S1132B4026F40C9411170EF4E095E7FB0C940B1784
S1132B50E92F0E94331758F3BA17620773078407E3
S1132B60950720F079F4A6F50C9455170EF4E0952A
S1132B700B2EBA2FA02D0B01B90190010C01CA0133
S1132B80A0011124FF27591B99F0593F50F4503EDE
S1132B9068F11A16F040A22F232F342F4427585FD0
S1132BA0F3CF469537952795A795F0405395C9F7E8
S1132BB07EF41F16BA0B620B730B840BBAF09150A0
S1132BC0A1F0FF0FBB1F661F771F881FC2F70EC03F
S1132BD0BA0F621F731F841F48F487957795679512
S1132BE0B795F7959E3F08F0B0CF9395880F08F0FE
S1132BF09927EE0F9795879508950E94E71608F494
S1132C0081E008950E9416160C9422170E941B1747
S1132C1058F00E94141740F029F45F3F29F00C94F7
S1132C200B1751110C9456170C9411170E9433175B
S1132C3068F39923B1F3552391F3951B550BBB27E7
S1132C40AA2762177307840738F09F5F5F4F220F2C
S1132C50331F441FAA1FA9F335D00E2E3AF0E0E823
S1132C6032D091505040E695001CCAF72BD0FE2F6D
S1132C7029D0660F771F881FBB1F26173707480701
S1132C80AB07B0E809F0BB0B802DBF01FF279358B9
S1132C905F4F3AF09E3F510578F00C940B170C945B
S1132CA056175F3FE4F3983ED4F38695779567957E
S1132CB0B795F7959F5FC9F7880F911D96958795EE
S1132CC097F90895E1E0660F771F881FBB1F62170D
S1132CD073078407BA0720F0621B730B840BBA0BCB
S1132CE0EE1F88F7E09508950E947B166894B11151
S1132CF00C94561708950E943B1788F09F5798F03C
S1132D00B92F9927B751B0F0E1F0660F771F881FEC
S1132D10991F1AF0BA95C9F714C0B13091F00E9406
S1132D205517B1E008950C945517672F782F88270D
S1132D30B85F39F0B93FCCF3869577956795B3952D
S1132D40D9F73EF490958095709561957F4F8F4F9C
S1132D509F4F0895E89409C097FB3EF490958095A1
S1132D60709561957F4F8F4F9F4F9923A9F0F92F4D
S1132D7096E9BB279395F695879577956795B795CB
S1132D80F111F8CFFAF4BB0F11F460FF1BC06F5FB1
S1132D907F4F8F4F9F4F16C0882311F096E911C0C3
S1132DA0772321F09EE8872F762F05C0662371F0E4
S1132DB096E8862F70E060E02AF09A95660F771FF8
S1132DC0881FDAF7880F9695879597F90895990FD4
S1132DD00008550FAA0BE0E8FEEF16161706E807E1
S1132DE0F907C0F012161306E407F50798F0621B02
S1132DF0730B840B950B39F40A2661F0232B242BD7
S1132E00252B21F408950A2609F4A140A6958FEFF5
S1132E10811D811D089597F99F6780E870E060E047
S1132E2008959FEF80EC089500240A94161617065F
S1132E3018060906089500240A94121613061406A7
S1132E4005060895092E0394000C11F4882352F00A
S1132E50BB0F40F4BF2B11F460FF04C06F5F7F4FC2
S1132E608F4F9F4F089557FD9058440F551F59F0A9
S1132E705F3F71F04795880F97FB991F61F09F3F63
S1132E8079F087950895121613061406551FF2CF8C
S1132E904695F1DF08C0161617061806991FF1CFDC
S1132EA086957105610508940895E894BB27662703
S1132EB07727CB0197F908950E946F170C94221776
S1132EC00E94141738F00E941B1720F0952311F06C
S1132ED00C940B170C94111711240C9456170E9480
S1132EE0331770F3959FC1F3950F50E0551F629F00
S1132EF0F001729FBB27F00DB11D639FAA27F00D4F
S1132F00B11DAA1F649F6627B00DA11D661F829F75
S1132F102227B00DA11D621F739FB00DA11D621F5A
S1132F20839FA00D611D221F749F3327A00D611D77
S1132F30231F849F600D211D822F762F6A2F112459
S1132F409F5750409AF0F1F088234AF0EE0FFF1F8C
S1132F50BB1F661F771F881F91505040A9F79E3FE3
S1132F60510580F00C940B170C9456175F3FE4F353
S1132F70983ED4F3869577956795B795F795E79539
S1132F809F5FC1F7FE2B880F911D9695879597F942
S1132F900895A1E21A2EAA1BBB1BFD010DC0AA1F96
S1132FA0BB1FEE1FFF1FA217B307E407F50720F0AE
S1132FB0A21BB30BE40BF50B661F771F881F991F29
S1132FC01A9469F760957095809590959B01AC0172
S1132FD0BD01CF010895A29FB001B39FC001A39F7B
S1132FE0700D811D1124911DB29F700D811D11243E
S1132FF0911D08950E94EB17A59F900DB49F900D0D
S1133000A49F800D911D11240895B7FF0C94FA1705
S11330100E94FA17821B930B0895EE0FFF1F059071
S1133020F491E02D09940F931F93CF93DF93823093
S1133030910510F482E090E0E0914705F091480595
S113304020E030E0A0E0B0E0309719F140815181F8
S11330500281138148175907C8F08417950769F44A
S1133060109731F012960C93129713961C9327C065
S1133070009347051093480522C02115310519F026
S11330804217530718F49A01BD01EF01DF01F8015B
S1133090DBCF21153105F9F0281B390B243031051C
S11330A080F48A819B816115710521F0FB01938372
S11330B0828304C09093480580934705FE013296AD
S11330C044C0FE01E20FF31F819391932250310912
S11330D0398328833AC02091450530914605232B36
S11330E041F420910201309103013093460520936D
S11330F0450520910001309101012115310541F46C
S11331002DB73EB74091040150910501241B350BA6
S1133110E0914505F0914605E217F307A0F42E1B54
S11331203F0B2817390778F0AC014E5F5F4F241727
S1133130350748F04E0F5F1F5093460540934505F1
S11331408193919302C0E0E0F0E0CF01DF91CF9151
S11331501F910F910895CF93DF93009709F481C0D5
S1133160FC01329713821282A0914705B091480561
S1133170109781F420813181820F931F209145059E
S1133180309146052817390751F5F0934605E09329
S1133190450567C0ED0120E030E0CE17DF0740F4BD
S11331A04A815B819E0141155105F1F0EA01F5CF99
S11331B0D383C28340815181840F951FC817D907D7
S11331C059F488819981840F951F02969183808395
S11331D08A819B81938382832115310529F4F0939D
S11331E04805E09347053DC0E901FB83EA83499123
S11331F05991C40FD51FEC17FD0761F480819181AB
S1133200840F951F0296E9019983888382819381B3
S11332109B838A83E0E0F0E012968D919C91139752
S1133220009719F0FD01DC01F7CF8D919C91119766
S11332309D012E5F3F4F820F931F209145053091D2
S113324046052817390769F4309729F41092480580
S11332501092470502C013821282B0934605A093D0
S11332604505DF91CF91089513E0CBE1D3E004C08D
S1133270FE010E940D182196CC31D107C9F7F894AC
S1053280FFCF7A
S113328200004905200000000000000000000000CA
S11332920000000000000000000000000000000028
S11332A2000000000000000000000000C0E0F0F890
S11332B2FCFCFEFFFCE00000000000000000000037
S11332C200000000000000000000000000000000F8
S11332D200000000000000000000000000000000E8
S11332E20000000000000000000000F8F8F8F8F800
S11332F2F8F8F8F8F8F8F8F0F0E0E0C080C0FCFF65
S1133302FFFFFF7F3F7FFFFFFFFFFF000000000082
S113331200000000000000000000000000000000A7
S11333220000000000000000000000000000000097
S11333320000000000000000000000000000000087
S11333420F1F3F7FFFFFFFFFFFFFFFFFE7C7C78797
S11333528F9F9FFFFFFFC1C0E0FCFFFFFFFFFFFC49
S1133362FCFCFCFEFEFEFCFCF8F8F0E0C0C0000031
S11333720000000000000000000000000000000047
S11333820000000000000000000000000000000037
S11333920000000000000080C0E0F1FBFFFFFFFF1F
S11333A2FF7F1F0F0F87E7FFFFFF1F1F3FF9F8F88B
S11333B2F8F8F8F8FDFFFFFFFFFFFFFFFFFF7F3F75
S11333C20F070100000000000000000000000000E0
S11333D200000000000000000000000000000000E7
S11333E2000000000000000000F0FEFFFFFFFFFFEE
S11333F2FFFFFFFFFFFE7E3F3F0F1FFFFFFFFCF0BB
S1133402E0F1FFFFFFFFFFFCF001010101010101F7
S113341201000000000000000000000000000000A5
S11334220000000000000000000000000000000096
S1133432000000000000000000000000000303037D
S11334420303030303010101010000000000000063
S1133452030F1F3F7F7FFFFFFFFF7F7F1F030000DC
S11334620000000000000000000000000000000056
S11334720000000000000000000000000000D0076F
S113348200000000BC05C011BF11460347045E04DE
S1133492F8037404A904C60400000000BC05C011AA
S11334A23C06460347045E04F8037404A904C604F4
S11334B241005600567472696D5265717569726580
S11334C264206973203A00506F742030203A00500F
S11334D26F742031203A004163686965766564201F
S11334E2567472696D5F766F6C74616765203A0019
S11334F2416368696576656420444344435F566F5B
S11335026C74616765203A0053657474696E672050
S1133512566F6C746167652C00494E4120564255C2
S1133522532052656164696E6700494E41205368B5
S1133532756E742043757272656E7400437572728F
S1133542656E74204C696D697420736574206973A7
S1133552203A00694C696D444143566F75745F6D3E
S113356256206973203A0041636869657665642070
S1133572694C696D5F44414320566F6C74616765A1
S1133582203A004163686965766564204375727206
S1133592656E74204C696D6974203A000000000065
S11335A2FB0C00000000450EC011E70D130EF70DD1
S10735B2330E2E00A2
S9030000FC
